{
  "_format": "hh-sol-artifact-1",
  "contractName": "MerklePayoutStrategyImplementation",
  "sourceName": "contracts/payoutStrategy/MerklePayoutStrategy/MerklePayoutStrategyImplementation.sol",
  "abi": [
    {
      "anonymous": false,
      "inputs": [
        {
          "indexed": true,
          "internalType": "address",
          "name": "sender",
          "type": "address"
        }
      ],
      "name": "BatchPayoutSuccessful",
      "type": "event"
    },
    {
      "anonymous": false,
      "inputs": [
        {
          "indexed": false,
          "internalType": "bytes32",
          "name": "merkleRoot",
          "type": "bytes32"
        },
        {
          "components": [
            {
              "internalType": "uint256",
              "name": "protocol",
              "type": "uint256"
            },
            {
              "internalType": "string",
              "name": "pointer",
              "type": "string"
            }
          ],
          "indexed": false,
          "internalType": "struct MetaPtr",
          "name": "distributionMetaPtr",
          "type": "tuple"
        }
      ],
      "name": "DistributionUpdated",
      "type": "event"
    },
    {
      "anonymous": false,
      "inputs": [
        {
          "indexed": false,
          "internalType": "uint256",
          "name": "amount",
          "type": "uint256"
        },
        {
          "indexed": false,
          "internalType": "address",
          "name": "grantee",
          "type": "address"
        },
        {
          "indexed": true,
          "internalType": "address",
          "name": "token",
          "type": "address"
        },
        {
          "indexed": true,
          "internalType": "bytes32",
          "name": "projectId",
          "type": "bytes32"
        }
      ],
      "name": "FundsDistributed",
      "type": "event"
    },
    {
      "anonymous": false,
      "inputs": [
        {
          "indexed": true,
          "internalType": "address",
          "name": "tokenAddress",
          "type": "address"
        },
        {
          "indexed": false,
          "internalType": "uint256",
          "name": "amount",
          "type": "uint256"
        },
        {
          "indexed": false,
          "internalType": "address",
          "name": "withdrawAddress",
          "type": "address"
        }
      ],
      "name": "FundsWithdrawn",
      "type": "event"
    },
    {
      "anonymous": false,
      "inputs": [
        {
          "indexed": false,
          "internalType": "uint8",
          "name": "version",
          "type": "uint8"
        }
      ],
      "name": "Initialized",
      "type": "event"
    },
    {
      "anonymous": false,
      "inputs": [],
      "name": "ReadyForPayout",
      "type": "event"
    },
    {
      "inputs": [],
      "name": "ROUND_OPERATOR_ROLE",
      "outputs": [
        {
          "internalType": "bytes32",
          "name": "",
          "type": "bytes32"
        }
      ],
      "stateMutability": "view",
      "type": "function"
    },
    {
      "inputs": [],
      "name": "distributionMetaPtr",
      "outputs": [
        {
          "internalType": "uint256",
          "name": "protocol",
          "type": "uint256"
        },
        {
          "internalType": "string",
          "name": "pointer",
          "type": "string"
        }
      ],
      "stateMutability": "view",
      "type": "function"
    },
    {
      "inputs": [],
      "name": "init",
      "outputs": [],
      "stateMutability": "nonpayable",
      "type": "function"
    },
    {
      "inputs": [],
      "name": "initialize",
      "outputs": [],
      "stateMutability": "nonpayable",
      "type": "function"
    },
    {
      "inputs": [],
      "name": "isDistributionSet",
      "outputs": [
        {
          "internalType": "bool",
          "name": "",
          "type": "bool"
        }
      ],
      "stateMutability": "view",
      "type": "function"
    },
    {
      "inputs": [],
      "name": "isReadyForPayout",
      "outputs": [
        {
          "internalType": "bool",
          "name": "",
          "type": "bool"
        }
      ],
      "stateMutability": "view",
      "type": "function"
    },
    {
      "inputs": [],
      "name": "merkleRoot",
      "outputs": [
        {
          "internalType": "bytes32",
          "name": "",
          "type": "bytes32"
        }
      ],
      "stateMutability": "view",
      "type": "function"
    },
    {
      "inputs": [
        {
          "components": [
            {
              "internalType": "address",
              "name": "grantee",
              "type": "address"
            },
            {
              "internalType": "uint256",
              "name": "amount",
              "type": "uint256"
            },
            {
              "internalType": "bytes32[]",
              "name": "merkleProof",
              "type": "bytes32[]"
            },
            {
              "internalType": "bytes32",
              "name": "projectId",
              "type": "bytes32"
            }
          ],
          "internalType": "struct MerklePayoutStrategyImplementation.Distribution[]",
          "name": "_distributions",
          "type": "tuple[]"
        }
      ],
      "name": "payout",
      "outputs": [],
      "stateMutability": "payable",
      "type": "function"
    },
    {
      "inputs": [],
      "name": "roundAddress",
      "outputs": [
        {
          "internalType": "address payable",
          "name": "",
          "type": "address"
        }
      ],
      "stateMutability": "view",
      "type": "function"
    },
    {
      "inputs": [],
      "name": "setReadyForPayout",
      "outputs": [],
      "stateMutability": "payable",
      "type": "function"
    },
    {
      "inputs": [],
      "name": "tokenAddress",
      "outputs": [
        {
          "internalType": "address",
          "name": "",
          "type": "address"
        }
      ],
      "stateMutability": "view",
      "type": "function"
    },
    {
      "inputs": [
        {
          "internalType": "bytes",
          "name": "encodedDistribution",
          "type": "bytes"
        }
      ],
      "name": "updateDistribution",
      "outputs": [],
      "stateMutability": "nonpayable",
      "type": "function"
    },
    {
      "inputs": [
        {
          "internalType": "address payable",
          "name": "withdrawAddress",
          "type": "address"
        }
      ],
      "name": "withdrawFunds",
      "outputs": [],
      "stateMutability": "payable",
      "type": "function"
    },
    {
      "stateMutability": "payable",
      "type": "receive"
    }
  ],
  "bytecode": "0x608060405234801561001057600080fd5b506135cf806100206000396000f3fe6080604052600436106100c65760003560e01c8063767f06521161007f578063b5ba9d3311610059578063b5ba9d3314610222578063d97f3dcf1461024d578063e1c7392a14610278578063fe169f761461028f576100cd565b8063767f0652146101b45780638129fc1c146101e05780639d76ea58146101f7576100cd565b80630b36106b146100d25780630b67d925146100fb5780632d52eff2146101265780632eb4a7ab1461015157806352fec10f1461017c57806368742da614610198576100cd565b366100cd57005b600080fd5b3480156100de57600080fd5b506100f960048036038101906100f49190611eb6565b610299565b005b34801561010757600080fd5b50610110610546565b60405161011d9190611f44565b60405180910390f35b34801561013257600080fd5b5061013b61056a565b6040516101489190611f7a565b60405180910390f35b34801561015d57600080fd5b50610166610577565b6040516101739190611fae565b60405180910390f35b6101966004803603810190610191919061201f565b61057d565b005b6101b260048036038101906101ad9190612098565b610762565b005b3480156101c057600080fd5b506101c9610a69565b6040516101d792919061216e565b60405180910390f35b3480156101ec57600080fd5b506101f5610b03565b005b34801561020357600080fd5b5061020c610c40565b60405161021991906121bf565b60405180910390f35b34801561022e57600080fd5b50610237610c66565b6040516102449190611f7a565b60405180910390f35b34801561025957600080fd5b50610262610c79565b60405161026f9190611fae565b60405180910390f35b34801561028457600080fd5b5061028d610c9d565b005b610297610e58565b005b60008060009054906101000a900473ffffffffffffffffffffffffffffffffffffffff1673ffffffffffffffffffffffffffffffffffffffff1663e40205d66040518163ffffffff1660e01b8152600401602060405180830381865afa158015610307573d6000803e3d6000fd5b505050506040513d601f19601f8201168201806040525081019061032b9190612206565b905080421161036f576040517f08c379a00000000000000000000000000000000000000000000000000000000081526004016103669061227f565b60405180910390fd5b60008054906101000a900473ffffffffffffffffffffffffffffffffffffffff1673ffffffffffffffffffffffffffffffffffffffff166391d148547fec61da14b5abbac5c5fda6f1d57642a264ebd5d0674f35852829746dfb8174a5336040518363ffffffff1660e01b81526004016103ea92919061229f565b602060405180830381865afa158015610407573d6000803e3d6000fd5b505050506040513d601f19601f8201168201806040525081019061042b91906122f4565b61046a576040517f08c379a00000000000000000000000000000000000000000000000000000000081526004016104619061236d565b60405180910390fd5b60001515600460009054906101000a900460ff161515146104c0576040517f08c379a00000000000000000000000000000000000000000000000000000000081526004016104b7906123d9565b60405180910390fd5b60008084848101906104d291906125e0565b91509150816005819055508060026000820151816000015560208201518160010190816104ff9190612848565b509050507fdc7180ca4affc84269428ed20ef950e745126f11691b010c4a7d49458421008f6005546002604051610537929190612a38565b60405180910390a15050505050565b60008054906101000a900473ffffffffffffffffffffffffffffffffffffffff1681565b6000806005541415905090565b60055481565b60008054906101000a900473ffffffffffffffffffffffffffffffffffffffff1673ffffffffffffffffffffffffffffffffffffffff166391d148547fec61da14b5abbac5c5fda6f1d57642a264ebd5d0674f35852829746dfb8174a5336040518363ffffffff1660e01b81526004016105f892919061229f565b602060405180830381865afa158015610615573d6000803e3d6000fd5b505050506040513d601f19601f8201168201806040525081019061063991906122f4565b610678576040517f08c379a000000000000000000000000000000000000000000000000000000000815260040161066f9061236d565b60405180910390fd5b60011515600460009054906101000a900460ff161515146106ce576040517f08c379a00000000000000000000000000000000000000000000000000000000081526004016106c590612ab4565b60405180910390fd5b60005b8282905081101561071a576107098383838181106106f2576106f1612ad4565b5b90506020028101906107049190612b12565b611132565b8061071390612b69565b90506106d1565b503373ffffffffffffffffffffffffffffffffffffffff167f7ec3272052827f7b50d9e84f98172cbb80c112df1e377c5b97ea77f1812db8d960405160405180910390a25050565b60008054906101000a900473ffffffffffffffffffffffffffffffffffffffff1673ffffffffffffffffffffffffffffffffffffffff166391d148547fec61da14b5abbac5c5fda6f1d57642a264ebd5d0674f35852829746dfb8174a5336040518363ffffffff1660e01b81526004016107dd92919061229f565b602060405180830381865afa1580156107fa573d6000803e3d6000fd5b505050506040513d601f19601f8201168201806040525081019061081e91906122f4565b61085d576040517f08c379a00000000000000000000000000000000000000000000000000000000081526004016108549061236d565b60405180910390fd5b60008060009054906101000a900473ffffffffffffffffffffffffffffffffffffffff1673ffffffffffffffffffffffffffffffffffffffff1663e40205d66040518163ffffffff1660e01b8152600401602060405180830381865afa1580156108cb573d6000803e3d6000fd5b505050506040513d601f19601f820116820180604052508101906108ef9190612206565b9050804211610933576040517f08c379a000000000000000000000000000000000000000000000000000000000815260040161092a9061227f565b60405180910390fd5b600061093d6113ba565b9050600073ffffffffffffffffffffffffffffffffffffffff16600160009054906101000a900473ffffffffffffffffffffffffffffffffffffffff1673ffffffffffffffffffffffffffffffffffffffff16036109a45761099f83826114bb565b6109f2565b6109f18382600160009054906101000a900473ffffffffffffffffffffffffffffffffffffffff1673ffffffffffffffffffffffffffffffffffffffff166115af9092919063ffffffff16565b5b600160009054906101000a900473ffffffffffffffffffffffffffffffffffffffff1673ffffffffffffffffffffffffffffffffffffffff167fe9171aeff46c37ab955b8aff908e14ae9732bd06634fa131226cfe5c25bfd2fb8285604051610a5c929190612c06565b60405180910390a2505050565b6002806000015490806001018054610a809061266b565b80601f0160208091040260200160405190810160405280929190818152602001828054610aac9061266b565b8015610af95780601f10610ace57610100808354040283529160200191610af9565b820191906000526020600020905b815481529060010190602001808311610adc57829003601f168201915b5050505050905082565b6000600460029054906101000a900460ff16159050808015610b3757506001600460019054906101000a900460ff1660ff16105b80610b665750610b4630611635565b158015610b6557506001600460019054906101000a900460ff1660ff16145b5b610ba5576040517f08c379a0000000000000000000000000000000000000000000000000000000008152600401610b9c90612ca1565b60405180910390fd5b6001600460016101000a81548160ff021916908360ff1602179055508015610be3576001600460026101000a81548160ff0219169083151502179055505b8015610c3d576000600460026101000a81548160ff0219169083151502179055507f7f26b83ff96e1f2b6a682f133852f6798a09c465da95921460cefb38474024986001604051610c349190612d09565b60405180910390a15b50565b600160009054906101000a900473ffffffffffffffffffffffffffffffffffffffff1681565b600460009054906101000a900460ff1681565b7fec61da14b5abbac5c5fda6f1d57642a264ebd5d0674f35852829746dfb8174a581565b600073ffffffffffffffffffffffffffffffffffffffff1660008054906101000a900473ffffffffffffffffffffffffffffffffffffffff1673ffffffffffffffffffffffffffffffffffffffff1614610d2c576040517f08c379a0000000000000000000000000000000000000000000000000000000008152600401610d2390612d70565b60405180910390fd5b336000806101000a81548173ffffffffffffffffffffffffffffffffffffffff021916908373ffffffffffffffffffffffffffffffffffffffff16021790555060008054906101000a900473ffffffffffffffffffffffffffffffffffffffff1673ffffffffffffffffffffffffffffffffffffffff1663fc0c546a6040518163ffffffff1660e01b8152600401602060405180830381865afa158015610dd7573d6000803e3d6000fd5b505050506040513d601f19601f82011682018060405250810190610dfb9190612dce565b600160006101000a81548173ffffffffffffffffffffffffffffffffffffffff021916908373ffffffffffffffffffffffffffffffffffffffff1602179055506000600460006101000a81548160ff021916908315150217905550565b600073ffffffffffffffffffffffffffffffffffffffff1660008054906101000a900473ffffffffffffffffffffffffffffffffffffffff1673ffffffffffffffffffffffffffffffffffffffff1603610ee7576040517f08c379a0000000000000000000000000000000000000000000000000000000008152600401610ede90612e6d565b60405180910390fd5b60008054906101000a900473ffffffffffffffffffffffffffffffffffffffff1673ffffffffffffffffffffffffffffffffffffffff163373ffffffffffffffffffffffffffffffffffffffff1614610f75576040517f08c379a0000000000000000000000000000000000000000000000000000000008152600401610f6c90612eff565b60405180910390fd5b60008060009054906101000a900473ffffffffffffffffffffffffffffffffffffffff1673ffffffffffffffffffffffffffffffffffffffff1663e40205d66040518163ffffffff1660e01b8152600401602060405180830381865afa158015610fe3573d6000803e3d6000fd5b505050506040513d601f19601f820116820180604052508101906110079190612206565b905080421161104b576040517f08c379a00000000000000000000000000000000000000000000000000000000081526004016110429061227f565b60405180910390fd5b60001515600460009054906101000a900460ff161515146110a1576040517f08c379a000000000000000000000000000000000000000000000000000000000815260040161109890612f6b565b60405180910390fd5b6110a961056a565b6110e8576040517f08c379a00000000000000000000000000000000000000000000000000000000081526004016110df90612fd7565b60405180910390fd5b6001600460006101000a81548160ff0219169083151502179055507f7b9d6265b7710fe1b51f9f051045998fcb310de76ab8f2cbb2e7d571d079254c60405160405180910390a150565b60008160000160208101906111479190613023565b9050600082602001359050600083606001359050600084806040019061116d9190613050565b80806020026020016040519081016040528093929190818152602001838360200280828437600081840152601f19601f820116905080830192505050505050509050600660008573ffffffffffffffffffffffffffffffffffffffff1673ffffffffffffffffffffffffffffffffffffffff16815260200190815260200160002060009054906101000a900460ff161561123c576040517f08c379a0000000000000000000000000000000000000000000000000000000008152600401611233906130ff565b60405180910390fd5b60008484846040516020016112539392919061311f565b604051602081830303815290604052805190602001206040516020016112799190613177565b60405160208183030381529060405280519060200120905061129e8260055483611658565b6112dd576040517f08c379a00000000000000000000000000000000000000000000000000000000081526004016112d4906131de565b60405180910390fd5b6001600660008773ffffffffffffffffffffffffffffffffffffffff1673ffffffffffffffffffffffffffffffffffffffff16815260200190815260200160002060006101000a81548160ff02191690831515021790555061133f858561166f565b82600160009054906101000a900473ffffffffffffffffffffffffffffffffffffffff1673ffffffffffffffffffffffffffffffffffffffff167f7a0b32f604a8c94326322861039a44b7ed78624cf220ba8b586a2447af0d9c9b86886040516113aa9291906131fe565b60405180910390a3505050505050565b60008073ffffffffffffffffffffffffffffffffffffffff16600160009054906101000a900473ffffffffffffffffffffffffffffffffffffffff1673ffffffffffffffffffffffffffffffffffffffff1603611419574790506114b8565b600160009054906101000a900473ffffffffffffffffffffffffffffffffffffffff1673ffffffffffffffffffffffffffffffffffffffff166370a08231306040518263ffffffff1660e01b815260040161147491906121bf565b602060405180830381865afa158015611491573d6000803e3d6000fd5b505050506040513d601f19601f820116820180604052508101906114b59190612206565b90505b90565b804710156114fe576040517f08c379a00000000000000000000000000000000000000000000000000000000081526004016114f590613273565b60405180910390fd5b60008273ffffffffffffffffffffffffffffffffffffffff1682604051611524906132c4565b60006040518083038185875af1925050503d8060008114611561576040519150601f19603f3d011682016040523d82523d6000602084013e611566565b606091505b50509050806115aa576040517f08c379a00000000000000000000000000000000000000000000000000000000081526004016115a19061334b565b60405180910390fd5b505050565b6116308363a9059cbb60e01b84846040516024016115ce92919061336b565b604051602081830303815290604052907bffffffffffffffffffffffffffffffffffffffffffffffffffffffff19166020820180517bffffffffffffffffffffffffffffffffffffffffffffffffffffffff8381831617835250505050611726565b505050565b6000808273ffffffffffffffffffffffffffffffffffffffff163b119050919050565b60008261166585846117ed565b1490509392505050565b600073ffffffffffffffffffffffffffffffffffffffff16600160009054906101000a900473ffffffffffffffffffffffffffffffffffffffff1673ffffffffffffffffffffffffffffffffffffffff16036116d4576116cf8282611843565b611722565b6117218282600160009054906101000a900473ffffffffffffffffffffffffffffffffffffffff1673ffffffffffffffffffffffffffffffffffffffff166119379092919063ffffffff16565b5b5050565b6000611788826040518060400160405280602081526020017f5361666545524332303a206c6f772d6c6576656c2063616c6c206661696c65648152508573ffffffffffffffffffffffffffffffffffffffff166119bd9092919063ffffffff16565b90506000815111156117e857808060200190518101906117a891906122f4565b6117e7576040517f08c379a00000000000000000000000000000000000000000000000000000000081526004016117de90613406565b60405180910390fd5b5b505050565b60008082905060005b8451811015611838576118238286838151811061181657611815612ad4565b5b60200260200101516119d5565b9150808061183090612b69565b9150506117f6565b508091505092915050565b80471015611886576040517f08c379a000000000000000000000000000000000000000000000000000000000815260040161187d90613273565b60405180910390fd5b60008273ffffffffffffffffffffffffffffffffffffffff16826040516118ac906132c4565b60006040518083038185875af1925050503d80600081146118e9576040519150601f19603f3d011682016040523d82523d6000602084013e6118ee565b606091505b5050905080611932576040517f08c379a00000000000000000000000000000000000000000000000000000000081526004016119299061334b565b60405180910390fd5b505050565b6119b88363a9059cbb60e01b848460405160240161195692919061336b565b604051602081830303815290604052907bffffffffffffffffffffffffffffffffffffffffffffffffffffffff19166020820180517bffffffffffffffffffffffffffffffffffffffffffffffffffffffff8381831617835250505050611a00565b505050565b60606119cc8484600085611ac7565b90509392505050565b60008183106119ed576119e88284611b94565b6119f8565b6119f78383611b94565b5b905092915050565b6000611a62826040518060400160405280602081526020017f5361666545524332303a206c6f772d6c6576656c2063616c6c206661696c65648152508573ffffffffffffffffffffffffffffffffffffffff16611bab9092919063ffffffff16565b9050600081511115611ac25780806020019051810190611a8291906122f4565b611ac1576040517f08c379a0000000000000000000000000000000000000000000000000000000008152600401611ab890613406565b60405180910390fd5b5b505050565b606082471015611b0c576040517f08c379a0000000000000000000000000000000000000000000000000000000008152600401611b0390613498565b60405180910390fd5b6000808673ffffffffffffffffffffffffffffffffffffffff168587604051611b3591906134f4565b60006040518083038185875af1925050503d8060008114611b72576040519150601f19603f3d011682016040523d82523d6000602084013e611b77565b606091505b5091509150611b8887838387611bc3565b92505050949350505050565b600082600052816020526040600020905092915050565b6060611bba8484600085611c38565b90509392505050565b60608315611c25576000835103611c1d57611bdd85611635565b611c1c576040517f08c379a0000000000000000000000000000000000000000000000000000000008152600401611c1390613557565b60405180910390fd5b5b829050611c30565b611c2f8383611d05565b5b949350505050565b606082471015611c7d576040517f08c379a0000000000000000000000000000000000000000000000000000000008152600401611c7490613498565b60405180910390fd5b6000808673ffffffffffffffffffffffffffffffffffffffff168587604051611ca691906134f4565b60006040518083038185875af1925050503d8060008114611ce3576040519150601f19603f3d011682016040523d82523d6000602084013e611ce8565b606091505b5091509150611cf987838387611d55565b92505050949350505050565b600082511115611d185781518083602001fd5b806040517f08c379a0000000000000000000000000000000000000000000000000000000008152600401611d4c9190613577565b60405180910390fd5b60608315611db7576000835103611daf57611d6f85611dca565b611dae576040517f08c379a0000000000000000000000000000000000000000000000000000000008152600401611da590613557565b60405180910390fd5b5b829050611dc2565b611dc18383611ded565b5b949350505050565b6000808273ffffffffffffffffffffffffffffffffffffffff163b119050919050565b600082511115611e005781518083602001fd5b806040517f08c379a0000000000000000000000000000000000000000000000000000000008152600401611e349190613577565b60405180910390fd5b6000604051905090565b600080fd5b600080fd5b600080fd5b600080fd5b600080fd5b60008083601f840112611e7657611e75611e51565b5b8235905067ffffffffffffffff811115611e9357611e92611e56565b5b602083019150836001820283011115611eaf57611eae611e5b565b5b9250929050565b60008060208385031215611ecd57611ecc611e47565b5b600083013567ffffffffffffffff811115611eeb57611eea611e4c565b5b611ef785828601611e60565b92509250509250929050565b600073ffffffffffffffffffffffffffffffffffffffff82169050919050565b6000611f2e82611f03565b9050919050565b611f3e81611f23565b82525050565b6000602082019050611f596000830184611f35565b92915050565b60008115159050919050565b611f7481611f5f565b82525050565b6000602082019050611f8f6000830184611f6b565b92915050565b6000819050919050565b611fa881611f95565b82525050565b6000602082019050611fc36000830184611f9f565b92915050565b60008083601f840112611fdf57611fde611e51565b5b8235905067ffffffffffffffff811115611ffc57611ffb611e56565b5b60208301915083602082028301111561201857612017611e5b565b5b9250929050565b6000806020838503121561203657612035611e47565b5b600083013567ffffffffffffffff81111561205457612053611e4c565b5b61206085828601611fc9565b92509250509250929050565b61207581611f23565b811461208057600080fd5b50565b6000813590506120928161206c565b92915050565b6000602082840312156120ae576120ad611e47565b5b60006120bc84828501612083565b91505092915050565b6000819050919050565b6120d8816120c5565b82525050565b600081519050919050565b600082825260208201905092915050565b60005b838110156121185780820151818401526020810190506120fd565b60008484015250505050565b6000601f19601f8301169050919050565b6000612140826120de565b61214a81856120e9565b935061215a8185602086016120fa565b61216381612124565b840191505092915050565b600060408201905061218360008301856120cf565b81810360208301526121958184612135565b90509392505050565b60006121a982611f03565b9050919050565b6121b98161219e565b82525050565b60006020820190506121d460008301846121b0565b92915050565b6121e3816120c5565b81146121ee57600080fd5b50565b600081519050612200816121da565b92915050565b60006020828403121561221c5761221b611e47565b5b600061222a848285016121f1565b91505092915050565b7f726f756e6420686173206e6f7420656e64656400000000000000000000000000600082015250565b60006122696013836120e9565b915061227482612233565b602082019050919050565b600060208201905081810360008301526122988161225c565b9050919050565b60006040820190506122b46000830185611f9f565b6122c160208301846121b0565b9392505050565b6122d181611f5f565b81146122dc57600080fd5b50565b6000815190506122ee816122c8565b92915050565b60006020828403121561230a57612309611e47565b5b6000612318848285016122df565b91505092915050565b7f6e6f7420726f756e64206f70657261746f720000000000000000000000000000600082015250565b60006123576012836120e9565b915061236282612321565b602082019050919050565b600060208201905081810360008301526123868161234a565b9050919050565b7f5061796f75743a20416c726561647920726561647920666f72207061796f7574600082015250565b60006123c36020836120e9565b91506123ce8261238d565b602082019050919050565b600060208201905081810360008301526123f2816123b6565b9050919050565b61240281611f95565b811461240d57600080fd5b50565b60008135905061241f816123f9565b92915050565b600080fd5b7f4e487b7100000000000000000000000000000000000000000000000000000000600052604160045260246000fd5b61246282612124565b810181811067ffffffffffffffff821117156124815761248061242a565b5b80604052505050565b6000612494611e3d565b90506124a08282612459565b919050565b600080fd5b6000813590506124b9816121da565b92915050565b600080fd5b600067ffffffffffffffff8211156124df576124de61242a565b5b6124e882612124565b9050602081019050919050565b82818337600083830152505050565b6000612517612512846124c4565b61248a565b905082815260208101848484011115612533576125326124bf565b5b61253e8482856124f5565b509392505050565b600082601f83011261255b5761255a611e51565b5b813561256b848260208601612504565b91505092915050565b60006040828403121561258a57612589612425565b5b612594604061248a565b905060006125a4848285016124aa565b600083015250602082013567ffffffffffffffff8111156125c8576125c76124a5565b5b6125d484828501612546565b60208301525092915050565b600080604083850312156125f7576125f6611e47565b5b600061260585828601612410565b925050602083013567ffffffffffffffff81111561262657612625611e4c565b5b61263285828601612574565b9150509250929050565b7f4e487b7100000000000000000000000000000000000000000000000000000000600052602260045260246000fd5b6000600282049050600182168061268357607f821691505b6020821081036126965761269561263c565b5b50919050565b60008190508160005260206000209050919050565b60006020601f8301049050919050565b600082821b905092915050565b6000600883026126fe7fffffffffffffffffffffffffffffffffffffffffffffffffffffffffffffffff826126c1565b61270886836126c1565b95508019841693508086168417925050509392505050565b6000819050919050565b600061274561274061273b846120c5565b612720565b6120c5565b9050919050565b6000819050919050565b61275f8361272a565b61277361276b8261274c565b8484546126ce565b825550505050565b600090565b61278861277b565b612793818484612756565b505050565b5b818110156127b7576127ac600082612780565b600181019050612799565b5050565b601f8211156127fc576127cd8161269c565b6127d6846126b1565b810160208510156127e5578190505b6127f96127f1856126b1565b830182612798565b50505b505050565b600082821c905092915050565b600061281f60001984600802612801565b1980831691505092915050565b6000612838838361280e565b9150826002028217905092915050565b612851826120de565b67ffffffffffffffff81111561286a5761286961242a565b5b612874825461266b565b61287f8282856127bb565b600060209050601f8311600181146128b257600084156128a0578287015190505b6128aa858261282c565b865550612912565b601f1984166128c08661269c565b60005b828110156128e8578489015182556001820191506020850194506020810190506128c3565b868310156129055784890151612901601f89168261280e565b8355505b6001600288020188555050505b505050505050565b60008160001c9050919050565b6000819050919050565b600061294461293f8361291a565b612927565b9050919050565b612954816120c5565b82525050565b600082825260208201905092915050565b600081546129788161266b565b612982818661295a565b9450600182166000811461299d57600181146129b3576129e6565b60ff1983168652811515602002860193506129e6565b6129bc8561269c565b60005b838110156129de578154818901526001820191506020810190506129bf565b808801955050505b50505092915050565b6000604083016000808401549050612a0681612931565b612a13600087018261294b565b50600184018583036020870152612a2a838261296b565b925050819250505092915050565b6000604082019050612a4d6000830185611f9f565b8181036020830152612a5f81846129ef565b90509392505050565b7f5061796f75743a204e6f7420726561647920666f72207061796f757400000000600082015250565b6000612a9e601c836120e9565b9150612aa982612a68565b602082019050919050565b60006020820190508181036000830152612acd81612a91565b9050919050565b7f4e487b7100000000000000000000000000000000000000000000000000000000600052603260045260246000fd5b600080fd5b600080fd5b600080fd5b600082356001608003833603038112612b2e57612b2d612b03565b5b80830191505092915050565b7f4e487b7100000000000000000000000000000000000000000000000000000000600052601160045260246000fd5b6000612b74826120c5565b91507fffffffffffffffffffffffffffffffffffffffffffffffffffffffffffffffff8203612ba657612ba5612b3a565b5b600182019050919050565b6000612bcc612bc7612bc284611f03565b612720565b611f03565b9050919050565b6000612bde82612bb1565b9050919050565b6000612bf082612bd3565b9050919050565b612c0081612be5565b82525050565b6000604082019050612c1b60008301856120cf565b612c286020830184612bf7565b9392505050565b7f496e697469616c697a61626c653a20636f6e747261637420697320616c72656160008201527f647920696e697469616c697a6564000000000000000000000000000000000000602082015250565b6000612c8b602e836120e9565b9150612c9682612c2f565b604082019050919050565b60006020820190508181036000830152612cba81612c7e565b9050919050565b6000819050919050565b600060ff82169050919050565b6000612cf3612cee612ce984612cc1565b612720565b612ccb565b9050919050565b612d0381612cd8565b82525050565b6000602082019050612d1e6000830184612cfa565b92915050565b7f726f756e644164647265737320616c7265616479207365740000000000000000600082015250565b6000612d5a6018836120e9565b9150612d6582612d24565b602082019050919050565b60006020820190508181036000830152612d8981612d4d565b9050919050565b6000612d9b8261219e565b9050919050565b612dab81612d90565b8114612db657600080fd5b50565b600081519050612dc881612da2565b92915050565b600060208284031215612de457612de3611e47565b5b6000612df284828501612db9565b91505092915050565b7f6572726f723a207061796f757420636f6e7472616374206e6f74206c696e6b6560008201527f6420746f206120726f756e640000000000000000000000000000000000000000602082015250565b6000612e57602c836120e9565b9150612e6282612dfb565b604082019050919050565b60006020820190508181036000830152612e8681612e4a565b9050919050565b7f6572726f723a2063616e20626520696e766f6b6564206f6e6c7920627920726f60008201527f756e6420636f6e74726163740000000000000000000000000000000000000000602082015250565b6000612ee9602c836120e9565b9150612ef482612e8d565b604082019050919050565b60006020820190508181036000830152612f1881612edc565b9050919050565b7f69735265616479466f725061796f757420616c72656164792073657400000000600082015250565b6000612f55601c836120e9565b9150612f6082612f1f565b602082019050919050565b60006020820190508181036000830152612f8481612f48565b9050919050565b7f646973747269627574696f6e206e6f7420736574000000000000000000000000600082015250565b6000612fc16014836120e9565b9150612fcc82612f8b565b602082019050919050565b60006020820190508181036000830152612ff081612fb4565b9050919050565b6130008161219e565b811461300b57600080fd5b50565b60008135905061301d81612ff7565b92915050565b60006020828403121561303957613038611e47565b5b60006130478482850161300e565b91505092915050565b6000808335600160200384360303811261306d5761306c612b03565b5b80840192508235915067ffffffffffffffff82111561308f5761308e612b08565b5b6020830192506020820236038313156130ab576130aa612b0d565b5b509250929050565b7f5061796f75743a20416c72656164792064697374726962757465640000000000600082015250565b60006130e9601b836120e9565b91506130f4826130b3565b602082019050919050565b60006020820190508181036000830152613118816130dc565b9050919050565b600060608201905061313460008301866121b0565b61314160208301856120cf565b61314e6040830184611f9f565b949350505050565b6000819050919050565b61317161316c82611f95565b613156565b82525050565b60006131838284613160565b60208201915081905092915050565b7f5061796f75743a20496e76616c69642070726f6f660000000000000000000000600082015250565b60006131c86015836120e9565b91506131d382613192565b602082019050919050565b600060208201905081810360008301526131f7816131bb565b9050919050565b600060408201905061321360008301856120cf565b61322060208301846121b0565b9392505050565b7f416464726573733a20696e73756666696369656e742062616c616e6365000000600082015250565b600061325d601d836120e9565b915061326882613227565b602082019050919050565b6000602082019050818103600083015261328c81613250565b9050919050565b600081905092915050565b50565b60006132ae600083613293565b91506132b98261329e565b600082019050919050565b60006132cf826132a1565b9150819050919050565b7f416464726573733a20756e61626c6520746f2073656e642076616c75652c207260008201527f6563697069656e74206d61792068617665207265766572746564000000000000602082015250565b6000613335603a836120e9565b9150613340826132d9565b604082019050919050565b6000602082019050818103600083015261336481613328565b9050919050565b600060408201905061338060008301856121b0565b61338d60208301846120cf565b9392505050565b7f5361666545524332303a204552433230206f7065726174696f6e20646964206e60008201527f6f74207375636365656400000000000000000000000000000000000000000000602082015250565b60006133f0602a836120e9565b91506133fb82613394565b604082019050919050565b6000602082019050818103600083015261341f816133e3565b9050919050565b7f416464726573733a20696e73756666696369656e742062616c616e636520666f60008201527f722063616c6c0000000000000000000000000000000000000000000000000000602082015250565b60006134826026836120e9565b915061348d82613426565b604082019050919050565b600060208201905081810360008301526134b181613475565b9050919050565b600081519050919050565b60006134ce826134b8565b6134d88185613293565b93506134e88185602086016120fa565b80840191505092915050565b600061350082846134c3565b915081905092915050565b7f416464726573733a2063616c6c20746f206e6f6e2d636f6e7472616374000000600082015250565b6000613541601d836120e9565b915061354c8261350b565b602082019050919050565b6000602082019050818103600083015261357081613534565b9050919050565b600060208201905081810360008301526135918184612135565b90509291505056fea2646970667358221220627116fdca6c72e39a3c0c86fedd07e23988244af1b414c938e5d433096d91b564736f6c63430008110033",
  "linkReferences": {},
  "deployedLinkReferences": {}
}