{
  "_format": "hh-sol-artifact-1",
  "contractName": "MerklePayoutStrategyFactory",
  "sourceName": "contracts/payoutStrategy/MerklePayoutStrategy/MerklePayoutStrategyFactory.sol",
  "abi": [
    {
      "anonymous": false,
      "inputs": [
        {
          "indexed": false,
          "internalType": "uint8",
          "name": "version",
          "type": "uint8"
        }
      ],
      "name": "Initialized",
      "type": "event"
    },
    {
      "anonymous": false,
      "inputs": [
        {
          "indexed": true,
          "internalType": "address",
          "name": "previousOwner",
          "type": "address"
        },
        {
          "indexed": true,
          "internalType": "address",
          "name": "newOwner",
          "type": "address"
        }
      ],
      "name": "OwnershipTransferred",
      "type": "event"
    },
    {
      "anonymous": false,
      "inputs": [
        {
          "indexed": true,
          "internalType": "address",
          "name": "payoutContractAddress",
          "type": "address"
        },
        {
          "indexed": true,
          "internalType": "address",
          "name": "payoutImplementation",
          "type": "address"
        }
      ],
      "name": "PayoutContractCreated",
      "type": "event"
    },
    {
      "anonymous": false,
      "inputs": [
        {
          "indexed": false,
          "internalType": "address",
          "name": "merklePayoutStrategyAddress",
          "type": "address"
        }
      ],
      "name": "PayoutImplementationUpdated",
      "type": "event"
    },
    {
      "inputs": [],
      "name": "create",
      "outputs": [
        {
          "internalType": "address",
          "name": "",
          "type": "address"
        }
      ],
      "stateMutability": "nonpayable",
      "type": "function"
    },
    {
      "inputs": [],
      "name": "initialize",
      "outputs": [],
      "stateMutability": "nonpayable",
      "type": "function"
    },
    {
      "inputs": [],
      "name": "nonce",
      "outputs": [
        {
          "internalType": "uint256",
          "name": "",
          "type": "uint256"
        }
      ],
      "stateMutability": "view",
      "type": "function"
    },
    {
      "inputs": [],
      "name": "owner",
      "outputs": [
        {
          "internalType": "address",
          "name": "",
          "type": "address"
        }
      ],
      "stateMutability": "view",
      "type": "function"
    },
    {
      "inputs": [],
      "name": "payoutImplementation",
      "outputs": [
        {
          "internalType": "address payable",
          "name": "",
          "type": "address"
        }
      ],
      "stateMutability": "view",
      "type": "function"
    },
    {
      "inputs": [],
      "name": "renounceOwnership",
      "outputs": [],
      "stateMutability": "nonpayable",
      "type": "function"
    },
    {
      "inputs": [
        {
          "internalType": "address",
          "name": "newOwner",
          "type": "address"
        }
      ],
      "name": "transferOwnership",
      "outputs": [],
      "stateMutability": "nonpayable",
      "type": "function"
    },
    {
      "inputs": [
        {
          "internalType": "address payable",
          "name": "newPayoutImplementation",
          "type": "address"
        }
      ],
      "name": "updatePayoutImplementation",
      "outputs": [],
      "stateMutability": "nonpayable",
      "type": "function"
    }
  ],
  "bytecode": "0x608060405234801561001057600080fd5b50610f7e806100206000396000f3fe608060405234801561001057600080fd5b50600436106100885760003560e01c8063affed0e01161005b578063affed0e0146100dd578063b23209d0146100fb578063efc81a8c14610117578063f2fde38b1461013557610088565b8063715018a61461008d5780638129fc1c146100975780638da5cb5b146100a157806397eb7a96146100bf575b600080fd5b610095610151565b005b61009f610165565b005b6100a96102ab565b6040516100b69190610912565b60405180910390f35b6100c76102d5565b6040516100d4919061094e565b60405180910390f35b6100e56102fb565b6040516100f29190610982565b60405180910390f35b610115600480360381019061011091906109ce565b610301565b005b61011f610384565b60405161012c9190610912565b60405180910390f35b61014f600480360381019061014a9190610a27565b610571565b005b6101596105f4565b6101636000610672565b565b60008060019054906101000a900460ff161590508080156101965750600160008054906101000a900460ff1660ff16105b806101c357506101a530610738565b1580156101c25750600160008054906101000a900460ff1660ff16145b5b610202576040517f08c379a00000000000000000000000000000000000000000000000000000000081526004016101f990610ad7565b60405180910390fd5b60016000806101000a81548160ff021916908360ff160217905550801561023f576001600060016101000a81548160ff0219169083151502179055505b61024761075b565b61024f6107ac565b80156102a85760008060016101000a81548160ff0219169083151502179055507f7f26b83ff96e1f2b6a682f133852f6798a09c465da95921460cefb3847402498600160405161029f9190610b49565b60405180910390a15b50565b6000603360009054906101000a900473ffffffffffffffffffffffffffffffffffffffff16905090565b606560009054906101000a900473ffffffffffffffffffffffffffffffffffffffff1681565b60665481565b6103096105f4565b80606560006101000a81548173ffffffffffffffffffffffffffffffffffffffff021916908373ffffffffffffffffffffffffffffffffffffffff1602179055507f785ae511b845c3faa66613fcc7e279e8a41bc40154641ebdfe3c1fcaf609cfc8816040516103799190610bb9565b60405180910390a150565b60008073ffffffffffffffffffffffffffffffffffffffff16606560009054906101000a900473ffffffffffffffffffffffffffffffffffffffff1673ffffffffffffffffffffffffffffffffffffffff1603610416576040517f08c379a000000000000000000000000000000000000000000000000000000000815260040161040d90610c20565b60405180910390fd5b6066600081548092919061042990610c6f565b9190505550600033606654604051602001610445929190610d20565b604051602081830303815290604052805190602001209050600061048b606560009054906101000a900473ffffffffffffffffffffffffffffffffffffffff168361080d565b90508073ffffffffffffffffffffffffffffffffffffffff16638129fc1c6040518163ffffffff1660e01b8152600401600060405180830381600087803b1580156104d557600080fd5b505af11580156104e9573d6000803e3d6000fd5b50505050606560009054906101000a900473ffffffffffffffffffffffffffffffffffffffff1673ffffffffffffffffffffffffffffffffffffffff168173ffffffffffffffffffffffffffffffffffffffff167fe4831cb465cd5bce7e2d12214c68314e4f42a292fbd191ffa80eb253435200f960405160405180910390a3809250505090565b6105796105f4565b600073ffffffffffffffffffffffffffffffffffffffff168173ffffffffffffffffffffffffffffffffffffffff16036105e8576040517f08c379a00000000000000000000000000000000000000000000000000000000081526004016105df90610dbe565b60405180910390fd5b6105f181610672565b50565b6105fc6108c9565b73ffffffffffffffffffffffffffffffffffffffff1661061a6102ab565b73ffffffffffffffffffffffffffffffffffffffff1614610670576040517f08c379a000000000000000000000000000000000000000000000000000000000815260040161066790610e2a565b60405180910390fd5b565b6000603360009054906101000a900473ffffffffffffffffffffffffffffffffffffffff16905081603360006101000a81548173ffffffffffffffffffffffffffffffffffffffff021916908373ffffffffffffffffffffffffffffffffffffffff1602179055508173ffffffffffffffffffffffffffffffffffffffff168173ffffffffffffffffffffffffffffffffffffffff167f8be0079c531659141344cd1fd0a4f28419497f9722a3daafe3b4186f6b6457e060405160405180910390a35050565b6000808273ffffffffffffffffffffffffffffffffffffffff163b119050919050565b600060019054906101000a900460ff166107aa576040517f08c379a00000000000000000000000000000000000000000000000000000000081526004016107a190610ebc565b60405180910390fd5b565b600060019054906101000a900460ff166107fb576040517f08c379a00000000000000000000000000000000000000000000000000000000081526004016107f290610ebc565b60405180910390fd5b61080b6108066108c9565b610672565b565b6000763d602d80600a3d3981f3363d3d373d3d3d363d730000008360601b60e81c176000526e5af43d82803e903d91602b57fd5bf38360781b1760205281603760096000f59050600073ffffffffffffffffffffffffffffffffffffffff168173ffffffffffffffffffffffffffffffffffffffff16036108c3576040517f08c379a00000000000000000000000000000000000000000000000000000000081526004016108ba90610f28565b60405180910390fd5b92915050565b600033905090565b600073ffffffffffffffffffffffffffffffffffffffff82169050919050565b60006108fc826108d1565b9050919050565b61090c816108f1565b82525050565b60006020820190506109276000830184610903565b92915050565b6000610938826108d1565b9050919050565b6109488161092d565b82525050565b6000602082019050610963600083018461093f565b92915050565b6000819050919050565b61097c81610969565b82525050565b60006020820190506109976000830184610973565b92915050565b600080fd5b6109ab8161092d565b81146109b657600080fd5b50565b6000813590506109c8816109a2565b92915050565b6000602082840312156109e4576109e361099d565b5b60006109f2848285016109b9565b91505092915050565b610a04816108f1565b8114610a0f57600080fd5b50565b600081359050610a21816109fb565b92915050565b600060208284031215610a3d57610a3c61099d565b5b6000610a4b84828501610a12565b91505092915050565b600082825260208201905092915050565b7f496e697469616c697a61626c653a20636f6e747261637420697320616c72656160008201527f647920696e697469616c697a6564000000000000000000000000000000000000602082015250565b6000610ac1602e83610a54565b9150610acc82610a65565b604082019050919050565b60006020820190508181036000830152610af081610ab4565b9050919050565b6000819050919050565b600060ff82169050919050565b6000819050919050565b6000610b33610b2e610b2984610af7565b610b0e565b610b01565b9050919050565b610b4381610b18565b82525050565b6000602082019050610b5e6000830184610b3a565b92915050565b6000610b7f610b7a610b75846108d1565b610b0e565b6108d1565b9050919050565b6000610b9182610b64565b9050919050565b6000610ba382610b86565b9050919050565b610bb381610b98565b82525050565b6000602082019050610bce6000830184610baa565b92915050565b7f7061796f7574496d706c656d656e746174696f6e206e6f742073657400000000600082015250565b6000610c0a601c83610a54565b9150610c1582610bd4565b602082019050919050565b60006020820190508181036000830152610c3981610bfd565b9050919050565b7f4e487b7100000000000000000000000000000000000000000000000000000000600052601160045260246000fd5b6000610c7a82610969565b91507fffffffffffffffffffffffffffffffffffffffffffffffffffffffffffffffff8203610cac57610cab610c40565b5b600182019050919050565b60008160601b9050919050565b6000610ccf82610cb7565b9050919050565b6000610ce182610cc4565b9050919050565b610cf9610cf4826108f1565b610cd6565b82525050565b6000819050919050565b610d1a610d1582610969565b610cff565b82525050565b6000610d2c8285610ce8565b601482019150610d3c8284610d09565b6020820191508190509392505050565b7f4f776e61626c653a206e6577206f776e657220697320746865207a65726f206160008201527f6464726573730000000000000000000000000000000000000000000000000000602082015250565b6000610da8602683610a54565b9150610db382610d4c565b604082019050919050565b60006020820190508181036000830152610dd781610d9b565b9050919050565b7f4f776e61626c653a2063616c6c6572206973206e6f7420746865206f776e6572600082015250565b6000610e14602083610a54565b9150610e1f82610dde565b602082019050919050565b60006020820190508181036000830152610e4381610e07565b9050919050565b7f496e697469616c697a61626c653a20636f6e7472616374206973206e6f74206960008201527f6e697469616c697a696e67000000000000000000000000000000000000000000602082015250565b6000610ea6602b83610a54565b9150610eb182610e4a565b604082019050919050565b60006020820190508181036000830152610ed581610e99565b9050919050565b7f455243313136373a2063726561746532206661696c6564000000000000000000600082015250565b6000610f12601783610a54565b9150610f1d82610edc565b602082019050919050565b60006020820190508181036000830152610f4181610f05565b905091905056fea26469706673582212201fddbba6eb06842d8e2fadaf5c91be97330a0e2c58e28781aea171142906f58964736f6c63430008110033",
  "linkReferences": {},
  "deployedLinkReferences": {}
}