{
  "_format": "hh-sol-artifact-1",
  "contractName": "ProgramFactory",
  "sourceName": "contracts/program/ProgramFactory.sol",
  "abi": [
    {
      "anonymous": false,
      "inputs": [
        {
          "indexed": false,
          "internalType": "uint8",
          "name": "version",
          "type": "uint8"
        }
      ],
      "name": "Initialized",
      "type": "event"
    },
    {
      "anonymous": false,
      "inputs": [
        {
          "indexed": true,
          "internalType": "address",
          "name": "previousOwner",
          "type": "address"
        },
        {
          "indexed": true,
          "internalType": "address",
          "name": "newOwner",
          "type": "address"
        }
      ],
      "name": "OwnershipTransferred",
      "type": "event"
    },
    {
      "anonymous": false,
      "inputs": [
        {
          "indexed": false,
          "internalType": "address",
          "name": "programContractAddress",
          "type": "address"
        }
      ],
      "name": "ProgramContractUpdated",
      "type": "event"
    },
    {
      "anonymous": false,
      "inputs": [
        {
          "indexed": true,
          "internalType": "address",
          "name": "programContractAddress",
          "type": "address"
        },
        {
          "indexed": true,
          "internalType": "address",
          "name": "programImplementation",
          "type": "address"
        }
      ],
      "name": "ProgramCreated",
      "type": "event"
    },
    {
      "inputs": [
        {
          "internalType": "bytes",
          "name": "encodedParameters",
          "type": "bytes"
        }
      ],
      "name": "create",
      "outputs": [
        {
          "internalType": "address",
          "name": "",
          "type": "address"
        }
      ],
      "stateMutability": "nonpayable",
      "type": "function"
    },
    {
      "inputs": [],
      "name": "initialize",
      "outputs": [],
      "stateMutability": "nonpayable",
      "type": "function"
    },
    {
      "inputs": [],
      "name": "owner",
      "outputs": [
        {
          "internalType": "address",
          "name": "",
          "type": "address"
        }
      ],
      "stateMutability": "view",
      "type": "function"
    },
    {
      "inputs": [],
      "name": "programContract",
      "outputs": [
        {
          "internalType": "address",
          "name": "",
          "type": "address"
        }
      ],
      "stateMutability": "view",
      "type": "function"
    },
    {
      "inputs": [],
      "name": "renounceOwnership",
      "outputs": [],
      "stateMutability": "nonpayable",
      "type": "function"
    },
    {
      "inputs": [
        {
          "internalType": "address",
          "name": "newOwner",
          "type": "address"
        }
      ],
      "name": "transferOwnership",
      "outputs": [],
      "stateMutability": "nonpayable",
      "type": "function"
    },
    {
      "inputs": [
        {
          "internalType": "address",
          "name": "newProgramContract",
          "type": "address"
        }
      ],
      "name": "updateProgramContract",
      "outputs": [],
      "stateMutability": "nonpayable",
      "type": "function"
    }
  ],
  "bytecode": "0x608060405234801561001057600080fd5b50610d1d806100206000396000f3fe608060405234801561001057600080fd5b506004361061007d5760003560e01c80638129fc1c1161005b5780638129fc1c146100c65780638da5cb5b146100d0578063cf5ba53f146100ee578063f2fde38b1461011e5761007d565b8063482b760f14610082578063695d9651146100a0578063715018a6146100bc575b600080fd5b61008a61013a565b6040516100979190610829565b60405180910390f35b6100ba60048036038101906100b5919061087a565b610160565b005b6100c46101e3565b005b6100ce6101f7565b005b6100d861033d565b6040516100e59190610829565b60405180910390f35b6101086004803603810190610103919061090c565b610367565b6040516101159190610829565b60405180910390f35b6101386004803603810190610133919061087a565b61048a565b005b606560009054906101000a900473ffffffffffffffffffffffffffffffffffffffff1681565b61016861050d565b80606560006101000a81548173ffffffffffffffffffffffffffffffffffffffff021916908373ffffffffffffffffffffffffffffffffffffffff1602179055507f6c4425c98f554a6097c41acbe5e20a9f5cd159d2785a3e9b71ef2966562f55ca816040516101d89190610829565b60405180910390a150565b6101eb61050d565b6101f5600061058b565b565b60008060019054906101000a900460ff161590508080156102285750600160008054906101000a900460ff1660ff16105b80610255575061023730610651565b1580156102545750600160008054906101000a900460ff1660ff16145b5b610294576040517f08c379a000000000000000000000000000000000000000000000000000000000815260040161028b906109dc565b60405180910390fd5b60016000806101000a81548160ff021916908360ff16021790555080156102d1576001600060016101000a81548160ff0219169083151502179055505b6102d9610674565b6102e16106c5565b801561033a5760008060016101000a81548160ff0219169083151502179055507f7f26b83ff96e1f2b6a682f133852f6798a09c465da95921460cefb384740249860016040516103319190610a4e565b60405180910390a15b50565b6000603360009054906101000a900473ffffffffffffffffffffffffffffffffffffffff16905090565b600080610395606560009054906101000a900473ffffffffffffffffffffffffffffffffffffffff16610726565b9050606560009054906101000a900473ffffffffffffffffffffffffffffffffffffffff1673ffffffffffffffffffffffffffffffffffffffff168173ffffffffffffffffffffffffffffffffffffffff167f75c1d3f36bb0928522da6c9e9c8d8f4706b7fe8ba337c8adb9ed61ce3571dfb960405160405180910390a38073ffffffffffffffffffffffffffffffffffffffff1663439fab9185856040518363ffffffff1660e01b815260040161044e929190610ac7565b600060405180830381600087803b15801561046857600080fd5b505af115801561047c573d6000803e3d6000fd5b505050508091505092915050565b61049261050d565b600073ffffffffffffffffffffffffffffffffffffffff168173ffffffffffffffffffffffffffffffffffffffff1603610501576040517f08c379a00000000000000000000000000000000000000000000000000000000081526004016104f890610b5d565b60405180910390fd5b61050a8161058b565b50565b6105156107e0565b73ffffffffffffffffffffffffffffffffffffffff1661053361033d565b73ffffffffffffffffffffffffffffffffffffffff1614610589576040517f08c379a000000000000000000000000000000000000000000000000000000000815260040161058090610bc9565b60405180910390fd5b565b6000603360009054906101000a900473ffffffffffffffffffffffffffffffffffffffff16905081603360006101000a81548173ffffffffffffffffffffffffffffffffffffffff021916908373ffffffffffffffffffffffffffffffffffffffff1602179055508173ffffffffffffffffffffffffffffffffffffffff168173ffffffffffffffffffffffffffffffffffffffff167f8be0079c531659141344cd1fd0a4f28419497f9722a3daafe3b4186f6b6457e060405160405180910390a35050565b6000808273ffffffffffffffffffffffffffffffffffffffff163b119050919050565b600060019054906101000a900460ff166106c3576040517f08c379a00000000000000000000000000000000000000000000000000000000081526004016106ba90610c5b565b60405180910390fd5b565b600060019054906101000a900460ff16610714576040517f08c379a000000000000000000000000000000000000000000000000000000000815260040161070b90610c5b565b60405180910390fd5b61072461071f6107e0565b61058b565b565b6000763d602d80600a3d3981f3363d3d373d3d3d363d730000008260601b60e81c176000526e5af43d82803e903d91602b57fd5bf38260781b17602052603760096000f09050600073ffffffffffffffffffffffffffffffffffffffff168173ffffffffffffffffffffffffffffffffffffffff16036107db576040517f08c379a00000000000000000000000000000000000000000000000000000000081526004016107d290610cc7565b60405180910390fd5b919050565b600033905090565b600073ffffffffffffffffffffffffffffffffffffffff82169050919050565b6000610813826107e8565b9050919050565b61082381610808565b82525050565b600060208201905061083e600083018461081a565b92915050565b600080fd5b600080fd5b61085781610808565b811461086257600080fd5b50565b6000813590506108748161084e565b92915050565b6000602082840312156108905761088f610844565b5b600061089e84828501610865565b91505092915050565b600080fd5b600080fd5b600080fd5b60008083601f8401126108cc576108cb6108a7565b5b8235905067ffffffffffffffff8111156108e9576108e86108ac565b5b602083019150836001820283011115610905576109046108b1565b5b9250929050565b6000806020838503121561092357610922610844565b5b600083013567ffffffffffffffff81111561094157610940610849565b5b61094d858286016108b6565b92509250509250929050565b600082825260208201905092915050565b7f496e697469616c697a61626c653a20636f6e747261637420697320616c72656160008201527f647920696e697469616c697a6564000000000000000000000000000000000000602082015250565b60006109c6602e83610959565b91506109d18261096a565b604082019050919050565b600060208201905081810360008301526109f5816109b9565b9050919050565b6000819050919050565b600060ff82169050919050565b6000819050919050565b6000610a38610a33610a2e846109fc565b610a13565b610a06565b9050919050565b610a4881610a1d565b82525050565b6000602082019050610a636000830184610a3f565b92915050565b600082825260208201905092915050565b82818337600083830152505050565b6000601f19601f8301169050919050565b6000610aa68385610a69565b9350610ab3838584610a7a565b610abc83610a89565b840190509392505050565b60006020820190508181036000830152610ae2818486610a9a565b90509392505050565b7f4f776e61626c653a206e6577206f776e657220697320746865207a65726f206160008201527f6464726573730000000000000000000000000000000000000000000000000000602082015250565b6000610b47602683610959565b9150610b5282610aeb565b604082019050919050565b60006020820190508181036000830152610b7681610b3a565b9050919050565b7f4f776e61626c653a2063616c6c6572206973206e6f7420746865206f776e6572600082015250565b6000610bb3602083610959565b9150610bbe82610b7d565b602082019050919050565b60006020820190508181036000830152610be281610ba6565b9050919050565b7f496e697469616c697a61626c653a20636f6e7472616374206973206e6f74206960008201527f6e697469616c697a696e67000000000000000000000000000000000000000000602082015250565b6000610c45602b83610959565b9150610c5082610be9565b604082019050919050565b60006020820190508181036000830152610c7481610c38565b9050919050565b7f455243313136373a20637265617465206661696c656400000000000000000000600082015250565b6000610cb1601683610959565b9150610cbc82610c7b565b602082019050919050565b60006020820190508181036000830152610ce081610ca4565b905091905056fea26469706673582212206295689e7de91b5b3224214dd8e4443f5163b5f414ac08d42bbdee8ca198b98564736f6c63430008110033",
  "linkReferences": {},
  "deployedLinkReferences": {}
}