{
  "_format": "hh-sol-artifact-1",
  "contractName": "ProgramImplementation",
  "sourceName": "contracts/program/ProgramImplementation.sol",
  "abi": [
    {
      "anonymous": false,
      "inputs": [
        {
          "indexed": false,
          "internalType": "uint8",
          "name": "version",
          "type": "uint8"
        }
      ],
      "name": "Initialized",
      "type": "event"
    },
    {
      "anonymous": false,
      "inputs": [
        {
          "components": [
            {
              "internalType": "uint256",
              "name": "protocol",
              "type": "uint256"
            },
            {
              "internalType": "string",
              "name": "pointer",
              "type": "string"
            }
          ],
          "indexed": false,
          "internalType": "struct MetaPtr",
          "name": "oldMetaPtr",
          "type": "tuple"
        },
        {
          "components": [
            {
              "internalType": "uint256",
              "name": "protocol",
              "type": "uint256"
            },
            {
              "internalType": "string",
              "name": "pointer",
              "type": "string"
            }
          ],
          "indexed": false,
          "internalType": "struct MetaPtr",
          "name": "newMetaPtr",
          "type": "tuple"
        }
      ],
      "name": "MetaPtrUpdated",
      "type": "event"
    },
    {
      "anonymous": false,
      "inputs": [
        {
          "indexed": true,
          "internalType": "bytes32",
          "name": "role",
          "type": "bytes32"
        },
        {
          "indexed": true,
          "internalType": "bytes32",
          "name": "previousAdminRole",
          "type": "bytes32"
        },
        {
          "indexed": true,
          "internalType": "bytes32",
          "name": "newAdminRole",
          "type": "bytes32"
        }
      ],
      "name": "RoleAdminChanged",
      "type": "event"
    },
    {
      "anonymous": false,
      "inputs": [
        {
          "indexed": true,
          "internalType": "bytes32",
          "name": "role",
          "type": "bytes32"
        },
        {
          "indexed": true,
          "internalType": "address",
          "name": "account",
          "type": "address"
        },
        {
          "indexed": true,
          "internalType": "address",
          "name": "sender",
          "type": "address"
        }
      ],
      "name": "RoleGranted",
      "type": "event"
    },
    {
      "anonymous": false,
      "inputs": [
        {
          "indexed": true,
          "internalType": "bytes32",
          "name": "role",
          "type": "bytes32"
        },
        {
          "indexed": true,
          "internalType": "address",
          "name": "account",
          "type": "address"
        },
        {
          "indexed": true,
          "internalType": "address",
          "name": "sender",
          "type": "address"
        }
      ],
      "name": "RoleRevoked",
      "type": "event"
    },
    {
      "inputs": [],
      "name": "DEFAULT_ADMIN_ROLE",
      "outputs": [
        {
          "internalType": "bytes32",
          "name": "",
          "type": "bytes32"
        }
      ],
      "stateMutability": "view",
      "type": "function"
    },
    {
      "inputs": [],
      "name": "PROGRAM_OPERATOR_ROLE",
      "outputs": [
        {
          "internalType": "bytes32",
          "name": "",
          "type": "bytes32"
        }
      ],
      "stateMutability": "view",
      "type": "function"
    },
    {
      "inputs": [
        {
          "internalType": "bytes32",
          "name": "role",
          "type": "bytes32"
        }
      ],
      "name": "getRoleAdmin",
      "outputs": [
        {
          "internalType": "bytes32",
          "name": "",
          "type": "bytes32"
        }
      ],
      "stateMutability": "view",
      "type": "function"
    },
    {
      "inputs": [
        {
          "internalType": "bytes32",
          "name": "role",
          "type": "bytes32"
        },
        {
          "internalType": "uint256",
          "name": "index",
          "type": "uint256"
        }
      ],
      "name": "getRoleMember",
      "outputs": [
        {
          "internalType": "address",
          "name": "",
          "type": "address"
        }
      ],
      "stateMutability": "view",
      "type": "function"
    },
    {
      "inputs": [
        {
          "internalType": "bytes32",
          "name": "role",
          "type": "bytes32"
        }
      ],
      "name": "getRoleMemberCount",
      "outputs": [
        {
          "internalType": "uint256",
          "name": "",
          "type": "uint256"
        }
      ],
      "stateMutability": "view",
      "type": "function"
    },
    {
      "inputs": [
        {
          "internalType": "bytes32",
          "name": "role",
          "type": "bytes32"
        },
        {
          "internalType": "address",
          "name": "account",
          "type": "address"
        }
      ],
      "name": "grantRole",
      "outputs": [],
      "stateMutability": "nonpayable",
      "type": "function"
    },
    {
      "inputs": [
        {
          "internalType": "bytes32",
          "name": "role",
          "type": "bytes32"
        },
        {
          "internalType": "address",
          "name": "account",
          "type": "address"
        }
      ],
      "name": "hasRole",
      "outputs": [
        {
          "internalType": "bool",
          "name": "",
          "type": "bool"
        }
      ],
      "stateMutability": "view",
      "type": "function"
    },
    {
      "inputs": [
        {
          "internalType": "bytes",
          "name": "encodedParameters",
          "type": "bytes"
        }
      ],
      "name": "initialize",
      "outputs": [],
      "stateMutability": "nonpayable",
      "type": "function"
    },
    {
      "inputs": [],
      "name": "metaPtr",
      "outputs": [
        {
          "internalType": "uint256",
          "name": "protocol",
          "type": "uint256"
        },
        {
          "internalType": "string",
          "name": "pointer",
          "type": "string"
        }
      ],
      "stateMutability": "view",
      "type": "function"
    },
    {
      "inputs": [
        {
          "internalType": "bytes32",
          "name": "role",
          "type": "bytes32"
        },
        {
          "internalType": "address",
          "name": "account",
          "type": "address"
        }
      ],
      "name": "renounceRole",
      "outputs": [],
      "stateMutability": "nonpayable",
      "type": "function"
    },
    {
      "inputs": [
        {
          "internalType": "bytes32",
          "name": "role",
          "type": "bytes32"
        },
        {
          "internalType": "address",
          "name": "account",
          "type": "address"
        }
      ],
      "name": "revokeRole",
      "outputs": [],
      "stateMutability": "nonpayable",
      "type": "function"
    },
    {
      "inputs": [
        {
          "internalType": "bytes4",
          "name": "interfaceId",
          "type": "bytes4"
        }
      ],
      "name": "supportsInterface",
      "outputs": [
        {
          "internalType": "bool",
          "name": "",
          "type": "bool"
        }
      ],
      "stateMutability": "view",
      "type": "function"
    },
    {
      "inputs": [
        {
          "components": [
            {
              "internalType": "uint256",
              "name": "protocol",
              "type": "uint256"
            },
            {
              "internalType": "string",
              "name": "pointer",
              "type": "string"
            }
          ],
          "internalType": "struct MetaPtr",
          "name": "newMetaPtr",
          "type": "tuple"
        }
      ],
      "name": "updateMetaPtr",
      "outputs": [],
      "stateMutability": "nonpayable",
      "type": "function"
    }
  ],
  "bytecode": "0x608060405234801561001057600080fd5b50612261806100206000396000f3fe608060405234801561001057600080fd5b50600436106100cf5760003560e01c80635ffe8de81161008c578063a217fddf11610066578063a217fddf14610222578063ca15c87314610240578063d0e363cb14610270578063d547741f1461028f576100cf565b80635ffe8de8146101a45780639010d07c146101c257806391d14854146101f2576100cf565b806301ffc9a7146100d4578063248a9ca3146101045780632b043933146101345780632f2ff15d1461015057806336568abe1461016c578063439fab9114610188575b600080fd5b6100ee60048036038101906100e99190611194565b6102ab565b6040516100fb91906111dc565b60405180910390f35b61011e6004803603810190610119919061122d565b610325565b60405161012b9190611269565b60405180910390f35b61014e60048036038101906101499190611476565b610344565b005b61016a6004803603810190610165919061151d565b6103d2565b005b6101866004803603810190610181919061151d565b6103f3565b005b6101a2600480360381019061019d91906115bd565b610476565b005b6101ac6106d9565b6040516101b99190611269565b60405180910390f35b6101dc60048036038101906101d7919061160a565b6106fd565b6040516101e99190611659565b60405180910390f35b61020c6004803603810190610207919061151d565b61072c565b60405161021991906111dc565b60405180910390f35b61022a610796565b6040516102379190611269565b60405180910390f35b61025a6004803603810190610255919061122d565b61079d565b6040516102679190611683565b60405180910390f35b6102786107c1565b60405161028692919061171d565b60405180910390f35b6102a960048036038101906102a4919061151d565b61085b565b005b60007f5a05180f000000000000000000000000000000000000000000000000000000007bffffffffffffffffffffffffffffffffffffffffffffffffffffffff1916827bffffffffffffffffffffffffffffffffffffffffffffffffffffffff1916148061031e575061031d8261087c565b5b9050919050565b6000806000838152602001908152602001600020600101549050919050565b7faa630204f2780b6f080cc77cc0e9c0a5c21e92eb0c6771e709255dd27d6de13261036e816108f6565b7f41f93857ddc4c1f3f4a10d67e8bb2ada914235a31330c35d92ad96475a50e6156003836040516103a0929190611956565b60405180910390a18160036000820151816000015560208201518160010190816103ca9190611b24565b509050505050565b6103db82610325565b6103e4816108f6565b6103ee838361090a565b505050565b6103fb61093e565b73ffffffffffffffffffffffffffffffffffffffff168173ffffffffffffffffffffffffffffffffffffffff1614610468576040517f08c379a000000000000000000000000000000000000000000000000000000000815260040161045f90611c68565b60405180910390fd5b6104728282610946565b5050565b6000600260019054906101000a900460ff161590508080156104aa57506001600260009054906101000a900460ff1660ff16105b806104d957506104b93061097a565b1580156104d857506001600260009054906101000a900460ff1660ff16145b5b610518576040517f08c379a000000000000000000000000000000000000000000000000000000000815260040161050f90611cfa565b60405180910390fd5b6001600260006101000a81548160ff021916908360ff1602179055508015610556576001600260016101000a81548160ff0219169083151502179055505b6000806000858581019061056a9190611ddd565b9250925092507f41f93857ddc4c1f3f4a10d67e8bb2ada914235a31330c35d92ad96475a50e6156003846040516105a2929190611956565b60405180910390a18260036000820151816000015560208201518160010190816105cc9190611b24565b5090505060005b8251811015610614576106036000801b8483815181106105f6576105f5611e84565b5b602002602001015161090a565b8061060d90611ee2565b90506105d3565b5060005b8151811015610676576106657faa630204f2780b6f080cc77cc0e9c0a5c21e92eb0c6771e709255dd27d6de13283838151811061065857610657611e84565b5b602002602001015161090a565b8061066f90611ee2565b9050610618565b5050505080156106d4576000600260016101000a81548160ff0219169083151502179055507f7f26b83ff96e1f2b6a682f133852f6798a09c465da95921460cefb384740249860016040516106cb9190611f72565b60405180910390a15b505050565b7faa630204f2780b6f080cc77cc0e9c0a5c21e92eb0c6771e709255dd27d6de13281565b6000610724826001600086815260200190815260200160002061099d90919063ffffffff16565b905092915050565b600080600084815260200190815260200160002060000160008373ffffffffffffffffffffffffffffffffffffffff1673ffffffffffffffffffffffffffffffffffffffff16815260200190815260200160002060009054906101000a900460ff16905092915050565b6000801b81565b60006107ba600160008481526020019081526020016000206109b7565b9050919050565b60038060000154908060010180546107d8906117bc565b80601f0160208091040260200160405190810160405280929190818152602001828054610804906117bc565b80156108515780601f1061082657610100808354040283529160200191610851565b820191906000526020600020905b81548152906001019060200180831161083457829003601f168201915b5050505050905082565b61086482610325565b61086d816108f6565b6108778383610946565b505050565b60007f7965db0b000000000000000000000000000000000000000000000000000000007bffffffffffffffffffffffffffffffffffffffffffffffffffffffff1916827bffffffffffffffffffffffffffffffffffffffffffffffffffffffff191614806108ef57506108ee826109cc565b5b9050919050565b6109078161090261093e565b610a36565b50565b6109148282610abb565b6109398160016000858152602001908152602001600020610b9b90919063ffffffff16565b505050565b600033905090565b6109508282610bcb565b6109758160016000858152602001908152602001600020610cac90919063ffffffff16565b505050565b6000808273ffffffffffffffffffffffffffffffffffffffff163b119050919050565b60006109ac8360000183610cdc565b60001c905092915050565b60006109c582600001610d07565b9050919050565b60007f01ffc9a7000000000000000000000000000000000000000000000000000000007bffffffffffffffffffffffffffffffffffffffffffffffffffffffff1916827bffffffffffffffffffffffffffffffffffffffffffffffffffffffff1916149050919050565b610a40828261072c565b610ab757610a4d81610d18565b610a5b8360001c6020610d45565b604051602001610a6c929190612061565b6040516020818303038152906040526040517f08c379a0000000000000000000000000000000000000000000000000000000008152600401610aae919061209b565b60405180910390fd5b5050565b610ac5828261072c565b610b9757600160008084815260200190815260200160002060000160008373ffffffffffffffffffffffffffffffffffffffff1673ffffffffffffffffffffffffffffffffffffffff16815260200190815260200160002060006101000a81548160ff021916908315150217905550610b3c61093e565b73ffffffffffffffffffffffffffffffffffffffff168173ffffffffffffffffffffffffffffffffffffffff16837f2f8788117e7eff1d82e926ec794901d17c78024a50270940304540a733656f0d60405160405180910390a45b5050565b6000610bc3836000018373ffffffffffffffffffffffffffffffffffffffff1660001b610f81565b905092915050565b610bd5828261072c565b15610ca857600080600084815260200190815260200160002060000160008373ffffffffffffffffffffffffffffffffffffffff1673ffffffffffffffffffffffffffffffffffffffff16815260200190815260200160002060006101000a81548160ff021916908315150217905550610c4d61093e565b73ffffffffffffffffffffffffffffffffffffffff168173ffffffffffffffffffffffffffffffffffffffff16837ff6391f5c32d9c69d2a47ea670b442974b53935d1edc7fd64eb21e047a839171b60405160405180910390a45b5050565b6000610cd4836000018373ffffffffffffffffffffffffffffffffffffffff1660001b610ff1565b905092915050565b6000826000018281548110610cf457610cf3611e84565b5b9060005260206000200154905092915050565b600081600001805490509050919050565b6060610d3e8273ffffffffffffffffffffffffffffffffffffffff16601460ff16610d45565b9050919050565b606060006002836002610d5891906120bd565b610d6291906120ff565b67ffffffffffffffff811115610d7b57610d7a61129a565b5b6040519080825280601f01601f191660200182016040528015610dad5781602001600182028036833780820191505090505b5090507f300000000000000000000000000000000000000000000000000000000000000081600081518110610de557610de4611e84565b5b60200101907effffffffffffffffffffffffffffffffffffffffffffffffffffffffffffff1916908160001a9053507f780000000000000000000000000000000000000000000000000000000000000081600181518110610e4957610e48611e84565b5b60200101907effffffffffffffffffffffffffffffffffffffffffffffffffffffffffffff1916908160001a90535060006001846002610e8991906120bd565b610e9391906120ff565b90505b6001811115610f33577f3031323334353637383961626364656600000000000000000000000000000000600f861660108110610ed557610ed4611e84565b5b1a60f81b828281518110610eec57610eeb611e84565b5b60200101907effffffffffffffffffffffffffffffffffffffffffffffffffffffffffffff1916908160001a905350600485901c945080610f2c90612133565b9050610e96565b5060008414610f77576040517f08c379a0000000000000000000000000000000000000000000000000000000008152600401610f6e906121a8565b60405180910390fd5b8091505092915050565b6000610f8d8383611105565b610fe6578260000182908060018154018082558091505060019003906000526020600020016000909190919091505582600001805490508360010160008481526020019081526020016000208190555060019050610feb565b600090505b92915050565b600080836001016000848152602001908152602001600020549050600081146110f957600060018261102391906121c8565b905060006001866000018054905061103b91906121c8565b90508181146110aa57600086600001828154811061105c5761105b611e84565b5b90600052602060002001549050808760000184815481106110805761107f611e84565b5b90600052602060002001819055508387600101600083815260200190815260200160002081905550505b856000018054806110be576110bd6121fc565b5b6001900381819060005260206000200160009055905585600101600086815260200190815260200160002060009055600193505050506110ff565b60009150505b92915050565b600080836001016000848152602001908152602001600020541415905092915050565b6000604051905090565b600080fd5b600080fd5b60007fffffffff0000000000000000000000000000000000000000000000000000000082169050919050565b6111718161113c565b811461117c57600080fd5b50565b60008135905061118e81611168565b92915050565b6000602082840312156111aa576111a9611132565b5b60006111b88482850161117f565b91505092915050565b60008115159050919050565b6111d6816111c1565b82525050565b60006020820190506111f160008301846111cd565b92915050565b6000819050919050565b61120a816111f7565b811461121557600080fd5b50565b60008135905061122781611201565b92915050565b60006020828403121561124357611242611132565b5b600061125184828501611218565b91505092915050565b611263816111f7565b82525050565b600060208201905061127e600083018461125a565b92915050565b600080fd5b6000601f19601f8301169050919050565b7f4e487b7100000000000000000000000000000000000000000000000000000000600052604160045260246000fd5b6112d282611289565b810181811067ffffffffffffffff821117156112f1576112f061129a565b5b80604052505050565b6000611304611128565b905061131082826112c9565b919050565b600080fd5b6000819050919050565b61132d8161131a565b811461133857600080fd5b50565b60008135905061134a81611324565b92915050565b600080fd5b600080fd5b600067ffffffffffffffff8211156113755761137461129a565b5b61137e82611289565b9050602081019050919050565b82818337600083830152505050565b60006113ad6113a88461135a565b6112fa565b9050828152602081018484840111156113c9576113c8611355565b5b6113d484828561138b565b509392505050565b600082601f8301126113f1576113f0611350565b5b813561140184826020860161139a565b91505092915050565b6000604082840312156114205761141f611284565b5b61142a60406112fa565b9050600061143a8482850161133b565b600083015250602082013567ffffffffffffffff81111561145e5761145d611315565b5b61146a848285016113dc565b60208301525092915050565b60006020828403121561148c5761148b611132565b5b600082013567ffffffffffffffff8111156114aa576114a9611137565b5b6114b68482850161140a565b91505092915050565b600073ffffffffffffffffffffffffffffffffffffffff82169050919050565b60006114ea826114bf565b9050919050565b6114fa816114df565b811461150557600080fd5b50565b600081359050611517816114f1565b92915050565b6000806040838503121561153457611533611132565b5b600061154285828601611218565b925050602061155385828601611508565b9150509250929050565b600080fd5b600080fd5b60008083601f84011261157d5761157c611350565b5b8235905067ffffffffffffffff81111561159a5761159961155d565b5b6020830191508360018202830111156115b6576115b5611562565b5b9250929050565b600080602083850312156115d4576115d3611132565b5b600083013567ffffffffffffffff8111156115f2576115f1611137565b5b6115fe85828601611567565b92509250509250929050565b6000806040838503121561162157611620611132565b5b600061162f85828601611218565b92505060206116408582860161133b565b9150509250929050565b611653816114df565b82525050565b600060208201905061166e600083018461164a565b92915050565b61167d8161131a565b82525050565b60006020820190506116986000830184611674565b92915050565b600081519050919050565b600082825260208201905092915050565b60005b838110156116d85780820151818401526020810190506116bd565b60008484015250505050565b60006116ef8261169e565b6116f981856116a9565b93506117098185602086016116ba565b61171281611289565b840191505092915050565b60006040820190506117326000830185611674565b818103602083015261174481846116e4565b90509392505050565b60008160001c9050919050565b6000819050919050565b60006117776117728361174d565b61175a565b9050919050565b6117878161131a565b82525050565b7f4e487b7100000000000000000000000000000000000000000000000000000000600052602260045260246000fd5b600060028204905060018216806117d457607f821691505b6020821081036117e7576117e661178d565b5b50919050565b600082825260208201905092915050565b60008190508160005260206000209050919050565b60008154611820816117bc565b61182a81866117ed565b94506001821660008114611845576001811461185b5761188e565b60ff19831686528115156020028601935061188e565b611864856117fe565b60005b8381101561188657815481890152600182019150602081019050611867565b808801955050505b50505092915050565b60006040830160008084015490506118ae81611764565b6118bb600087018261177e565b506001840185830360208701526118d28382611813565b925050819250505092915050565b60006118eb8261169e565b6118f581856117ed565b93506119058185602086016116ba565b61190e81611289565b840191505092915050565b6000604083016000830151611931600086018261177e565b506020830151848203602086015261194982826118e0565b9150508091505092915050565b600060408201905081810360008301526119708185611897565b905081810360208301526119848184611919565b90509392505050565b60006020601f8301049050919050565b600082821b905092915050565b6000600883026119da7fffffffffffffffffffffffffffffffffffffffffffffffffffffffffffffffff8261199d565b6119e4868361199d565b95508019841693508086168417925050509392505050565b6000819050919050565b6000611a21611a1c611a178461131a565b6119fc565b61131a565b9050919050565b6000819050919050565b611a3b83611a06565b611a4f611a4782611a28565b8484546119aa565b825550505050565b600090565b611a64611a57565b611a6f818484611a32565b505050565b5b81811015611a9357611a88600082611a5c565b600181019050611a75565b5050565b601f821115611ad857611aa9816117fe565b611ab28461198d565b81016020851015611ac1578190505b611ad5611acd8561198d565b830182611a74565b50505b505050565b600082821c905092915050565b6000611afb60001984600802611add565b1980831691505092915050565b6000611b148383611aea565b9150826002028217905092915050565b611b2d8261169e565b67ffffffffffffffff811115611b4657611b4561129a565b5b611b5082546117bc565b611b5b828285611a97565b600060209050601f831160018114611b8e5760008415611b7c578287015190505b611b868582611b08565b865550611bee565b601f198416611b9c866117fe565b60005b82811015611bc457848901518255600182019150602085019450602081019050611b9f565b86831015611be15784890151611bdd601f891682611aea565b8355505b6001600288020188555050505b505050505050565b7f416363657373436f6e74726f6c3a2063616e206f6e6c792072656e6f756e636560008201527f20726f6c657320666f722073656c660000000000000000000000000000000000602082015250565b6000611c52602f836116a9565b9150611c5d82611bf6565b604082019050919050565b60006020820190508181036000830152611c8181611c45565b9050919050565b7f496e697469616c697a61626c653a20636f6e747261637420697320616c72656160008201527f647920696e697469616c697a6564000000000000000000000000000000000000602082015250565b6000611ce4602e836116a9565b9150611cef82611c88565b604082019050919050565b60006020820190508181036000830152611d1381611cd7565b9050919050565b600067ffffffffffffffff821115611d3557611d3461129a565b5b602082029050602081019050919050565b6000611d59611d5484611d1a565b6112fa565b90508083825260208201905060208402830185811115611d7c57611d7b611562565b5b835b81811015611da55780611d918882611508565b845260208401935050602081019050611d7e565b5050509392505050565b600082601f830112611dc457611dc3611350565b5b8135611dd4848260208601611d46565b91505092915050565b600080600060608486031215611df657611df5611132565b5b600084013567ffffffffffffffff811115611e1457611e13611137565b5b611e208682870161140a565b935050602084013567ffffffffffffffff811115611e4157611e40611137565b5b611e4d86828701611daf565b925050604084013567ffffffffffffffff811115611e6e57611e6d611137565b5b611e7a86828701611daf565b9150509250925092565b7f4e487b7100000000000000000000000000000000000000000000000000000000600052603260045260246000fd5b7f4e487b7100000000000000000000000000000000000000000000000000000000600052601160045260246000fd5b6000611eed8261131a565b91507fffffffffffffffffffffffffffffffffffffffffffffffffffffffffffffffff8203611f1f57611f1e611eb3565b5b600182019050919050565b6000819050919050565b600060ff82169050919050565b6000611f5c611f57611f5284611f2a565b6119fc565b611f34565b9050919050565b611f6c81611f41565b82525050565b6000602082019050611f876000830184611f63565b92915050565b600081905092915050565b7f416363657373436f6e74726f6c3a206163636f756e7420000000000000000000600082015250565b6000611fce601783611f8d565b9150611fd982611f98565b601782019050919050565b6000611fef8261169e565b611ff98185611f8d565b93506120098185602086016116ba565b80840191505092915050565b7f206973206d697373696e6720726f6c6520000000000000000000000000000000600082015250565b600061204b601183611f8d565b915061205682612015565b601182019050919050565b600061206c82611fc1565b91506120788285611fe4565b91506120838261203e565b915061208f8284611fe4565b91508190509392505050565b600060208201905081810360008301526120b581846116e4565b905092915050565b60006120c88261131a565b91506120d38361131a565b92508282026120e18161131a565b915082820484148315176120f8576120f7611eb3565b5b5092915050565b600061210a8261131a565b91506121158361131a565b925082820190508082111561212d5761212c611eb3565b5b92915050565b600061213e8261131a565b91506000820361215157612150611eb3565b5b600182039050919050565b7f537472696e67733a20686578206c656e67746820696e73756666696369656e74600082015250565b60006121926020836116a9565b915061219d8261215c565b602082019050919050565b600060208201905081810360008301526121c181612185565b9050919050565b60006121d38261131a565b91506121de8361131a565b92508282039050818111156121f6576121f5611eb3565b5b92915050565b7f4e487b7100000000000000000000000000000000000000000000000000000000600052603160045260246000fdfea264697066735822122032d901d463aa4d751156797fc026f71335b0ed62893f026f805524d9a21ec45364736f6c63430008110033",
  "linkReferences": {},
  "deployedLinkReferences": {}
}