{
  "_format": "hh-sol-artifact-1",
  "contractName": "QuadraticFundingRelayStrategyImplementation",
  "sourceName": "contracts/votingStrategy/QuadraticFundingRelayStrategy/QuadraticFundingRelayStrategyImplementation.sol",
  "abi": [
    {
      "anonymous": false,
      "inputs": [
        {
          "indexed": false,
          "internalType": "uint8",
          "name": "version",
          "type": "uint8"
        }
      ],
      "name": "Initialized",
      "type": "event"
    },
    {
      "anonymous": false,
      "inputs": [
        {
          "indexed": false,
          "internalType": "address",
          "name": "token",
          "type": "address"
        },
        {
          "indexed": false,
          "internalType": "uint256",
          "name": "amount",
          "type": "uint256"
        },
        {
          "indexed": true,
          "internalType": "address",
          "name": "voter",
          "type": "address"
        },
        {
          "indexed": false,
          "internalType": "address",
          "name": "grantAddress",
          "type": "address"
        },
        {
          "indexed": true,
          "internalType": "bytes32",
          "name": "projectId",
          "type": "bytes32"
        },
        {
          "indexed": true,
          "internalType": "address",
          "name": "roundAddress",
          "type": "address"
        }
      ],
      "name": "Voted",
      "type": "event"
    },
    {
      "inputs": [],
      "name": "VERSION",
      "outputs": [
        {
          "internalType": "string",
          "name": "",
          "type": "string"
        }
      ],
      "stateMutability": "view",
      "type": "function"
    },
    {
      "inputs": [],
      "name": "init",
      "outputs": [],
      "stateMutability": "nonpayable",
      "type": "function"
    },
    {
      "inputs": [],
      "name": "initialize",
      "outputs": [],
      "stateMutability": "nonpayable",
      "type": "function"
    },
    {
      "inputs": [],
      "name": "roundAddress",
      "outputs": [
        {
          "internalType": "address",
          "name": "",
          "type": "address"
        }
      ],
      "stateMutability": "view",
      "type": "function"
    },
    {
      "inputs": [
        {
          "internalType": "bytes[]",
          "name": "encodedVotes",
          "type": "bytes[]"
        },
        {
          "internalType": "address",
          "name": "relayerAddress",
          "type": "address"
        }
      ],
      "name": "vote",
      "outputs": [],
      "stateMutability": "payable",
      "type": "function"
    }
  ],
  "bytecode": "0x608060405234801561001057600080fd5b50611598806100206000396000f3fe60806040526004361061004a5760003560e01c80630b67d9251461004f5780638129fc1c1461007a578063e1c7392a14610091578063fc6d4e39146100a8578063ffa1ad74146100c4575b600080fd5b34801561005b57600080fd5b506100646100ef565b6040516100719190610a59565b60405180910390f35b34801561008657600080fd5b5061008f610113565b005b34801561009d57600080fd5b506100a661024e565b005b6100c260048036038101906100bd9190610b0f565b61031f565b005b3480156100d057600080fd5b506100d9610576565b6040516100e69190610bff565b60405180910390f35b60008054906101000a900473ffffffffffffffffffffffffffffffffffffffff1681565b60008060159054906101000a900460ff1615905080801561014657506001600060149054906101000a900460ff1660ff16105b806101755750610155306105af565b15801561017457506001600060149054906101000a900460ff1660ff16145b5b6101b4576040517f08c379a00000000000000000000000000000000000000000000000000000000081526004016101ab90610c93565b60405180910390fd5b6001600060146101000a81548160ff021916908360ff16021790555080156101f2576001600060156101000a81548160ff0219169083151502179055505b801561024b5760008060156101000a81548160ff0219169083151502179055507f7f26b83ff96e1f2b6a682f133852f6798a09c465da95921460cefb384740249860016040516102429190610d05565b60405180910390a15b50565b600073ffffffffffffffffffffffffffffffffffffffff1660008054906101000a900473ffffffffffffffffffffffffffffffffffffffff1673ffffffffffffffffffffffffffffffffffffffff16146102dd576040517f08c379a00000000000000000000000000000000000000000000000000000000081526004016102d490610d6c565b60405180910390fd5b336000806101000a81548173ffffffffffffffffffffffffffffffffffffffff021916908373ffffffffffffffffffffffffffffffffffffffff160217905550565b6103276105d2565b600073ffffffffffffffffffffffffffffffffffffffff1660008054906101000a900473ffffffffffffffffffffffffffffffffffffffff1673ffffffffffffffffffffffffffffffffffffffff16036103b6576040517f08c379a00000000000000000000000000000000000000000000000000000000081526004016103ad90610dfe565b60405180910390fd5b60008054906101000a900473ffffffffffffffffffffffffffffffffffffffff1673ffffffffffffffffffffffffffffffffffffffff163373ffffffffffffffffffffffffffffffffffffffff1614610444576040517f08c379a000000000000000000000000000000000000000000000000000000000815260040161043b90610e90565b60405180910390fd5b60005b8383905081101561056857600080600080600088888781811061046d5761046c610eb0565b5b905060200281019061047f9190610eee565b81019061048c9190610ffb565b94509450945094509450600073ffffffffffffffffffffffffffffffffffffffff168473ffffffffffffffffffffffffffffffffffffffff16036104d9576104d48284610621565b6104e6565b6104e584868486610715565b5b3373ffffffffffffffffffffffffffffffffffffffff16818673ffffffffffffffffffffffffffffffffffffffff167f4182eb95d486b42fddcea225162f9a5f93b06dfebeddf5819d0f57f2c6af3e1b87878760405161054893929190611085565b60405180910390a450505050508080610560906110eb565b915050610447565b5061057161079e565b505050565b6040518060400160405280600581526020017f302e312e3000000000000000000000000000000000000000000000000000000081525081565b6000808273ffffffffffffffffffffffffffffffffffffffff163b119050919050565b600260015403610617576040517f08c379a000000000000000000000000000000000000000000000000000000000815260040161060e9061117f565b60405180910390fd5b6002600181905550565b80471015610664576040517f08c379a000000000000000000000000000000000000000000000000000000000815260040161065b906111eb565b60405180910390fd5b60008273ffffffffffffffffffffffffffffffffffffffff168260405161068a9061123c565b60006040518083038185875af1925050503d80600081146106c7576040519150601f19603f3d011682016040523d82523d6000602084013e6106cc565b606091505b5050905080610710576040517f08c379a0000000000000000000000000000000000000000000000000000000008152600401610707906112c3565b60405180910390fd5b505050565b610798846323b872dd60e01b858585604051602401610736939291906112e3565b604051602081830303815290604052907bffffffffffffffffffffffffffffffffffffffffffffffffffffffff19166020820180517bffffffffffffffffffffffffffffffffffffffffffffffffffffffff83818316178352505050506107a7565b50505050565b60018081905550565b6000610809826040518060400160405280602081526020017f5361666545524332303a206c6f772d6c6576656c2063616c6c206661696c65648152508573ffffffffffffffffffffffffffffffffffffffff1661086e9092919063ffffffff16565b905060008151111561086957808060200190518101906108299190611352565b610868576040517f08c379a000000000000000000000000000000000000000000000000000000000815260040161085f906113f1565b60405180910390fd5b5b505050565b606061087d8484600085610886565b90509392505050565b6060824710156108cb576040517f08c379a00000000000000000000000000000000000000000000000000000000081526004016108c290611483565b60405180910390fd5b6000808673ffffffffffffffffffffffffffffffffffffffff1685876040516108f491906114df565b60006040518083038185875af1925050503d8060008114610931576040519150601f19603f3d011682016040523d82523d6000602084013e610936565b606091505b509150915061094787838387610953565b92505050949350505050565b606083156109b55760008351036109ad5761096d856105af565b6109ac576040517f08c379a00000000000000000000000000000000000000000000000000000000081526004016109a390611542565b60405180910390fd5b5b8290506109c0565b6109bf83836109c8565b5b949350505050565b6000825111156109db5781518083602001fd5b806040517f08c379a0000000000000000000000000000000000000000000000000000000008152600401610a0f9190610bff565b60405180910390fd5b600073ffffffffffffffffffffffffffffffffffffffff82169050919050565b6000610a4382610a18565b9050919050565b610a5381610a38565b82525050565b6000602082019050610a6e6000830184610a4a565b92915050565b600080fd5b600080fd5b600080fd5b600080fd5b600080fd5b60008083601f840112610aa357610aa2610a7e565b5b8235905067ffffffffffffffff811115610ac057610abf610a83565b5b602083019150836020820283011115610adc57610adb610a88565b5b9250929050565b610aec81610a38565b8114610af757600080fd5b50565b600081359050610b0981610ae3565b92915050565b600080600060408486031215610b2857610b27610a74565b5b600084013567ffffffffffffffff811115610b4657610b45610a79565b5b610b5286828701610a8d565b93509350506020610b6586828701610afa565b9150509250925092565b600081519050919050565b600082825260208201905092915050565b60005b83811015610ba9578082015181840152602081019050610b8e565b60008484015250505050565b6000601f19601f8301169050919050565b6000610bd182610b6f565b610bdb8185610b7a565b9350610beb818560208601610b8b565b610bf481610bb5565b840191505092915050565b60006020820190508181036000830152610c198184610bc6565b905092915050565b7f496e697469616c697a61626c653a20636f6e747261637420697320616c72656160008201527f647920696e697469616c697a6564000000000000000000000000000000000000602082015250565b6000610c7d602e83610b7a565b9150610c8882610c21565b604082019050919050565b60006020820190508181036000830152610cac81610c70565b9050919050565b6000819050919050565b600060ff82169050919050565b6000819050919050565b6000610cef610cea610ce584610cb3565b610cca565b610cbd565b9050919050565b610cff81610cd4565b82525050565b6000602082019050610d1a6000830184610cf6565b92915050565b7f696e69743a20726f756e644164647265737320616c7265616479207365740000600082015250565b6000610d56601e83610b7a565b9150610d6182610d20565b602082019050919050565b60006020820190508181036000830152610d8581610d49565b9050919050565b7f6572726f723a20766f74696e6720636f6e7472616374206e6f74206c696e6b6560008201527f6420746f206120726f756e640000000000000000000000000000000000000000602082015250565b6000610de8602c83610b7a565b9150610df382610d8c565b604082019050919050565b60006020820190508181036000830152610e1781610ddb565b9050919050565b7f6572726f723a2063616e20626520696e766f6b6564206f6e6c7920627920726f60008201527f756e6420636f6e74726163740000000000000000000000000000000000000000602082015250565b6000610e7a602c83610b7a565b9150610e8582610e1e565b604082019050919050565b60006020820190508181036000830152610ea981610e6d565b9050919050565b7f4e487b7100000000000000000000000000000000000000000000000000000000600052603260045260246000fd5b600080fd5b600080fd5b600080fd5b60008083356001602003843603038112610f0b57610f0a610edf565b5b80840192508235915067ffffffffffffffff821115610f2d57610f2c610ee4565b5b602083019250600182023603831315610f4957610f48610ee9565b5b509250929050565b6000610f5c82610a18565b9050919050565b610f6c81610f51565b8114610f7757600080fd5b50565b600081359050610f8981610f63565b92915050565b6000819050919050565b610fa281610f8f565b8114610fad57600080fd5b50565b600081359050610fbf81610f99565b92915050565b6000819050919050565b610fd881610fc5565b8114610fe357600080fd5b50565b600081359050610ff581610fcf565b92915050565b600080600080600060a0868803121561101757611016610a74565b5b600061102588828901610f7a565b955050602061103688828901610f7a565b945050604061104788828901610fb0565b935050606061105888828901610f7a565b925050608061106988828901610fe6565b9150509295509295909350565b61107f81610f8f565b82525050565b600060608201905061109a6000830186610a4a565b6110a76020830185611076565b6110b46040830184610a4a565b949350505050565b7f4e487b7100000000000000000000000000000000000000000000000000000000600052601160045260246000fd5b60006110f682610f8f565b91507fffffffffffffffffffffffffffffffffffffffffffffffffffffffffffffffff8203611128576111276110bc565b5b600182019050919050565b7f5265656e7472616e637947756172643a207265656e7472616e742063616c6c00600082015250565b6000611169601f83610b7a565b915061117482611133565b602082019050919050565b600060208201905081810360008301526111988161115c565b9050919050565b7f416464726573733a20696e73756666696369656e742062616c616e6365000000600082015250565b60006111d5601d83610b7a565b91506111e08261119f565b602082019050919050565b60006020820190508181036000830152611204816111c8565b9050919050565b600081905092915050565b50565b600061122660008361120b565b915061123182611216565b600082019050919050565b600061124782611219565b9150819050919050565b7f416464726573733a20756e61626c6520746f2073656e642076616c75652c207260008201527f6563697069656e74206d61792068617665207265766572746564000000000000602082015250565b60006112ad603a83610b7a565b91506112b882611251565b604082019050919050565b600060208201905081810360008301526112dc816112a0565b9050919050565b60006060820190506112f86000830186610a4a565b6113056020830185610a4a565b6113126040830184611076565b949350505050565b60008115159050919050565b61132f8161131a565b811461133a57600080fd5b50565b60008151905061134c81611326565b92915050565b60006020828403121561136857611367610a74565b5b60006113768482850161133d565b91505092915050565b7f5361666545524332303a204552433230206f7065726174696f6e20646964206e60008201527f6f74207375636365656400000000000000000000000000000000000000000000602082015250565b60006113db602a83610b7a565b91506113e68261137f565b604082019050919050565b6000602082019050818103600083015261140a816113ce565b9050919050565b7f416464726573733a20696e73756666696369656e742062616c616e636520666f60008201527f722063616c6c0000000000000000000000000000000000000000000000000000602082015250565b600061146d602683610b7a565b915061147882611411565b604082019050919050565b6000602082019050818103600083015261149c81611460565b9050919050565b600081519050919050565b60006114b9826114a3565b6114c3818561120b565b93506114d3818560208601610b8b565b80840191505092915050565b60006114eb82846114ae565b915081905092915050565b7f416464726573733a2063616c6c20746f206e6f6e2d636f6e7472616374000000600082015250565b600061152c601d83610b7a565b9150611537826114f6565b602082019050919050565b6000602082019050818103600083015261155b8161151f565b905091905056fea264697066735822122037113b84439c547e8ff8c294b139121f97a43e2fe56c0c9fa7d9910d17be2ae164736f6c63430008110033",
  "linkReferences": {},
  "deployedLinkReferences": {}
}