{
  "_format": "hh-sol-artifact-1",
  "contractName": "QuadraticFundingRelayStrategyFactory",
  "sourceName": "contracts/votingStrategy/QuadraticFundingRelayStrategy/QuadraticFundingRelayStrategyFactory.sol",
  "abi": [
    {
      "anonymous": false,
      "inputs": [
        {
          "indexed": false,
          "internalType": "uint8",
          "name": "version",
          "type": "uint8"
        }
      ],
      "name": "Initialized",
      "type": "event"
    },
    {
      "anonymous": false,
      "inputs": [
        {
          "indexed": true,
          "internalType": "address",
          "name": "previousOwner",
          "type": "address"
        },
        {
          "indexed": true,
          "internalType": "address",
          "name": "newOwner",
          "type": "address"
        }
      ],
      "name": "OwnershipTransferred",
      "type": "event"
    },
    {
      "anonymous": false,
      "inputs": [
        {
          "indexed": true,
          "internalType": "address",
          "name": "votingContractAddress",
          "type": "address"
        },
        {
          "indexed": true,
          "internalType": "address",
          "name": "votingImplementation",
          "type": "address"
        }
      ],
      "name": "VotingContractCreated",
      "type": "event"
    },
    {
      "anonymous": false,
      "inputs": [
        {
          "indexed": false,
          "internalType": "address",
          "name": "votingContractAddress",
          "type": "address"
        }
      ],
      "name": "VotingContractUpdated",
      "type": "event"
    },
    {
      "inputs": [],
      "name": "create",
      "outputs": [
        {
          "internalType": "address",
          "name": "",
          "type": "address"
        }
      ],
      "stateMutability": "nonpayable",
      "type": "function"
    },
    {
      "inputs": [],
      "name": "initialize",
      "outputs": [],
      "stateMutability": "nonpayable",
      "type": "function"
    },
    {
      "inputs": [],
      "name": "owner",
      "outputs": [
        {
          "internalType": "address",
          "name": "",
          "type": "address"
        }
      ],
      "stateMutability": "view",
      "type": "function"
    },
    {
      "inputs": [],
      "name": "renounceOwnership",
      "outputs": [],
      "stateMutability": "nonpayable",
      "type": "function"
    },
    {
      "inputs": [
        {
          "internalType": "address",
          "name": "newOwner",
          "type": "address"
        }
      ],
      "name": "transferOwnership",
      "outputs": [],
      "stateMutability": "nonpayable",
      "type": "function"
    },
    {
      "inputs": [
        {
          "internalType": "address",
          "name": "newVotingContract",
          "type": "address"
        }
      ],
      "name": "updateVotingContract",
      "outputs": [],
      "stateMutability": "nonpayable",
      "type": "function"
    },
    {
      "inputs": [],
      "name": "votingContract",
      "outputs": [
        {
          "internalType": "address",
          "name": "",
          "type": "address"
        }
      ],
      "stateMutability": "view",
      "type": "function"
    }
  ],
  "bytecode": "0x608060405234801561001057600080fd5b50610bc2806100206000396000f3fe608060405234801561001057600080fd5b506004361061007d5760003560e01c8063c1fc006a1161005b578063c1fc006a146100b4578063df1a86a0146100d2578063efc81a8c146100ee578063f2fde38b1461010c5761007d565b8063715018a6146100825780638129fc1c1461008c5780638da5cb5b14610096575b600080fd5b61008a610128565b005b61009461013c565b005b61009e610282565b6040516100ab9190610807565b60405180910390f35b6100bc6102ac565b6040516100c99190610807565b60405180910390f35b6100ec60048036038101906100e79190610853565b6102d2565b005b6100f6610355565b6040516101039190610807565b60405180910390f35b61012660048036038101906101219190610853565b610468565b005b6101306104eb565b61013a6000610569565b565b60008060019054906101000a900460ff1615905080801561016d5750600160008054906101000a900460ff1660ff16105b8061019a575061017c3061062f565b1580156101995750600160008054906101000a900460ff1660ff16145b5b6101d9576040517f08c379a00000000000000000000000000000000000000000000000000000000081526004016101d090610903565b60405180910390fd5b60016000806101000a81548160ff021916908360ff1602179055508015610216576001600060016101000a81548160ff0219169083151502179055505b61021e610652565b6102266106a3565b801561027f5760008060016101000a81548160ff0219169083151502179055507f7f26b83ff96e1f2b6a682f133852f6798a09c465da95921460cefb384740249860016040516102769190610975565b60405180910390a15b50565b6000603360009054906101000a900473ffffffffffffffffffffffffffffffffffffffff16905090565b606560009054906101000a900473ffffffffffffffffffffffffffffffffffffffff1681565b6102da6104eb565b80606560006101000a81548173ffffffffffffffffffffffffffffffffffffffff021916908373ffffffffffffffffffffffffffffffffffffffff1602179055507f264f54b893dc3babe9fb9ac8e7abcc6c1397da0903359d5fed6245242ab3ef0b8160405161034a9190610807565b60405180910390a150565b600080610383606560009054906101000a900473ffffffffffffffffffffffffffffffffffffffff16610704565b9050606560009054906101000a900473ffffffffffffffffffffffffffffffffffffffff1673ffffffffffffffffffffffffffffffffffffffff168173ffffffffffffffffffffffffffffffffffffffff167f6cf444e1bbf9068b76bcb01b51c4a796a44b52c884e215391ec5b7060143067660405160405180910390a38073ffffffffffffffffffffffffffffffffffffffff16638129fc1c6040518163ffffffff1660e01b8152600401600060405180830381600087803b15801561044957600080fd5b505af115801561045d573d6000803e3d6000fd5b505050508091505090565b6104706104eb565b600073ffffffffffffffffffffffffffffffffffffffff168173ffffffffffffffffffffffffffffffffffffffff16036104df576040517f08c379a00000000000000000000000000000000000000000000000000000000081526004016104d690610a02565b60405180910390fd5b6104e881610569565b50565b6104f36107be565b73ffffffffffffffffffffffffffffffffffffffff16610511610282565b73ffffffffffffffffffffffffffffffffffffffff1614610567576040517f08c379a000000000000000000000000000000000000000000000000000000000815260040161055e90610a6e565b60405180910390fd5b565b6000603360009054906101000a900473ffffffffffffffffffffffffffffffffffffffff16905081603360006101000a81548173ffffffffffffffffffffffffffffffffffffffff021916908373ffffffffffffffffffffffffffffffffffffffff1602179055508173ffffffffffffffffffffffffffffffffffffffff168173ffffffffffffffffffffffffffffffffffffffff167f8be0079c531659141344cd1fd0a4f28419497f9722a3daafe3b4186f6b6457e060405160405180910390a35050565b6000808273ffffffffffffffffffffffffffffffffffffffff163b119050919050565b600060019054906101000a900460ff166106a1576040517f08c379a000000000000000000000000000000000000000000000000000000000815260040161069890610b00565b60405180910390fd5b565b600060019054906101000a900460ff166106f2576040517f08c379a00000000000000000000000000000000000000000000000000000000081526004016106e990610b00565b60405180910390fd5b6107026106fd6107be565b610569565b565b6000763d602d80600a3d3981f3363d3d373d3d3d363d730000008260601b60e81c176000526e5af43d82803e903d91602b57fd5bf38260781b17602052603760096000f09050600073ffffffffffffffffffffffffffffffffffffffff168173ffffffffffffffffffffffffffffffffffffffff16036107b9576040517f08c379a00000000000000000000000000000000000000000000000000000000081526004016107b090610b6c565b60405180910390fd5b919050565b600033905090565b600073ffffffffffffffffffffffffffffffffffffffff82169050919050565b60006107f1826107c6565b9050919050565b610801816107e6565b82525050565b600060208201905061081c60008301846107f8565b92915050565b600080fd5b610830816107e6565b811461083b57600080fd5b50565b60008135905061084d81610827565b92915050565b60006020828403121561086957610868610822565b5b60006108778482850161083e565b91505092915050565b600082825260208201905092915050565b7f496e697469616c697a61626c653a20636f6e747261637420697320616c72656160008201527f647920696e697469616c697a6564000000000000000000000000000000000000602082015250565b60006108ed602e83610880565b91506108f882610891565b604082019050919050565b6000602082019050818103600083015261091c816108e0565b9050919050565b6000819050919050565b600060ff82169050919050565b6000819050919050565b600061095f61095a61095584610923565b61093a565b61092d565b9050919050565b61096f81610944565b82525050565b600060208201905061098a6000830184610966565b92915050565b7f4f776e61626c653a206e6577206f776e657220697320746865207a65726f206160008201527f6464726573730000000000000000000000000000000000000000000000000000602082015250565b60006109ec602683610880565b91506109f782610990565b604082019050919050565b60006020820190508181036000830152610a1b816109df565b9050919050565b7f4f776e61626c653a2063616c6c6572206973206e6f7420746865206f776e6572600082015250565b6000610a58602083610880565b9150610a6382610a22565b602082019050919050565b60006020820190508181036000830152610a8781610a4b565b9050919050565b7f496e697469616c697a61626c653a20636f6e7472616374206973206e6f74206960008201527f6e697469616c697a696e67000000000000000000000000000000000000000000602082015250565b6000610aea602b83610880565b9150610af582610a8e565b604082019050919050565b60006020820190508181036000830152610b1981610add565b9050919050565b7f455243313136373a20637265617465206661696c656400000000000000000000600082015250565b6000610b56601683610880565b9150610b6182610b20565b602082019050919050565b60006020820190508181036000830152610b8581610b49565b905091905056fea26469706673582212208ebff351cca9f63397463360aa3ab04d7a9aa5c25abb55fd0932a5de786cddc464736f6c63430008110033",
  "linkReferences": {},
  "deployedLinkReferences": {}
}