{
  "_format": "hh-sol-artifact-1",
  "contractName": "RoundImplementation",
  "sourceName": "contracts/round/RoundImplementation.sol",
  "abi": [
    {
      "anonymous": false,
      "inputs": [
        {
          "components": [
            {
              "internalType": "uint256",
              "name": "protocol",
              "type": "uint256"
            },
            {
              "internalType": "string",
              "name": "pointer",
              "type": "string"
            }
          ],
          "indexed": false,
          "internalType": "struct MetaPtr",
          "name": "oldMetaPtr",
          "type": "tuple"
        },
        {
          "components": [
            {
              "internalType": "uint256",
              "name": "protocol",
              "type": "uint256"
            },
            {
              "internalType": "string",
              "name": "pointer",
              "type": "string"
            }
          ],
          "indexed": false,
          "internalType": "struct MetaPtr",
          "name": "newMetaPtr",
          "type": "tuple"
        }
      ],
      "name": "ApplicationMetaPtrUpdated",
      "type": "event"
    },
    {
      "anonymous": false,
      "inputs": [
        {
          "indexed": false,
          "internalType": "uint256",
          "name": "oldTime",
          "type": "uint256"
        },
        {
          "indexed": false,
          "internalType": "uint256",
          "name": "newTime",
          "type": "uint256"
        }
      ],
      "name": "ApplicationsEndTimeUpdated",
      "type": "event"
    },
    {
      "anonymous": false,
      "inputs": [
        {
          "indexed": false,
          "internalType": "uint256",
          "name": "oldTime",
          "type": "uint256"
        },
        {
          "indexed": false,
          "internalType": "uint256",
          "name": "newTime",
          "type": "uint256"
        }
      ],
      "name": "ApplicationsStartTimeUpdated",
      "type": "event"
    },
    {
      "anonymous": false,
      "inputs": [
        {
          "indexed": false,
          "internalType": "uint256",
          "name": "matchAmount",
          "type": "uint256"
        }
      ],
      "name": "EscrowFundsToPayoutContract",
      "type": "event"
    },
    {
      "anonymous": false,
      "inputs": [
        {
          "indexed": false,
          "internalType": "uint8",
          "name": "version",
          "type": "uint8"
        }
      ],
      "name": "Initialized",
      "type": "event"
    },
    {
      "anonymous": false,
      "inputs": [
        {
          "indexed": false,
          "internalType": "uint256",
          "name": "newAmount",
          "type": "uint256"
        }
      ],
      "name": "MatchAmountUpdated",
      "type": "event"
    },
    {
      "anonymous": false,
      "inputs": [
        {
          "indexed": true,
          "internalType": "bytes32",
          "name": "project",
          "type": "bytes32"
        },
        {
          "components": [
            {
              "internalType": "uint256",
              "name": "protocol",
              "type": "uint256"
            },
            {
              "internalType": "string",
              "name": "pointer",
              "type": "string"
            }
          ],
          "indexed": false,
          "internalType": "struct MetaPtr",
          "name": "applicationMetaPtr",
          "type": "tuple"
        }
      ],
      "name": "NewProjectApplication",
      "type": "event"
    },
    {
      "anonymous": false,
      "inputs": [
        {
          "components": [
            {
              "internalType": "uint256",
              "name": "protocol",
              "type": "uint256"
            },
            {
              "internalType": "string",
              "name": "pointer",
              "type": "string"
            }
          ],
          "indexed": false,
          "internalType": "struct MetaPtr",
          "name": "oldMetaPtr",
          "type": "tuple"
        },
        {
          "components": [
            {
              "internalType": "uint256",
              "name": "protocol",
              "type": "uint256"
            },
            {
              "internalType": "string",
              "name": "pointer",
              "type": "string"
            }
          ],
          "indexed": false,
          "internalType": "struct MetaPtr",
          "name": "newMetaPtr",
          "type": "tuple"
        }
      ],
      "name": "ProjectsMetaPtrUpdated",
      "type": "event"
    },
    {
      "anonymous": false,
      "inputs": [
        {
          "indexed": true,
          "internalType": "bytes32",
          "name": "role",
          "type": "bytes32"
        },
        {
          "indexed": true,
          "internalType": "bytes32",
          "name": "previousAdminRole",
          "type": "bytes32"
        },
        {
          "indexed": true,
          "internalType": "bytes32",
          "name": "newAdminRole",
          "type": "bytes32"
        }
      ],
      "name": "RoleAdminChanged",
      "type": "event"
    },
    {
      "anonymous": false,
      "inputs": [
        {
          "indexed": true,
          "internalType": "bytes32",
          "name": "role",
          "type": "bytes32"
        },
        {
          "indexed": true,
          "internalType": "address",
          "name": "account",
          "type": "address"
        },
        {
          "indexed": true,
          "internalType": "address",
          "name": "sender",
          "type": "address"
        }
      ],
      "name": "RoleGranted",
      "type": "event"
    },
    {
      "anonymous": false,
      "inputs": [
        {
          "indexed": true,
          "internalType": "bytes32",
          "name": "role",
          "type": "bytes32"
        },
        {
          "indexed": true,
          "internalType": "address",
          "name": "account",
          "type": "address"
        },
        {
          "indexed": true,
          "internalType": "address",
          "name": "sender",
          "type": "address"
        }
      ],
      "name": "RoleRevoked",
      "type": "event"
    },
    {
      "anonymous": false,
      "inputs": [
        {
          "indexed": false,
          "internalType": "uint256",
          "name": "oldTime",
          "type": "uint256"
        },
        {
          "indexed": false,
          "internalType": "uint256",
          "name": "newTime",
          "type": "uint256"
        }
      ],
      "name": "RoundEndTimeUpdated",
      "type": "event"
    },
    {
      "anonymous": false,
      "inputs": [
        {
          "components": [
            {
              "internalType": "uint256",
              "name": "protocol",
              "type": "uint256"
            },
            {
              "internalType": "string",
              "name": "pointer",
              "type": "string"
            }
          ],
          "indexed": false,
          "internalType": "struct MetaPtr",
          "name": "oldMetaPtr",
          "type": "tuple"
        },
        {
          "components": [
            {
              "internalType": "uint256",
              "name": "protocol",
              "type": "uint256"
            },
            {
              "internalType": "string",
              "name": "pointer",
              "type": "string"
            }
          ],
          "indexed": false,
          "internalType": "struct MetaPtr",
          "name": "newMetaPtr",
          "type": "tuple"
        }
      ],
      "name": "RoundMetaPtrUpdated",
      "type": "event"
    },
    {
      "anonymous": false,
      "inputs": [
        {
          "indexed": false,
          "internalType": "uint256",
          "name": "oldTime",
          "type": "uint256"
        },
        {
          "indexed": false,
          "internalType": "uint256",
          "name": "newTime",
          "type": "uint256"
        }
      ],
      "name": "RoundStartTimeUpdated",
      "type": "event"
    },
    {
      "inputs": [],
      "name": "DEFAULT_ADMIN_ROLE",
      "outputs": [
        {
          "internalType": "bytes32",
          "name": "",
          "type": "bytes32"
        }
      ],
      "stateMutability": "view",
      "type": "function"
    },
    {
      "inputs": [],
      "name": "ROUND_OPERATOR_ROLE",
      "outputs": [
        {
          "internalType": "bytes32",
          "name": "",
          "type": "bytes32"
        }
      ],
      "stateMutability": "view",
      "type": "function"
    },
    {
      "inputs": [],
      "name": "applicationMetaPtr",
      "outputs": [
        {
          "internalType": "uint256",
          "name": "protocol",
          "type": "uint256"
        },
        {
          "internalType": "string",
          "name": "pointer",
          "type": "string"
        }
      ],
      "stateMutability": "view",
      "type": "function"
    },
    {
      "inputs": [],
      "name": "applicationsEndTime",
      "outputs": [
        {
          "internalType": "uint256",
          "name": "",
          "type": "uint256"
        }
      ],
      "stateMutability": "view",
      "type": "function"
    },
    {
      "inputs": [],
      "name": "applicationsStartTime",
      "outputs": [
        {
          "internalType": "uint256",
          "name": "",
          "type": "uint256"
        }
      ],
      "stateMutability": "view",
      "type": "function"
    },
    {
      "inputs": [
        {
          "internalType": "bytes32",
          "name": "projectID",
          "type": "bytes32"
        },
        {
          "components": [
            {
              "internalType": "uint256",
              "name": "protocol",
              "type": "uint256"
            },
            {
              "internalType": "string",
              "name": "pointer",
              "type": "string"
            }
          ],
          "internalType": "struct MetaPtr",
          "name": "newApplicationMetaPtr",
          "type": "tuple"
        }
      ],
      "name": "applyToRound",
      "outputs": [],
      "stateMutability": "nonpayable",
      "type": "function"
    },
    {
      "inputs": [
        {
          "internalType": "bytes32",
          "name": "role",
          "type": "bytes32"
        }
      ],
      "name": "getRoleAdmin",
      "outputs": [
        {
          "internalType": "bytes32",
          "name": "",
          "type": "bytes32"
        }
      ],
      "stateMutability": "view",
      "type": "function"
    },
    {
      "inputs": [
        {
          "internalType": "bytes32",
          "name": "role",
          "type": "bytes32"
        },
        {
          "internalType": "uint256",
          "name": "index",
          "type": "uint256"
        }
      ],
      "name": "getRoleMember",
      "outputs": [
        {
          "internalType": "address",
          "name": "",
          "type": "address"
        }
      ],
      "stateMutability": "view",
      "type": "function"
    },
    {
      "inputs": [
        {
          "internalType": "bytes32",
          "name": "role",
          "type": "bytes32"
        }
      ],
      "name": "getRoleMemberCount",
      "outputs": [
        {
          "internalType": "uint256",
          "name": "",
          "type": "uint256"
        }
      ],
      "stateMutability": "view",
      "type": "function"
    },
    {
      "inputs": [
        {
          "internalType": "bytes32",
          "name": "role",
          "type": "bytes32"
        },
        {
          "internalType": "address",
          "name": "account",
          "type": "address"
        }
      ],
      "name": "grantRole",
      "outputs": [],
      "stateMutability": "nonpayable",
      "type": "function"
    },
    {
      "inputs": [
        {
          "internalType": "bytes32",
          "name": "role",
          "type": "bytes32"
        },
        {
          "internalType": "address",
          "name": "account",
          "type": "address"
        }
      ],
      "name": "hasRole",
      "outputs": [
        {
          "internalType": "bool",
          "name": "",
          "type": "bool"
        }
      ],
      "stateMutability": "view",
      "type": "function"
    },
    {
      "inputs": [
        {
          "internalType": "bytes",
          "name": "encodedParameters",
          "type": "bytes"
        }
      ],
      "name": "initialize",
      "outputs": [],
      "stateMutability": "nonpayable",
      "type": "function"
    },
    {
      "inputs": [],
      "name": "matchAmount",
      "outputs": [
        {
          "internalType": "uint256",
          "name": "",
          "type": "uint256"
        }
      ],
      "stateMutability": "view",
      "type": "function"
    },
    {
      "inputs": [],
      "name": "payoutStrategy",
      "outputs": [
        {
          "internalType": "contract IPayoutStrategy",
          "name": "",
          "type": "address"
        }
      ],
      "stateMutability": "view",
      "type": "function"
    },
    {
      "inputs": [],
      "name": "projectsMetaPtr",
      "outputs": [
        {
          "internalType": "uint256",
          "name": "protocol",
          "type": "uint256"
        },
        {
          "internalType": "string",
          "name": "pointer",
          "type": "string"
        }
      ],
      "stateMutability": "view",
      "type": "function"
    },
    {
      "inputs": [
        {
          "internalType": "bytes32",
          "name": "role",
          "type": "bytes32"
        },
        {
          "internalType": "address",
          "name": "account",
          "type": "address"
        }
      ],
      "name": "renounceRole",
      "outputs": [],
      "stateMutability": "nonpayable",
      "type": "function"
    },
    {
      "inputs": [
        {
          "internalType": "bytes32",
          "name": "role",
          "type": "bytes32"
        },
        {
          "internalType": "address",
          "name": "account",
          "type": "address"
        }
      ],
      "name": "revokeRole",
      "outputs": [],
      "stateMutability": "nonpayable",
      "type": "function"
    },
    {
      "inputs": [],
      "name": "roundEndTime",
      "outputs": [
        {
          "internalType": "uint256",
          "name": "",
          "type": "uint256"
        }
      ],
      "stateMutability": "view",
      "type": "function"
    },
    {
      "inputs": [],
      "name": "roundMetaPtr",
      "outputs": [
        {
          "internalType": "uint256",
          "name": "protocol",
          "type": "uint256"
        },
        {
          "internalType": "string",
          "name": "pointer",
          "type": "string"
        }
      ],
      "stateMutability": "view",
      "type": "function"
    },
    {
      "inputs": [],
      "name": "roundStartTime",
      "outputs": [
        {
          "internalType": "uint256",
          "name": "",
          "type": "uint256"
        }
      ],
      "stateMutability": "view",
      "type": "function"
    },
    {
      "inputs": [],
      "name": "setReadyForPayout",
      "outputs": [],
      "stateMutability": "payable",
      "type": "function"
    },
    {
      "inputs": [
        {
          "internalType": "bytes4",
          "name": "interfaceId",
          "type": "bytes4"
        }
      ],
      "name": "supportsInterface",
      "outputs": [
        {
          "internalType": "bool",
          "name": "",
          "type": "bool"
        }
      ],
      "stateMutability": "view",
      "type": "function"
    },
    {
      "inputs": [],
      "name": "token",
      "outputs": [
        {
          "internalType": "contract IERC20",
          "name": "",
          "type": "address"
        }
      ],
      "stateMutability": "view",
      "type": "function"
    },
    {
      "inputs": [
        {
          "components": [
            {
              "internalType": "uint256",
              "name": "protocol",
              "type": "uint256"
            },
            {
              "internalType": "string",
              "name": "pointer",
              "type": "string"
            }
          ],
          "internalType": "struct MetaPtr",
          "name": "newApplicationMetaPtr",
          "type": "tuple"
        }
      ],
      "name": "updateApplicationMetaPtr",
      "outputs": [],
      "stateMutability": "nonpayable",
      "type": "function"
    },
    {
      "inputs": [
        {
          "internalType": "uint256",
          "name": "newApplicationsEndTime",
          "type": "uint256"
        }
      ],
      "name": "updateApplicationsEndTime",
      "outputs": [],
      "stateMutability": "nonpayable",
      "type": "function"
    },
    {
      "inputs": [
        {
          "internalType": "uint256",
          "name": "newApplicationsStartTime",
          "type": "uint256"
        }
      ],
      "name": "updateApplicationsStartTime",
      "outputs": [],
      "stateMutability": "nonpayable",
      "type": "function"
    },
    {
      "inputs": [
        {
          "internalType": "uint256",
          "name": "newAmount",
          "type": "uint256"
        }
      ],
      "name": "updateMatchAmount",
      "outputs": [],
      "stateMutability": "nonpayable",
      "type": "function"
    },
    {
      "inputs": [
        {
          "components": [
            {
              "internalType": "uint256",
              "name": "protocol",
              "type": "uint256"
            },
            {
              "internalType": "string",
              "name": "pointer",
              "type": "string"
            }
          ],
          "internalType": "struct MetaPtr",
          "name": "newProjectsMetaPtr",
          "type": "tuple"
        }
      ],
      "name": "updateProjectsMetaPtr",
      "outputs": [],
      "stateMutability": "nonpayable",
      "type": "function"
    },
    {
      "inputs": [
        {
          "internalType": "uint256",
          "name": "newRoundEndTime",
          "type": "uint256"
        }
      ],
      "name": "updateRoundEndTime",
      "outputs": [],
      "stateMutability": "nonpayable",
      "type": "function"
    },
    {
      "inputs": [
        {
          "components": [
            {
              "internalType": "uint256",
              "name": "protocol",
              "type": "uint256"
            },
            {
              "internalType": "string",
              "name": "pointer",
              "type": "string"
            }
          ],
          "internalType": "struct MetaPtr",
          "name": "newRoundMetaPtr",
          "type": "tuple"
        }
      ],
      "name": "updateRoundMetaPtr",
      "outputs": [],
      "stateMutability": "nonpayable",
      "type": "function"
    },
    {
      "inputs": [
        {
          "internalType": "uint256",
          "name": "newRoundStartTime",
          "type": "uint256"
        }
      ],
      "name": "updateRoundStartTime",
      "outputs": [],
      "stateMutability": "nonpayable",
      "type": "function"
    },
    {
      "inputs": [
        {
          "internalType": "bytes[]",
          "name": "encodedVotes",
          "type": "bytes[]"
        }
      ],
      "name": "vote",
      "outputs": [],
      "stateMutability": "payable",
      "type": "function"
    },
    {
      "inputs": [],
      "name": "votingStrategy",
      "outputs": [
        {
          "internalType": "contract IVotingStrategy",
          "name": "",
          "type": "address"
        }
      ],
      "stateMutability": "view",
      "type": "function"
    },
    {
      "inputs": [
        {
          "internalType": "address",
          "name": "tokenAddress",
          "type": "address"
        },
        {
          "internalType": "address payable",
          "name": "recipent",
          "type": "address"
        }
      ],
      "name": "withdraw",
      "outputs": [],
      "stateMutability": "nonpayable",
      "type": "function"
    },
    {
      "stateMutability": "payable",
      "type": "receive"
    }
  ],
  "bytecode": "0x608060405234801561001057600080fd5b50615d4180620000216000396000f3fe6080604052600436106101fd5760003560e01c80639fcf41151161010d578063d7bf7840116100a0578063f7f8ebca1161006f578063f7f8ebca1461071c578063f940e38514610747578063fb5c8bfd14610770578063fc0c546a1461079b578063fe169f76146107c657610204565b8063d7bf784014610672578063d97f3dcf1461069b578063dd4f8f74146106c6578063e40205d6146106f157610204565b8063b6d3393e116100dc578063b6d3393e146105b8578063ca15c873146105e1578063d195bba11461061e578063d547741f1461064957610204565b80639fcf411514610512578063a217fddf1461053b578063a4419aa814610566578063b02f18e71461058f57610204565b8063439fab91116101905780637aa54b681161015f5780637aa54b681461042a5780638926a888146104465780639010d07c1461046f57806391d14854146104ac57806392d4f9a9146104e957610204565b8063439fab91146103835780634c3d1fab146103ac578063685bd21b146103d5578063697e5f691461040157610204565b8063248a9ca3116101cc578063248a9ca3146102c85780632698f3fb146103055780632f2ff15d1461033157806336568abe1461035a57610204565b806301ffc9a7146102095780630c0a56b614610246578063172a51a5146102715780631e949c9e1461029d57610204565b3661020457005b600080fd5b34801561021557600080fd5b50610230600480360381019061022b9190612f6f565b6107d0565b60405161023d9190612fb7565b60405180910390f35b34801561025257600080fd5b5061025b61084a565b6040516102689190613051565b60405180910390f35b34801561027d57600080fd5b50610286610870565b604051610294929190613115565b60405180910390f35b3480156102a957600080fd5b506102b261090a565b6040516102bf9190613145565b60405180910390f35b3480156102d457600080fd5b506102ef60048036038101906102ea9190613196565b610910565b6040516102fc91906131d2565b60405180910390f35b34801561031157600080fd5b5061031a61092f565b604051610328929190613115565b60405180910390f35b34801561033d57600080fd5b506103586004803603810190610353919061322b565b6109c9565b005b34801561036657600080fd5b50610381600480360381019061037c919061322b565b6109ea565b005b34801561038f57600080fd5b506103aa60048036038101906103a591906132d0565b610a6d565b005b3480156103b857600080fd5b506103d360048036038101906103ce9190613349565b611081565b005b3480156103e157600080fd5b506103ea611202565b6040516103f8929190613115565b60405180910390f35b34801561040d57600080fd5b5061042860048036038101906104239190613349565b61129c565b005b610444600480360381019061043f9190613587565b611391565b005b34801561045257600080fd5b5061046d600480360381019061046891906136e7565b611475565b005b34801561047b57600080fd5b5061049660048036038101906104919190613730565b611548565b6040516104a3919061377f565b60405180910390f35b3480156104b857600080fd5b506104d360048036038101906104ce919061322b565b611577565b6040516104e09190612fb7565b60405180910390f35b3480156104f557600080fd5b50610510600480360381019061050b91906137be565b6115e1565b005b34801561051e57600080fd5b5061053960048036038101906105349190613349565b6116a0565b005b34801561054757600080fd5b50610550611821565b60405161055d91906131d2565b60405180910390f35b34801561057257600080fd5b5061058d60048036038101906105889190613349565b611828565b005b34801561059b57600080fd5b506105b660048036038101906105b19190613807565b6119a9565b005b3480156105c457600080fd5b506105df60048036038101906105da9190613349565b611a38565b005b3480156105ed57600080fd5b5061060860048036038101906106039190613196565b611bb9565b6040516106159190613145565b60405180910390f35b34801561062a57600080fd5b50610633611bdd565b6040516106409190613145565b60405180910390f35b34801561065557600080fd5b50610670600480360381019061066b919061322b565b611be3565b005b34801561067e57600080fd5b50610699600480360381019061069491906136e7565b611c04565b005b3480156106a757600080fd5b506106b0611cd7565b6040516106bd91906131d2565b60405180910390f35b3480156106d257600080fd5b506106db611cfb565b6040516106e89190613145565b60405180910390f35b3480156106fd57600080fd5b50610706611d01565b6040516107139190613145565b60405180910390f35b34801561072857600080fd5b50610731611d07565b60405161073e9190613145565b60405180910390f35b34801561075357600080fd5b5061076e600480360381019061076991906138a1565b611d0d565b005b34801561077c57600080fd5b50610785611ddf565b6040516107929190613914565b60405180910390f35b3480156107a757600080fd5b506107b0611e03565b6040516107bd9190613950565b60405180910390f35b6107ce611e29565b005b60007f5a05180f000000000000000000000000000000000000000000000000000000007bffffffffffffffffffffffffffffffffffffffffffffffffffffffff1916827bffffffffffffffffffffffffffffffffffffffffffffffffffffffff19161480610843575061084282612116565b5b9050919050565b600360009054906101000a900473ffffffffffffffffffffffffffffffffffffffff1681565b600d8060000154908060010180546108879061399a565b80601f01602080910402602001604051908101604052809291908181526020018280546108b39061399a565b80156109005780601f106108d557610100808354040283529160200191610900565b820191906000526020600020905b8154815290600101906020018083116108e357829003601f168201915b5050505050905082565b60055481565b6000806000838152602001908152602001600020600101549050919050565b60098060000154908060010180546109469061399a565b80601f01602080910402602001604051908101604052809291908181526020018280546109729061399a565b80156109bf5780601f10610994576101008083540402835291602001916109bf565b820191906000526020600020905b8154815290600101906020018083116109a257829003601f168201915b5050505050905082565b6109d282610910565b6109db81612190565b6109e583836121a4565b505050565b6109f26121d8565b73ffffffffffffffffffffffffffffffffffffffff168173ffffffffffffffffffffffffffffffffffffffff1614610a5f576040517f08c379a0000000000000000000000000000000000000000000000000000000008152600401610a5690613a3d565b60405180910390fd5b610a6982826121e0565b5050565b6000600260019054906101000a900460ff16159050808015610aa157506001600260009054906101000a900460ff1660ff16105b80610ad05750610ab030612214565b158015610acf57506001600260009054906101000a900460ff1660ff16145b5b610b0f576040517f08c379a0000000000000000000000000000000000000000000000000000000008152600401610b0690613acf565b60405180910390fd5b6001600260006101000a81548160ff021916908360ff1602179055508015610b4d576001600260016101000a81548160ff0219169083151502179055505b60008060008060008060008060008060008d8d810190610b6d9190613c6c565b9a509a509a509a509a509a509a509a509a509a509a5042891015610bc6576040517f08c379a0000000000000000000000000000000000000000000000000000000008152600401610bbd90613e42565b60405180910390fd5b888811610c08576040517f08c379a0000000000000000000000000000000000000000000000000000000008152600401610bff90613efa565b60405180910390fd5b87861015610c4b576040517f08c379a0000000000000000000000000000000000000000000000000000000008152600401610c4290613f8c565b60405180910390fd5b868611610c8d576040517f08c379a0000000000000000000000000000000000000000000000000000000008152600401610c849061401e565b60405180910390fd5b88871015610cd0576040517f08c379a0000000000000000000000000000000000000000000000000000000008152600401610cc7906140d6565b60405180910390fd5b8a6002806101000a81548173ffffffffffffffffffffffffffffffffffffffff021916908373ffffffffffffffffffffffffffffffffffffffff16021790555089600360006101000a81548173ffffffffffffffffffffffffffffffffffffffff021916908373ffffffffffffffffffffffffffffffffffffffff1602179055508860048190555087600581905550866006819055508560078190555084600860006101000a81548173ffffffffffffffffffffffffffffffffffffffff021916908373ffffffffffffffffffffffffffffffffffffffff16021790555060028054906101000a900473ffffffffffffffffffffffffffffffffffffffff1673ffffffffffffffffffffffffffffffffffffffff1663e1c7392a6040518163ffffffff1660e01b8152600401600060405180830381600087803b158015610e1657600080fd5b505af1158015610e2a573d6000803e3d6000fd5b50505050600360009054906101000a900473ffffffffffffffffffffffffffffffffffffffff1673ffffffffffffffffffffffffffffffffffffffff1663e1c7392a6040518163ffffffff1660e01b8152600401600060405180830381600087803b158015610e9857600080fd5b505af1158015610eac573d6000803e3d6000fd5b505050507fb625c4faee7533bf09da813b9c0e169f98d36c22d9ce5181c9e4d7577556760a600985604051610ee292919061429f565b60405180910390a1836009600082015181600001556020820151816001019081610f0c9190614463565b509050507ffd4633953debc7fbfababf529ffe33c4a6dd78c9ff13db552b571df088478641600b84604051610f4292919061429f565b60405180910390a182600b600082015181600001556020820151816001019081610f6c9190614463565b5090505060005b8251811015610fb457610fa36000801b848381518110610f9657610f95614535565b5b60200260200101516121a4565b80610fad90614593565b9050610f73565b5060005b8151811015611016576110057fec61da14b5abbac5c5fda6f1d57642a264ebd5d0674f35852829746dfb8174a5838381518110610ff857610ff7614535565b5b60200260200101516121a4565b8061100f90614593565b9050610fb8565b505050505050505050505050801561107c576000600260016101000a81548160ff0219169083151502179055507f7f26b83ff96e1f2b6a682f133852f6798a09c465da95921460cefb384740249860016040516110739190614623565b60405180910390a15b505050565b6007544211156110c6576040517f08c379a00000000000000000000000000000000000000000000000000000000081526004016110bd9061468a565b60405180910390fd5b7fec61da14b5abbac5c5fda6f1d57642a264ebd5d0674f35852829746dfb8174a56110f081612190565b42821015611133576040517f08c379a000000000000000000000000000000000000000000000000000000000815260040161112a90614742565b60405180910390fd5b600654821115611178576040517f08c379a000000000000000000000000000000000000000000000000000000000815260040161116f906147d4565b60405180910390fd5b60055482106111bc576040517f08c379a00000000000000000000000000000000000000000000000000000000081526004016111b39061488c565b60405180910390fd5b7f1fde68e630df12a4f2baa029dd016929d2c6bccc0fdd80dec2a787b01035517e600454836040516111ef9291906148ac565b60405180910390a1816004819055505050565b600b8060000154908060010180546112199061399a565b80601f01602080910402602001604051908101604052809291908181526020018280546112459061399a565b80156112925780601f1061126757610100808354040283529160200191611292565b820191906000526020600020905b81548152906001019060200180831161127557829003601f168201915b5050505050905082565b6007544211156112e1576040517f08c379a00000000000000000000000000000000000000000000000000000000081526004016112d89061468a565b60405180910390fd5b7fec61da14b5abbac5c5fda6f1d57642a264ebd5d0674f35852829746dfb8174a561130b81612190565b600f54821161134f576040517f08c379a000000000000000000000000000000000000000000000000000000000815260040161134690614947565b60405180910390fd5b81600f819055507f36407b7517f93b8dd6bf87384f27398dc6c7158776015e7492bbae639be60bdd826040516113859190613145565b60405180910390a15050565b42600654111580156113a557506007544211155b6113e4576040517f08c379a00000000000000000000000000000000000000000000000000000000081526004016113db906149b3565b60405180910390fd5b60028054906101000a900473ffffffffffffffffffffffffffffffffffffffff1673ffffffffffffffffffffffffffffffffffffffff1663fc6d4e393483336040518463ffffffff1660e01b8152600401611440929190614aea565b6000604051808303818588803b15801561145957600080fd5b505af115801561146d573d6000803e3d6000fd5b505050505050565b6007544211156114ba576040517f08c379a00000000000000000000000000000000000000000000000000000000081526004016114b19061468a565b60405180910390fd5b7fec61da14b5abbac5c5fda6f1d57642a264ebd5d0674f35852829746dfb8174a56114e481612190565b7ffd4633953debc7fbfababf529ffe33c4a6dd78c9ff13db552b571df088478641600b8360405161151692919061429f565b60405180910390a181600b6000820151816000015560208201518160010190816115409190614463565b509050505050565b600061156f826001600086815260200190815260200160002061223790919063ffffffff16565b905092915050565b600080600084815260200190815260200160002060000160008373ffffffffffffffffffffffffffffffffffffffff1673ffffffffffffffffffffffffffffffffffffffff16815260200190815260200160002060009054906101000a900460ff16905092915050565b600754421115611626576040517f08c379a000000000000000000000000000000000000000000000000000000000815260040161161d9061468a565b60405180910390fd5b7fec61da14b5abbac5c5fda6f1d57642a264ebd5d0674f35852829746dfb8174a561165081612190565b7fd89ecd28a8dd4688401fd735d473fe15800c2551b32188cbefda0db6677dcc34600d83604051611682929190614c1f565b60405180910390a181600d81816116999190614e81565b9050505050565b6007544211156116e5576040517f08c379a00000000000000000000000000000000000000000000000000000000081526004016116dc9061468a565b60405180910390fd5b7fec61da14b5abbac5c5fda6f1d57642a264ebd5d0674f35852829746dfb8174a561170f81612190565b42821015611752576040517f08c379a000000000000000000000000000000000000000000000000000000000815260040161174990614f01565b60405180910390fd5b6006548211611796576040517f08c379a000000000000000000000000000000000000000000000000000000000815260040161178d90614f93565b60405180910390fd5b6005548210156117db576040517f08c379a00000000000000000000000000000000000000000000000000000000081526004016117d29061504b565b60405180910390fd5b7fc0395d95a518149baa3521bb5b3c6988c7806a48ea42726ee3a9686bbd2a08cd6007548360405161180e9291906148ac565b60405180910390a1816007819055505050565b6000801b81565b60075442111561186d576040517f08c379a00000000000000000000000000000000000000000000000000000000081526004016118649061468a565b60405180910390fd5b7fec61da14b5abbac5c5fda6f1d57642a264ebd5d0674f35852829746dfb8174a561189781612190565b428210156118da576040517f08c379a00000000000000000000000000000000000000000000000000000000081526004016118d1906150dd565b60405180910390fd5b60045482101561191f576040517f08c379a000000000000000000000000000000000000000000000000000000000815260040161191690615195565b60405180910390fd5b6007548210611963576040517f08c379a000000000000000000000000000000000000000000000000000000000815260040161195a90615227565b60405180910390fd5b7fbd905b0cf9e380e3eaf972d7cb542694f66361043fcce248341d90626d467476600654836040516119969291906148ac565b60405180910390a1816006819055505050565b42600454111580156119bd57506005544211155b6119fc576040517f08c379a00000000000000000000000000000000000000000000000000000000081526004016119f3906152b9565b60405180910390fd5b817fec793fe704d340d962cd02d81ad54045e7ceea713aca4e31c7c5c43e3dcb192a82604051611a2c91906152d9565b60405180910390a25050565b600754421115611a7d576040517f08c379a0000000000000000000000000000000000000000000000000000000008152600401611a749061468a565b60405180910390fd5b7fec61da14b5abbac5c5fda6f1d57642a264ebd5d0674f35852829746dfb8174a5611aa781612190565b42821015611aea576040517f08c379a0000000000000000000000000000000000000000000000000000000008152600401611ae190615393565b60405180910390fd5b6004548211611b2e576040517f08c379a0000000000000000000000000000000000000000000000000000000008152600401611b259061544b565b60405180910390fd5b600754821115611b73576040517f08c379a0000000000000000000000000000000000000000000000000000000008152600401611b6a906154dd565b60405180910390fd5b7fa7fbc7103523f0d44281a3a3ba5aa119e9cab30ae02c09932eb2524c7d81f46360055483604051611ba69291906148ac565b60405180910390a1816005819055505050565b6000611bd660016000848152602001908152602001600020612251565b9050919050565b60045481565b611bec82610910565b611bf581612190565b611bff83836121e0565b505050565b600754421115611c49576040517f08c379a0000000000000000000000000000000000000000000000000000000008152600401611c409061468a565b60405180910390fd5b7fec61da14b5abbac5c5fda6f1d57642a264ebd5d0674f35852829746dfb8174a5611c7381612190565b7fb625c4faee7533bf09da813b9c0e169f98d36c22d9ce5181c9e4d7577556760a600983604051611ca592919061429f565b60405180910390a1816009600082015181600001556020820151816001019081611ccf9190614463565b509050505050565b7fec61da14b5abbac5c5fda6f1d57642a264ebd5d0674f35852829746dfb8174a581565b60065481565b60075481565b600f5481565b7fec61da14b5abbac5c5fda6f1d57642a264ebd5d0674f35852829746dfb8174a5611d3781612190565b600860009054906101000a900473ffffffffffffffffffffffffffffffffffffffff1673ffffffffffffffffffffffffffffffffffffffff168373ffffffffffffffffffffffffffffffffffffffff1603611dc7576040517f08c379a0000000000000000000000000000000000000000000000000000000008152600401611dbe9061556f565b60405180910390fd5b611dda82611dd485612266565b85612325565b505050565b60028054906101000a900473ffffffffffffffffffffffffffffffffffffffff1681565b600860009054906101000a900473ffffffffffffffffffffffffffffffffffffffff1681565b6007544211611e6d576040517f08c379a0000000000000000000000000000000000000000000000000000000008152600401611e64906155db565b60405180910390fd5b7fec61da14b5abbac5c5fda6f1d57642a264ebd5d0674f35852829746dfb8174a5611e9781612190565b6000611ec4600860009054906101000a900473ffffffffffffffffffffffffffffffffffffffff16612266565b9050600f54811015611f0b576040517f08c379a0000000000000000000000000000000000000000000000000000000008152600401611f029061566d565b60405180910390fd5b600073ffffffffffffffffffffffffffffffffffffffff16600860009054906101000a900473ffffffffffffffffffffffffffffffffffffffff1673ffffffffffffffffffffffffffffffffffffffff1603611fe957600360009054906101000a900473ffffffffffffffffffffffffffffffffffffffff1673ffffffffffffffffffffffffffffffffffffffff1663fe169f76826040518263ffffffff1660e01b81526004016000604051808303818588803b158015611fcb57600080fd5b505af1158015611fdf573d6000803e3d6000fd5b50505050506120db565b612058600360009054906101000a900473ffffffffffffffffffffffffffffffffffffffff1682600860009054906101000a900473ffffffffffffffffffffffffffffffffffffffff1673ffffffffffffffffffffffffffffffffffffffff166123999092919063ffffffff16565b600360009054906101000a900473ffffffffffffffffffffffffffffffffffffffff1673ffffffffffffffffffffffffffffffffffffffff1663fe169f766040518163ffffffff1660e01b8152600401600060405180830381600087803b1580156120c257600080fd5b505af11580156120d6573d6000803e3d6000fd5b505050505b7f74d7acdd26279b5285b3c863076dc9c0a4187a75e2924e96aa0c8cf061b4a6388160405161210a9190613145565b60405180910390a15050565b60007f7965db0b000000000000000000000000000000000000000000000000000000007bffffffffffffffffffffffffffffffffffffffffffffffffffffffff1916827bffffffffffffffffffffffffffffffffffffffffffffffffffffffff1916148061218957506121888261241f565b5b9050919050565b6121a18161219c6121d8565b612489565b50565b6121ae828261250e565b6121d381600160008581526020019081526020016000206125ee90919063ffffffff16565b505050565b600033905090565b6121ea828261261e565b61220f81600160008581526020019081526020016000206126ff90919063ffffffff16565b505050565b6000808273ffffffffffffffffffffffffffffffffffffffff163b119050919050565b6000612246836000018361272f565b60001c905092915050565b600061225f8260000161275a565b9050919050565b60008073ffffffffffffffffffffffffffffffffffffffff168273ffffffffffffffffffffffffffffffffffffffff16036122a357479050612320565b8173ffffffffffffffffffffffffffffffffffffffff166370a08231306040518263ffffffff1660e01b81526004016122dc919061377f565b602060405180830381865afa1580156122f9573d6000803e3d6000fd5b505050506040513d601f19601f8201168201806040525081019061231d91906156a2565b90505b919050565b600073ffffffffffffffffffffffffffffffffffffffff168173ffffffffffffffffffffffffffffffffffffffff160361236857612363838361276b565b612394565b61239383838373ffffffffffffffffffffffffffffffffffffffff166123999092919063ffffffff16565b5b505050565b61241a8363a9059cbb60e01b84846040516024016123b89291906156cf565b604051602081830303815290604052907bffffffffffffffffffffffffffffffffffffffffffffffffffffffff19166020820180517bffffffffffffffffffffffffffffffffffffffffffffffffffffffff838183161783525050505061285f565b505050565b60007f01ffc9a7000000000000000000000000000000000000000000000000000000007bffffffffffffffffffffffffffffffffffffffffffffffffffffffff1916827bffffffffffffffffffffffffffffffffffffffffffffffffffffffff1916149050919050565b6124938282611577565b61250a576124a081612926565b6124ae8360001c6020612953565b6040516020016124bf9291906157cc565b6040516020818303038152906040526040517f08c379a00000000000000000000000000000000000000000000000000000000081526004016125019190615806565b60405180910390fd5b5050565b6125188282611577565b6125ea57600160008084815260200190815260200160002060000160008373ffffffffffffffffffffffffffffffffffffffff1673ffffffffffffffffffffffffffffffffffffffff16815260200190815260200160002060006101000a81548160ff02191690831515021790555061258f6121d8565b73ffffffffffffffffffffffffffffffffffffffff168173ffffffffffffffffffffffffffffffffffffffff16837f2f8788117e7eff1d82e926ec794901d17c78024a50270940304540a733656f0d60405160405180910390a45b5050565b6000612616836000018373ffffffffffffffffffffffffffffffffffffffff1660001b612b8f565b905092915050565b6126288282611577565b156126fb57600080600084815260200190815260200160002060000160008373ffffffffffffffffffffffffffffffffffffffff1673ffffffffffffffffffffffffffffffffffffffff16815260200190815260200160002060006101000a81548160ff0219169083151502179055506126a06121d8565b73ffffffffffffffffffffffffffffffffffffffff168173ffffffffffffffffffffffffffffffffffffffff16837ff6391f5c32d9c69d2a47ea670b442974b53935d1edc7fd64eb21e047a839171b60405160405180910390a45b5050565b6000612727836000018373ffffffffffffffffffffffffffffffffffffffff1660001b612bff565b905092915050565b600082600001828154811061274757612746614535565b5b9060005260206000200154905092915050565b600081600001805490509050919050565b804710156127ae576040517f08c379a00000000000000000000000000000000000000000000000000000000081526004016127a590615874565b60405180910390fd5b60008273ffffffffffffffffffffffffffffffffffffffff16826040516127d4906158c5565b60006040518083038185875af1925050503d8060008114612811576040519150601f19603f3d011682016040523d82523d6000602084013e612816565b606091505b505090508061285a576040517f08c379a00000000000000000000000000000000000000000000000000000000081526004016128519061594c565b60405180910390fd5b505050565b60006128c1826040518060400160405280602081526020017f5361666545524332303a206c6f772d6c6576656c2063616c6c206661696c65648152508573ffffffffffffffffffffffffffffffffffffffff16612d139092919063ffffffff16565b905060008151111561292157808060200190518101906128e19190615998565b612920576040517f08c379a000000000000000000000000000000000000000000000000000000000815260040161291790615a37565b60405180910390fd5b5b505050565b606061294c8273ffffffffffffffffffffffffffffffffffffffff16601460ff16612953565b9050919050565b6060600060028360026129669190615a57565b6129709190615a99565b67ffffffffffffffff81111561298957612988613376565b5b6040519080825280601f01601f1916602001820160405280156129bb5781602001600182028036833780820191505090505b5090507f3000000000000000000000000000000000000000000000000000000000000000816000815181106129f3576129f2614535565b5b60200101907effffffffffffffffffffffffffffffffffffffffffffffffffffffffffffff1916908160001a9053507f780000000000000000000000000000000000000000000000000000000000000081600181518110612a5757612a56614535565b5b60200101907effffffffffffffffffffffffffffffffffffffffffffffffffffffffffffff1916908160001a90535060006001846002612a979190615a57565b612aa19190615a99565b90505b6001811115612b41577f3031323334353637383961626364656600000000000000000000000000000000600f861660108110612ae357612ae2614535565b5b1a60f81b828281518110612afa57612af9614535565b5b60200101907effffffffffffffffffffffffffffffffffffffffffffffffffffffffffffff1916908160001a905350600485901c945080612b3a90615acd565b9050612aa4565b5060008414612b85576040517f08c379a0000000000000000000000000000000000000000000000000000000008152600401612b7c90615b42565b60405180910390fd5b8091505092915050565b6000612b9b8383612d2b565b612bf4578260000182908060018154018082558091505060019003906000526020600020016000909190919091505582600001805490508360010160008481526020019081526020016000208190555060019050612bf9565b600090505b92915050565b60008083600101600084815260200190815260200160002054905060008114612d07576000600182612c319190615b62565b9050600060018660000180549050612c499190615b62565b9050818114612cb8576000866000018281548110612c6a57612c69614535565b5b9060005260206000200154905080876000018481548110612c8e57612c8d614535565b5b90600052602060002001819055508387600101600083815260200190815260200160002081905550505b85600001805480612ccc57612ccb615b96565b5b600190038181906000526020600020016000905590558560010160008681526020019081526020016000206000905560019350505050612d0d565b60009150505b92915050565b6060612d228484600085612d4e565b90509392505050565b600080836001016000848152602001908152602001600020541415905092915050565b606082471015612d93576040517f08c379a0000000000000000000000000000000000000000000000000000000008152600401612d8a90615c37565b60405180910390fd5b6000808673ffffffffffffffffffffffffffffffffffffffff168587604051612dbc9190615c88565b60006040518083038185875af1925050503d8060008114612df9576040519150601f19603f3d011682016040523d82523d6000602084013e612dfe565b606091505b5091509150612e0f87838387612e1b565b92505050949350505050565b60608315612e7d576000835103612e7557612e3585612e90565b612e74576040517f08c379a0000000000000000000000000000000000000000000000000000000008152600401612e6b90615ceb565b60405180910390fd5b5b829050612e88565b612e878383612eb3565b5b949350505050565b6000808273ffffffffffffffffffffffffffffffffffffffff163b119050919050565b600082511115612ec65781518083602001fd5b806040517f08c379a0000000000000000000000000000000000000000000000000000000008152600401612efa9190615806565b60405180910390fd5b6000604051905090565b600080fd5b600080fd5b60007fffffffff0000000000000000000000000000000000000000000000000000000082169050919050565b612f4c81612f17565b8114612f5757600080fd5b50565b600081359050612f6981612f43565b92915050565b600060208284031215612f8557612f84612f0d565b5b6000612f9384828501612f5a565b91505092915050565b60008115159050919050565b612fb181612f9c565b82525050565b6000602082019050612fcc6000830184612fa8565b92915050565b600073ffffffffffffffffffffffffffffffffffffffff82169050919050565b6000819050919050565b600061301761301261300d84612fd2565b612ff2565b612fd2565b9050919050565b600061302982612ffc565b9050919050565b600061303b8261301e565b9050919050565b61304b81613030565b82525050565b60006020820190506130666000830184613042565b92915050565b6000819050919050565b61307f8161306c565b82525050565b600081519050919050565b600082825260208201905092915050565b60005b838110156130bf5780820151818401526020810190506130a4565b60008484015250505050565b6000601f19601f8301169050919050565b60006130e782613085565b6130f18185613090565b93506131018185602086016130a1565b61310a816130cb565b840191505092915050565b600060408201905061312a6000830185613076565b818103602083015261313c81846130dc565b90509392505050565b600060208201905061315a6000830184613076565b92915050565b6000819050919050565b61317381613160565b811461317e57600080fd5b50565b6000813590506131908161316a565b92915050565b6000602082840312156131ac576131ab612f0d565b5b60006131ba84828501613181565b91505092915050565b6131cc81613160565b82525050565b60006020820190506131e760008301846131c3565b92915050565b60006131f882612fd2565b9050919050565b613208816131ed565b811461321357600080fd5b50565b600081359050613225816131ff565b92915050565b6000806040838503121561324257613241612f0d565b5b600061325085828601613181565b925050602061326185828601613216565b9150509250929050565b600080fd5b600080fd5b600080fd5b60008083601f8401126132905761328f61326b565b5b8235905067ffffffffffffffff8111156132ad576132ac613270565b5b6020830191508360018202830111156132c9576132c8613275565b5b9250929050565b600080602083850312156132e7576132e6612f0d565b5b600083013567ffffffffffffffff81111561330557613304612f12565b5b6133118582860161327a565b92509250509250929050565b6133268161306c565b811461333157600080fd5b50565b6000813590506133438161331d565b92915050565b60006020828403121561335f5761335e612f0d565b5b600061336d84828501613334565b91505092915050565b7f4e487b7100000000000000000000000000000000000000000000000000000000600052604160045260246000fd5b6133ae826130cb565b810181811067ffffffffffffffff821117156133cd576133cc613376565b5b80604052505050565b60006133e0612f03565b90506133ec82826133a5565b919050565b600067ffffffffffffffff82111561340c5761340b613376565b5b602082029050602081019050919050565b600080fd5b600067ffffffffffffffff82111561343d5761343c613376565b5b613446826130cb565b9050602081019050919050565b82818337600083830152505050565b600061347561347084613422565b6133d6565b9050828152602081018484840111156134915761349061341d565b5b61349c848285613453565b509392505050565b600082601f8301126134b9576134b861326b565b5b81356134c9848260208601613462565b91505092915050565b60006134e56134e0846133f1565b6133d6565b9050808382526020820190506020840283018581111561350857613507613275565b5b835b8181101561354f57803567ffffffffffffffff81111561352d5761352c61326b565b5b80860161353a89826134a4565b8552602085019450505060208101905061350a565b5050509392505050565b600082601f83011261356e5761356d61326b565b5b813561357e8482602086016134d2565b91505092915050565b60006020828403121561359d5761359c612f0d565b5b600082013567ffffffffffffffff8111156135bb576135ba612f12565b5b6135c784828501613559565b91505092915050565b600080fd5b600080fd5b600067ffffffffffffffff8211156135f5576135f4613376565b5b6135fe826130cb565b9050602081019050919050565b600061361e613619846135da565b6133d6565b90508281526020810184848401111561363a5761363961341d565b5b613645848285613453565b509392505050565b600082601f8301126136625761366161326b565b5b813561367284826020860161360b565b91505092915050565b600060408284031215613691576136906135d0565b5b61369b60406133d6565b905060006136ab84828501613334565b600083015250602082013567ffffffffffffffff8111156136cf576136ce6135d5565b5b6136db8482850161364d565b60208301525092915050565b6000602082840312156136fd576136fc612f0d565b5b600082013567ffffffffffffffff81111561371b5761371a612f12565b5b6137278482850161367b565b91505092915050565b6000806040838503121561374757613746612f0d565b5b600061375585828601613181565b925050602061376685828601613334565b9150509250929050565b613779816131ed565b82525050565b60006020820190506137946000830184613770565b92915050565b600080fd5b6000604082840312156137b5576137b461379a565b5b81905092915050565b6000602082840312156137d4576137d3612f0d565b5b600082013567ffffffffffffffff8111156137f2576137f1612f12565b5b6137fe8482850161379f565b91505092915050565b6000806040838503121561381e5761381d612f0d565b5b600061382c85828601613181565b925050602083013567ffffffffffffffff81111561384d5761384c612f12565b5b6138598582860161379f565b9150509250929050565b600061386e82612fd2565b9050919050565b61387e81613863565b811461388957600080fd5b50565b60008135905061389b81613875565b92915050565b600080604083850312156138b8576138b7612f0d565b5b60006138c685828601613216565b92505060206138d78582860161388c565b9150509250929050565b60006138ec82612ffc565b9050919050565b60006138fe826138e1565b9050919050565b61390e816138f3565b82525050565b60006020820190506139296000830184613905565b92915050565b600061393a826138e1565b9050919050565b61394a8161392f565b82525050565b60006020820190506139656000830184613941565b92915050565b7f4e487b7100000000000000000000000000000000000000000000000000000000600052602260045260246000fd5b600060028204905060018216806139b257607f821691505b6020821081036139c5576139c461396b565b5b50919050565b7f416363657373436f6e74726f6c3a2063616e206f6e6c792072656e6f756e636560008201527f20726f6c657320666f722073656c660000000000000000000000000000000000602082015250565b6000613a27602f83613090565b9150613a32826139cb565b604082019050919050565b60006020820190508181036000830152613a5681613a1a565b9050919050565b7f496e697469616c697a61626c653a20636f6e747261637420697320616c72656160008201527f647920696e697469616c697a6564000000000000000000000000000000000000602082015250565b6000613ab9602e83613090565b9150613ac482613a5d565b604082019050919050565b60006020820190508181036000830152613ae881613aac565b9050919050565b6000613afa826131ed565b9050919050565b613b0a81613aef565b8114613b1557600080fd5b50565b600081359050613b2781613b01565b92915050565b6000613b3882613863565b9050919050565b613b4881613b2d565b8114613b5357600080fd5b50565b600081359050613b6581613b3f565b92915050565b6000613b76826131ed565b9050919050565b613b8681613b6b565b8114613b9157600080fd5b50565b600081359050613ba381613b7d565b92915050565b600067ffffffffffffffff821115613bc457613bc3613376565b5b602082029050602081019050919050565b6000613be8613be384613ba9565b6133d6565b90508083825260208201905060208402830185811115613c0b57613c0a613275565b5b835b81811015613c345780613c208882613216565b845260208401935050602081019050613c0d565b5050509392505050565b600082601f830112613c5357613c5261326b565b5b8135613c63848260208601613bd5565b91505092915050565b60008060008060008060008060008060006101608c8e031215613c9257613c91612f0d565b5b6000613ca08e828f01613b18565b9b50506020613cb18e828f01613b56565b9a50506040613cc28e828f01613334565b9950506060613cd38e828f01613334565b9850506080613ce48e828f01613334565b97505060a0613cf58e828f01613334565b96505060c0613d068e828f01613b94565b95505060e08c013567ffffffffffffffff811115613d2757613d26612f12565b5b613d338e828f0161367b565b9450506101008c013567ffffffffffffffff811115613d5557613d54612f12565b5b613d618e828f0161367b565b9350506101208c013567ffffffffffffffff811115613d8357613d82612f12565b5b613d8f8e828f01613c3e565b9250506101408c013567ffffffffffffffff811115613db157613db0612f12565b5b613dbd8e828f01613c3e565b9150509295989b509295989b9093969950565b7f696e697469616c697a653a206170706c69636174696f6e73207374617274207460008201527f696d652068617320616c72656164792070617373656400000000000000000000602082015250565b6000613e2c603683613090565b9150613e3782613dd0565b604082019050919050565b60006020820190508181036000830152613e5b81613e1f565b9050919050565b7f696e697469616c697a653a206170706c69636174696f6e20656e642074696d6560008201527f2073686f756c64206265206166746572206170706c69636174696f6e2073746160208201527f72742074696d6500000000000000000000000000000000000000000000000000604082015250565b6000613ee4604783613090565b9150613eef82613e62565b606082019050919050565b60006020820190508181036000830152613f1381613ed7565b9050919050565b7f696e697469616c697a653a206170706c69636174696f6e20656e642074696d6560008201527f2073686f756c64206265206265666f726520726f756e6420656e642074696d65602082015250565b6000613f76604083613090565b9150613f8182613f1a565b604082019050919050565b60006020820190508181036000830152613fa581613f69565b9050919050565b7f696e697469616c697a653a20656e642074696d652073686f756c64206265206160008201527f667465722073746172742074696d650000000000000000000000000000000000602082015250565b6000614008602f83613090565b915061401382613fac565b604082019050919050565b6000602082019050818103600083015261403781613ffb565b9050919050565b7f696e697469616c697a653a20726f756e642073746172742074696d652073686f60008201527f756c64206265206166746572206170706c69636174696f6e207374617274207460208201527f696d650000000000000000000000000000000000000000000000000000000000604082015250565b60006140c0604383613090565b91506140cb8261403e565b606082019050919050565b600060208201905081810360008301526140ef816140b3565b9050919050565b60008160001c9050919050565b6000819050919050565b600061412061411b836140f6565b614103565b9050919050565b6141308161306c565b82525050565b600082825260208201905092915050565b60008190508160005260206000209050919050565b600081546141698161399a565b6141738186614136565b9450600182166000811461418e57600181146141a4576141d7565b60ff1983168652811515602002860193506141d7565b6141ad85614147565b60005b838110156141cf578154818901526001820191506020810190506141b0565b808801955050505b50505092915050565b60006040830160008084015490506141f78161410d565b6142046000870182614127565b5060018401858303602087015261421b838261415c565b925050819250505092915050565b600061423482613085565b61423e8185614136565b935061424e8185602086016130a1565b614257816130cb565b840191505092915050565b600060408301600083015161427a6000860182614127565b50602083015184820360208601526142928282614229565b9150508091505092915050565b600060408201905081810360008301526142b981856141e0565b905081810360208301526142cd8184614262565b90509392505050565b60006020601f8301049050919050565b600082821b905092915050565b6000600883026143237fffffffffffffffffffffffffffffffffffffffffffffffffffffffffffffffff826142e6565b61432d86836142e6565b95508019841693508086168417925050509392505050565b600061436061435b6143568461306c565b612ff2565b61306c565b9050919050565b6000819050919050565b61437a83614345565b61438e61438682614367565b8484546142f3565b825550505050565b600090565b6143a3614396565b6143ae818484614371565b505050565b5b818110156143d2576143c760008261439b565b6001810190506143b4565b5050565b601f821115614417576143e881614147565b6143f1846142d6565b81016020851015614400578190505b61441461440c856142d6565b8301826143b3565b50505b505050565b600082821c905092915050565b600061443a6000198460080261441c565b1980831691505092915050565b60006144538383614429565b9150826002028217905092915050565b61446c82613085565b67ffffffffffffffff81111561448557614484613376565b5b61448f825461399a565b61449a8282856143d6565b600060209050601f8311600181146144cd57600084156144bb578287015190505b6144c58582614447565b86555061452d565b601f1984166144db86614147565b60005b82811015614503578489015182556001820191506020850194506020810190506144de565b86831015614520578489015161451c601f891682614429565b8355505b6001600288020188555050505b505050505050565b7f4e487b7100000000000000000000000000000000000000000000000000000000600052603260045260246000fd5b7f4e487b7100000000000000000000000000000000000000000000000000000000600052601160045260246000fd5b600061459e8261306c565b91507fffffffffffffffffffffffffffffffffffffffffffffffffffffffffffffffff82036145d0576145cf614564565b5b600182019050919050565b6000819050919050565b600060ff82169050919050565b600061460d614608614603846145db565b612ff2565b6145e5565b9050919050565b61461d816145f2565b82525050565b60006020820190506146386000830184614614565b92915050565b7f6572726f723a20726f756e642068617320656e64656400000000000000000000600082015250565b6000614674601683613090565b915061467f8261463e565b602082019050919050565b600060208201905081810360008301526146a381614667565b9050919050565b7f7570646174654170706c69636174696f6e73537461727454696d653a2061707060008201527f6c69636174696f6e2073746172742074696d652068617320616c72656164792060208201527f7061737365640000000000000000000000000000000000000000000000000000604082015250565b600061472c604683613090565b9150614737826146aa565b606082019050919050565b6000602082019050818103600083015261475b8161471f565b9050919050565b7f7570646174654170706c69636174696f6e73537461727454696d653a2073686f60008201527f756c64206265206265666f726520726f756e642073746172742074696d650000602082015250565b60006147be603e83613090565b91506147c982614762565b604082019050919050565b600060208201905081810360008301526147ed816147b1565b9050919050565b7f7570646174654170706c69636174696f6e73537461727454696d653a2073686f60008201527f756c64206265206265666f7265206170706c69636174696f6e20656e6420746960208201527f6d65000000000000000000000000000000000000000000000000000000000000604082015250565b6000614876604283613090565b9150614881826147f4565b606082019050919050565b600060208201905081810360008301526148a581614869565b9050919050565b60006040820190506148c16000830185613076565b6148ce6020830184613076565b9392505050565b7f526f756e643a204c6573736572207468616e2063757272656e74206d6174636860008201527f20616d6f756e7400000000000000000000000000000000000000000000000000602082015250565b6000614931602783613090565b915061493c826148d5565b604082019050919050565b6000602082019050818103600083015261496081614924565b9050919050565b7f766f74653a20726f756e64206973206e6f742061637469766500000000000000600082015250565b600061499d601983613090565b91506149a882614967565b602082019050919050565b600060208201905081810360008301526149cc81614990565b9050919050565b600081519050919050565b600082825260208201905092915050565b6000819050602082019050919050565b600081519050919050565b600082825260208201905092915050565b6000614a26826149ff565b614a308185614a0a565b9350614a408185602086016130a1565b614a49816130cb565b840191505092915050565b6000614a608383614a1b565b905092915050565b6000602082019050919050565b6000614a80826149d3565b614a8a81856149de565b935083602082028501614a9c856149ef565b8060005b85811015614ad85784840389528151614ab98582614a54565b9450614ac483614a68565b925060208a01995050600181019050614aa0565b50829750879550505050505092915050565b60006040820190508181036000830152614b048185614a75565b9050614b136020830184613770565b9392505050565b6000614b296020840184613334565b905092915050565b600080fd5b600080fd5b600080fd5b60008083356001602003843603038112614b5d57614b5c614b3b565b5b83810192508235915060208301925067ffffffffffffffff821115614b8557614b84614b31565b5b600182023603831315614b9b57614b9a614b36565b5b509250929050565b6000614baf8385614136565b9350614bbc838584613453565b614bc5836130cb565b840190509392505050565b600060408301614be36000840184614b1a565b614bf06000860182614127565b50614bfe6020840184614b40565b8583036020870152614c11838284614ba3565b925050508091505092915050565b60006040820190508181036000830152614c3981856141e0565b90508181036020830152614c4d8184614bd0565b90509392505050565b60008135614c638161331d565b80915050919050565b60008160001b9050919050565b60007fffffffffffffffffffffffffffffffffffffffffffffffffffffffffffffffff614ca584614c6c565b9350801983169250808416831791505092915050565b614cc482614345565b614cd7614cd082614367565b8354614c79565b8255505050565b600080fd5b600080fd5b600080fd5b60008083356001602003843603038112614d0a57614d09614cde565b5b80840192508235915067ffffffffffffffff821115614d2c57614d2b614ce3565b5b602083019250600182023603831315614d4857614d47614ce8565b5b509250929050565b600082905092915050565b614d658383614d50565b67ffffffffffffffff811115614d7e57614d7d613376565b5b614d88825461399a565b614d938282856143d6565b6000601f831160018114614dc25760008415614db0578287013590505b614dba8582614447565b865550614e22565b601f198416614dd086614147565b60005b82811015614df857848901358255600182019150602085019450602081019050614dd3565b86831015614e155784890135614e11601f891682614429565b8355505b6001600288020188555050505b50505050505050565b614e36838383614d5b565b505050565b600081016000830180614e4d81614c56565b9050614e598184614cbb565b5050506001810160208301614e6e8185614ced565b614e79818386614e2b565b505050505050565b614e8b8282614e3b565b5050565b7f757064617465526f756e64456e6454696d653a20656e642074696d652068617360008201527f20616c7265616479207061737365640000000000000000000000000000000000602082015250565b6000614eeb602f83613090565b9150614ef682614e8f565b604082019050919050565b60006020820190508181036000830152614f1a81614ede565b9050919050565b7f757064617465526f756e64456e6454696d653a20656e642074696d652073686f60008201527f756c642062652061667465722073746172742074696d65000000000000000000602082015250565b6000614f7d603783613090565b9150614f8882614f21565b604082019050919050565b60006020820190508181036000830152614fac81614f70565b9050919050565b7f757064617465526f756e64456e6454696d653a20656e642074696d652073686f60008201527f756c64206265206166746572206170706c69636174696f6e20656e642074696d60208201527f6500000000000000000000000000000000000000000000000000000000000000604082015250565b6000615035604183613090565b915061504082614fb3565b606082019050919050565b6000602082019050818103600083015261506481615028565b9050919050565b7f757064617465526f756e64537461727454696d653a2073746172742074696d6560008201527f2068617320616c72656164792070617373656400000000000000000000000000602082015250565b60006150c7603383613090565b91506150d28261506b565b604082019050919050565b600060208201905081810360008301526150f6816150ba565b9050919050565b7f757064617465526f756e64537461727454696d653a2073746172742074696d6560008201527f2073686f756c64206265206166746572206170706c69636174696f6e2073746160208201527f72742074696d6500000000000000000000000000000000000000000000000000604082015250565b600061517f604783613090565b915061518a826150fd565b606082019050919050565b600060208201905081810360008301526151ae81615172565b9050919050565b7f757064617465526f756e64537461727454696d653a2073746172742074696d6560008201527f2073686f756c64206265206265666f726520726f756e6420656e642074696d65602082015250565b6000615211604083613090565b915061521c826151b5565b604082019050919050565b6000602082019050818103600083015261524081615204565b9050919050565b7f6170706c79546f526f756e643a20726f756e64206973206e6f7420616363657060008201527f74696e67206170706c69636174696f6e00000000000000000000000000000000602082015250565b60006152a3603083613090565b91506152ae82615247565b604082019050919050565b600060208201905081810360008301526152d281615296565b9050919050565b600060208201905081810360008301526152f38184614bd0565b905092915050565b7f7570646174654170706c69636174696f6e73456e6454696d653a206170706c6960008201527f636174696f6e20656e642074696d652068617320616c7265616479207061737360208201527f6564000000000000000000000000000000000000000000000000000000000000604082015250565b600061537d604283613090565b9150615388826152fb565b606082019050919050565b600060208201905081810360008301526153ac81615370565b9050919050565b7f7570646174654170706c69636174696f6e73456e6454696d653a206170706c6960008201527f636174696f6e20656e642074696d652073686f756c642062652061667465722060208201527f6170706c69636174696f6e2073746172742074696d6500000000000000000000604082015250565b6000615435605683613090565b9150615440826153b3565b606082019050919050565b6000602082019050818103600083015261546481615428565b9050919050565b7f7570646174654170706c69636174696f6e73456e6454696d653a2073686f756c60008201527f64206265206265666f726520726f756e6420656e642074696d65000000000000602082015250565b60006154c7603a83613090565b91506154d28261546b565b604082019050919050565b600060208201905081810360008301526154f6816154ba565b9050919050565b7f526f756e643a2043616e6e6f7420776974686472617720726f756e6420746f6b60008201527f656e000000000000000000000000000000000000000000000000000000000000602082015250565b6000615559602283613090565b9150615564826154fd565b604082019050919050565b600060208201905081810360008301526155888161554c565b9050919050565b7f726f756e6420686173206e6f7420656e64656400000000000000000000000000600082015250565b60006155c5601383613090565b91506155d08261558f565b602082019050919050565b600060208201905081810360008301526155f4816155b8565b9050919050565b7f526f756e643a204e6f7420656e6f7567682066756e647320696e20636f6e747260008201527f6163740000000000000000000000000000000000000000000000000000000000602082015250565b6000615657602383613090565b9150615662826155fb565b604082019050919050565b600060208201905081810360008301526156868161564a565b9050919050565b60008151905061569c8161331d565b92915050565b6000602082840312156156b8576156b7612f0d565b5b60006156c68482850161568d565b91505092915050565b60006040820190506156e46000830185613770565b6156f16020830184613076565b9392505050565b600081905092915050565b7f416363657373436f6e74726f6c3a206163636f756e7420000000000000000000600082015250565b60006157396017836156f8565b915061574482615703565b601782019050919050565b600061575a82613085565b61576481856156f8565b93506157748185602086016130a1565b80840191505092915050565b7f206973206d697373696e6720726f6c6520000000000000000000000000000000600082015250565b60006157b66011836156f8565b91506157c182615780565b601182019050919050565b60006157d78261572c565b91506157e3828561574f565b91506157ee826157a9565b91506157fa828461574f565b91508190509392505050565b6000602082019050818103600083015261582081846130dc565b905092915050565b7f416464726573733a20696e73756666696369656e742062616c616e6365000000600082015250565b600061585e601d83613090565b915061586982615828565b602082019050919050565b6000602082019050818103600083015261588d81615851565b9050919050565b600081905092915050565b50565b60006158af600083615894565b91506158ba8261589f565b600082019050919050565b60006158d0826158a2565b9150819050919050565b7f416464726573733a20756e61626c6520746f2073656e642076616c75652c207260008201527f6563697069656e74206d61792068617665207265766572746564000000000000602082015250565b6000615936603a83613090565b9150615941826158da565b604082019050919050565b6000602082019050818103600083015261596581615929565b9050919050565b61597581612f9c565b811461598057600080fd5b50565b6000815190506159928161596c565b92915050565b6000602082840312156159ae576159ad612f0d565b5b60006159bc84828501615983565b91505092915050565b7f5361666545524332303a204552433230206f7065726174696f6e20646964206e60008201527f6f74207375636365656400000000000000000000000000000000000000000000602082015250565b6000615a21602a83613090565b9150615a2c826159c5565b604082019050919050565b60006020820190508181036000830152615a5081615a14565b9050919050565b6000615a628261306c565b9150615a6d8361306c565b9250828202615a7b8161306c565b91508282048414831517615a9257615a91614564565b5b5092915050565b6000615aa48261306c565b9150615aaf8361306c565b9250828201905080821115615ac757615ac6614564565b5b92915050565b6000615ad88261306c565b915060008203615aeb57615aea614564565b5b600182039050919050565b7f537472696e67733a20686578206c656e67746820696e73756666696369656e74600082015250565b6000615b2c602083613090565b9150615b3782615af6565b602082019050919050565b60006020820190508181036000830152615b5b81615b1f565b9050919050565b6000615b6d8261306c565b9150615b788361306c565b9250828203905081811115615b9057615b8f614564565b5b92915050565b7f4e487b7100000000000000000000000000000000000000000000000000000000600052603160045260246000fd5b7f416464726573733a20696e73756666696369656e742062616c616e636520666f60008201527f722063616c6c0000000000000000000000000000000000000000000000000000602082015250565b6000615c21602683613090565b9150615c2c82615bc5565b604082019050919050565b60006020820190508181036000830152615c5081615c14565b9050919050565b6000615c62826149ff565b615c6c8185615894565b9350615c7c8185602086016130a1565b80840191505092915050565b6000615c948284615c57565b915081905092915050565b7f416464726573733a2063616c6c20746f206e6f6e2d636f6e7472616374000000600082015250565b6000615cd5601d83613090565b9150615ce082615c9f565b602082019050919050565b60006020820190508181036000830152615d0481615cc8565b905091905056fea264697066735822122096529623959f0ec522786f08d43599a40d7718a03ccb8e753b8dcf4720882d2e64736f6c63430008110033",
  "linkReferences": {},
  "deployedLinkReferences": {}
}