{
  "_format": "hh-sol-artifact-1",
  "contractName": "RoundFactory",
  "sourceName": "contracts/round/RoundFactory.sol",
  "abi": [
    {
      "anonymous": false,
      "inputs": [
        {
          "indexed": false,
          "internalType": "uint8",
          "name": "version",
          "type": "uint8"
        }
      ],
      "name": "Initialized",
      "type": "event"
    },
    {
      "anonymous": false,
      "inputs": [
        {
          "indexed": true,
          "internalType": "address",
          "name": "previousOwner",
          "type": "address"
        },
        {
          "indexed": true,
          "internalType": "address",
          "name": "newOwner",
          "type": "address"
        }
      ],
      "name": "OwnershipTransferred",
      "type": "event"
    },
    {
      "anonymous": false,
      "inputs": [
        {
          "indexed": false,
          "internalType": "address",
          "name": "roundAddress",
          "type": "address"
        }
      ],
      "name": "RoundContractUpdated",
      "type": "event"
    },
    {
      "anonymous": false,
      "inputs": [
        {
          "indexed": true,
          "internalType": "address",
          "name": "roundAddress",
          "type": "address"
        },
        {
          "indexed": true,
          "internalType": "address",
          "name": "ownedBy",
          "type": "address"
        },
        {
          "indexed": true,
          "internalType": "address",
          "name": "roundImplementation",
          "type": "address"
        }
      ],
      "name": "RoundCreated",
      "type": "event"
    },
    {
      "inputs": [
        {
          "internalType": "bytes",
          "name": "encodedParameters",
          "type": "bytes"
        },
        {
          "internalType": "address",
          "name": "ownedBy",
          "type": "address"
        }
      ],
      "name": "create",
      "outputs": [
        {
          "internalType": "address",
          "name": "",
          "type": "address"
        }
      ],
      "stateMutability": "nonpayable",
      "type": "function"
    },
    {
      "inputs": [],
      "name": "initialize",
      "outputs": [],
      "stateMutability": "nonpayable",
      "type": "function"
    },
    {
      "inputs": [],
      "name": "owner",
      "outputs": [
        {
          "internalType": "address",
          "name": "",
          "type": "address"
        }
      ],
      "stateMutability": "view",
      "type": "function"
    },
    {
      "inputs": [],
      "name": "renounceOwnership",
      "outputs": [],
      "stateMutability": "nonpayable",
      "type": "function"
    },
    {
      "inputs": [],
      "name": "roundContract",
      "outputs": [
        {
          "internalType": "address payable",
          "name": "",
          "type": "address"
        }
      ],
      "stateMutability": "view",
      "type": "function"
    },
    {
      "inputs": [
        {
          "internalType": "address",
          "name": "newOwner",
          "type": "address"
        }
      ],
      "name": "transferOwnership",
      "outputs": [],
      "stateMutability": "nonpayable",
      "type": "function"
    },
    {
      "inputs": [
        {
          "internalType": "address payable",
          "name": "newRoundContract",
          "type": "address"
        }
      ],
      "name": "updateRoundContract",
      "outputs": [],
      "stateMutability": "nonpayable",
      "type": "function"
    }
  ],
  "bytecode": "0x608060405234801561001057600080fd5b50610e4d806100206000396000f3fe608060405234801561001057600080fd5b506004361061007d5760003560e01c80638129fc1c1161005b5780638129fc1c146100c65780638da5cb5b146100d0578063bc31bca9146100ee578063f2fde38b1461011e5761007d565b806313d6401514610082578063715018a61461009e57806378eede46146100a8575b600080fd5b61009c60048036038101906100979190610868565b61013a565b005b6100a66101bd565b005b6100b06101d1565b6040516100bd91906108a4565b60405180910390f35b6100ce6101f7565b005b6100d861033d565b6040516100e591906108e0565b60405180910390f35b6101086004803603810190610103919061098c565b610367565b60405161011591906108e0565b60405180910390f35b610138600480360381019061013391906109ec565b6104a2565b005b610142610525565b80606560006101000a81548173ffffffffffffffffffffffffffffffffffffffff021916908373ffffffffffffffffffffffffffffffffffffffff1602179055507fe5d6c4da193b9a38fb9ebf8d99c1bca19285b9cecc386f6f01c92f225d0fa253816040516101b29190610a78565b60405180910390a150565b6101c5610525565b6101cf60006105a3565b565b606560009054906101000a900473ffffffffffffffffffffffffffffffffffffffff1681565b60008060019054906101000a900460ff161590508080156102285750600160008054906101000a900460ff1660ff16105b80610255575061023730610669565b1580156102545750600160008054906101000a900460ff1660ff16145b5b610294576040517f08c379a000000000000000000000000000000000000000000000000000000000815260040161028b90610b16565b60405180910390fd5b60016000806101000a81548160ff021916908360ff16021790555080156102d1576001600060016101000a81548160ff0219169083151502179055505b6102d961068c565b6102e16106dd565b801561033a5760008060016101000a81548160ff0219169083151502179055507f7f26b83ff96e1f2b6a682f133852f6798a09c465da95921460cefb384740249860016040516103319190610b7e565b60405180910390a15b50565b6000603360009054906101000a900473ffffffffffffffffffffffffffffffffffffffff16905090565b600080610395606560009054906101000a900473ffffffffffffffffffffffffffffffffffffffff1661073e565b9050606560009054906101000a900473ffffffffffffffffffffffffffffffffffffffff1673ffffffffffffffffffffffffffffffffffffffff168373ffffffffffffffffffffffffffffffffffffffff168273ffffffffffffffffffffffffffffffffffffffff167f9ea0518c708ef5dfce96e410b66495be1d381b18199887003dd508e0cc19dc7760405160405180910390a48073ffffffffffffffffffffffffffffffffffffffff1663439fab9186866040518363ffffffff1660e01b8152600401610465929190610bf7565b600060405180830381600087803b15801561047f57600080fd5b505af1158015610493573d6000803e3d6000fd5b50505050809150509392505050565b6104aa610525565b600073ffffffffffffffffffffffffffffffffffffffff168173ffffffffffffffffffffffffffffffffffffffff1603610519576040517f08c379a000000000000000000000000000000000000000000000000000000000815260040161051090610c8d565b60405180910390fd5b610522816105a3565b50565b61052d6107f8565b73ffffffffffffffffffffffffffffffffffffffff1661054b61033d565b73ffffffffffffffffffffffffffffffffffffffff16146105a1576040517f08c379a000000000000000000000000000000000000000000000000000000000815260040161059890610cf9565b60405180910390fd5b565b6000603360009054906101000a900473ffffffffffffffffffffffffffffffffffffffff16905081603360006101000a81548173ffffffffffffffffffffffffffffffffffffffff021916908373ffffffffffffffffffffffffffffffffffffffff1602179055508173ffffffffffffffffffffffffffffffffffffffff168173ffffffffffffffffffffffffffffffffffffffff167f8be0079c531659141344cd1fd0a4f28419497f9722a3daafe3b4186f6b6457e060405160405180910390a35050565b6000808273ffffffffffffffffffffffffffffffffffffffff163b119050919050565b600060019054906101000a900460ff166106db576040517f08c379a00000000000000000000000000000000000000000000000000000000081526004016106d290610d8b565b60405180910390fd5b565b600060019054906101000a900460ff1661072c576040517f08c379a000000000000000000000000000000000000000000000000000000000815260040161072390610d8b565b60405180910390fd5b61073c6107376107f8565b6105a3565b565b6000763d602d80600a3d3981f3363d3d373d3d3d363d730000008260601b60e81c176000526e5af43d82803e903d91602b57fd5bf38260781b17602052603760096000f09050600073ffffffffffffffffffffffffffffffffffffffff168173ffffffffffffffffffffffffffffffffffffffff16036107f3576040517f08c379a00000000000000000000000000000000000000000000000000000000081526004016107ea90610df7565b60405180910390fd5b919050565b600033905090565b600080fd5b600080fd5b600073ffffffffffffffffffffffffffffffffffffffff82169050919050565b60006108358261080a565b9050919050565b6108458161082a565b811461085057600080fd5b50565b6000813590506108628161083c565b92915050565b60006020828403121561087e5761087d610800565b5b600061088c84828501610853565b91505092915050565b61089e8161082a565b82525050565b60006020820190506108b96000830184610895565b92915050565b60006108ca8261080a565b9050919050565b6108da816108bf565b82525050565b60006020820190506108f560008301846108d1565b92915050565b600080fd5b600080fd5b600080fd5b60008083601f8401126109205761091f6108fb565b5b8235905067ffffffffffffffff81111561093d5761093c610900565b5b60208301915083600182028301111561095957610958610905565b5b9250929050565b610969816108bf565b811461097457600080fd5b50565b60008135905061098681610960565b92915050565b6000806000604084860312156109a5576109a4610800565b5b600084013567ffffffffffffffff8111156109c3576109c2610805565b5b6109cf8682870161090a565b935093505060206109e286828701610977565b9150509250925092565b600060208284031215610a0257610a01610800565b5b6000610a1084828501610977565b91505092915050565b6000819050919050565b6000610a3e610a39610a348461080a565b610a19565b61080a565b9050919050565b6000610a5082610a23565b9050919050565b6000610a6282610a45565b9050919050565b610a7281610a57565b82525050565b6000602082019050610a8d6000830184610a69565b92915050565b600082825260208201905092915050565b7f496e697469616c697a61626c653a20636f6e747261637420697320616c72656160008201527f647920696e697469616c697a6564000000000000000000000000000000000000602082015250565b6000610b00602e83610a93565b9150610b0b82610aa4565b604082019050919050565b60006020820190508181036000830152610b2f81610af3565b9050919050565b6000819050919050565b600060ff82169050919050565b6000610b68610b63610b5e84610b36565b610a19565b610b40565b9050919050565b610b7881610b4d565b82525050565b6000602082019050610b936000830184610b6f565b92915050565b600082825260208201905092915050565b82818337600083830152505050565b6000601f19601f8301169050919050565b6000610bd68385610b99565b9350610be3838584610baa565b610bec83610bb9565b840190509392505050565b60006020820190508181036000830152610c12818486610bca565b90509392505050565b7f4f776e61626c653a206e6577206f776e657220697320746865207a65726f206160008201527f6464726573730000000000000000000000000000000000000000000000000000602082015250565b6000610c77602683610a93565b9150610c8282610c1b565b604082019050919050565b60006020820190508181036000830152610ca681610c6a565b9050919050565b7f4f776e61626c653a2063616c6c6572206973206e6f7420746865206f776e6572600082015250565b6000610ce3602083610a93565b9150610cee82610cad565b602082019050919050565b60006020820190508181036000830152610d1281610cd6565b9050919050565b7f496e697469616c697a61626c653a20636f6e7472616374206973206e6f74206960008201527f6e697469616c697a696e67000000000000000000000000000000000000000000602082015250565b6000610d75602b83610a93565b9150610d8082610d19565b604082019050919050565b60006020820190508181036000830152610da481610d68565b9050919050565b7f455243313136373a20637265617465206661696c656400000000000000000000600082015250565b6000610de1601683610a93565b9150610dec82610dab565b602082019050919050565b60006020820190508181036000830152610e1081610dd4565b905091905056fea26469706673582212209c0390ca11b76192d442d9787f82a63806d61d90517b035e5f05518673b84bae64736f6c63430008110033",
  "linkReferences": {},
  "deployedLinkReferences": {}
}