{
  "_format": "hh-sol-artifact-1",
  "contractName": "RoundImplementation",
  "sourceName": "contracts/round/RoundImplementation.sol",
  "abi": [
    {
      "anonymous": false,
      "inputs": [
        {
          "components": [
            {
              "internalType": "uint256",
              "name": "protocol",
              "type": "uint256"
            },
            {
              "internalType": "string",
              "name": "pointer",
              "type": "string"
            }
          ],
          "indexed": false,
          "internalType": "struct MetaPtr",
          "name": "oldMetaPtr",
          "type": "tuple"
        },
        {
          "components": [
            {
              "internalType": "uint256",
              "name": "protocol",
              "type": "uint256"
            },
            {
              "internalType": "string",
              "name": "pointer",
              "type": "string"
            }
          ],
          "indexed": false,
          "internalType": "struct MetaPtr",
          "name": "newMetaPtr",
          "type": "tuple"
        }
      ],
      "name": "ApplicationMetaPtrUpdated",
      "type": "event"
    },
    {
      "anonymous": false,
      "inputs": [
        {
          "indexed": false,
          "internalType": "uint256",
          "name": "oldTime",
          "type": "uint256"
        },
        {
          "indexed": false,
          "internalType": "uint256",
          "name": "newTime",
          "type": "uint256"
        }
      ],
      "name": "ApplicationsEndTimeUpdated",
      "type": "event"
    },
    {
      "anonymous": false,
      "inputs": [
        {
          "indexed": false,
          "internalType": "uint256",
          "name": "oldTime",
          "type": "uint256"
        },
        {
          "indexed": false,
          "internalType": "uint256",
          "name": "newTime",
          "type": "uint256"
        }
      ],
      "name": "ApplicationsStartTimeUpdated",
      "type": "event"
    },
    {
      "anonymous": false,
      "inputs": [
        {
          "indexed": false,
          "internalType": "uint256",
          "name": "matchAmount",
          "type": "uint256"
        }
      ],
      "name": "EscrowFundsToPayoutContract",
      "type": "event"
    },
    {
      "anonymous": false,
      "inputs": [
        {
          "indexed": false,
          "internalType": "uint8",
          "name": "version",
          "type": "uint8"
        }
      ],
      "name": "Initialized",
      "type": "event"
    },
    {
      "anonymous": false,
      "inputs": [
        {
          "indexed": false,
          "internalType": "uint256",
          "name": "newAmount",
          "type": "uint256"
        }
      ],
      "name": "MatchAmountUpdated",
      "type": "event"
    },
    {
      "anonymous": false,
      "inputs": [
        {
          "indexed": true,
          "internalType": "bytes32",
          "name": "project",
          "type": "bytes32"
        },
        {
          "components": [
            {
              "internalType": "uint256",
              "name": "protocol",
              "type": "uint256"
            },
            {
              "internalType": "string",
              "name": "pointer",
              "type": "string"
            }
          ],
          "indexed": false,
          "internalType": "struct MetaPtr",
          "name": "applicationMetaPtr",
          "type": "tuple"
        }
      ],
      "name": "NewProjectApplication",
      "type": "event"
    },
    {
      "anonymous": false,
      "inputs": [
        {
          "components": [
            {
              "internalType": "uint256",
              "name": "protocol",
              "type": "uint256"
            },
            {
              "internalType": "string",
              "name": "pointer",
              "type": "string"
            }
          ],
          "indexed": false,
          "internalType": "struct MetaPtr",
          "name": "oldMetaPtr",
          "type": "tuple"
        },
        {
          "components": [
            {
              "internalType": "uint256",
              "name": "protocol",
              "type": "uint256"
            },
            {
              "internalType": "string",
              "name": "pointer",
              "type": "string"
            }
          ],
          "indexed": false,
          "internalType": "struct MetaPtr",
          "name": "newMetaPtr",
          "type": "tuple"
        }
      ],
      "name": "ProjectsMetaPtrUpdated",
      "type": "event"
    },
    {
      "anonymous": false,
      "inputs": [
        {
          "indexed": true,
          "internalType": "bytes32",
          "name": "role",
          "type": "bytes32"
        },
        {
          "indexed": true,
          "internalType": "bytes32",
          "name": "previousAdminRole",
          "type": "bytes32"
        },
        {
          "indexed": true,
          "internalType": "bytes32",
          "name": "newAdminRole",
          "type": "bytes32"
        }
      ],
      "name": "RoleAdminChanged",
      "type": "event"
    },
    {
      "anonymous": false,
      "inputs": [
        {
          "indexed": true,
          "internalType": "bytes32",
          "name": "role",
          "type": "bytes32"
        },
        {
          "indexed": true,
          "internalType": "address",
          "name": "account",
          "type": "address"
        },
        {
          "indexed": true,
          "internalType": "address",
          "name": "sender",
          "type": "address"
        }
      ],
      "name": "RoleGranted",
      "type": "event"
    },
    {
      "anonymous": false,
      "inputs": [
        {
          "indexed": true,
          "internalType": "bytes32",
          "name": "role",
          "type": "bytes32"
        },
        {
          "indexed": true,
          "internalType": "address",
          "name": "account",
          "type": "address"
        },
        {
          "indexed": true,
          "internalType": "address",
          "name": "sender",
          "type": "address"
        }
      ],
      "name": "RoleRevoked",
      "type": "event"
    },
    {
      "anonymous": false,
      "inputs": [
        {
          "indexed": false,
          "internalType": "uint256",
          "name": "oldTime",
          "type": "uint256"
        },
        {
          "indexed": false,
          "internalType": "uint256",
          "name": "newTime",
          "type": "uint256"
        }
      ],
      "name": "RoundEndTimeUpdated",
      "type": "event"
    },
    {
      "anonymous": false,
      "inputs": [
        {
          "components": [
            {
              "internalType": "uint256",
              "name": "protocol",
              "type": "uint256"
            },
            {
              "internalType": "string",
              "name": "pointer",
              "type": "string"
            }
          ],
          "indexed": false,
          "internalType": "struct MetaPtr",
          "name": "oldMetaPtr",
          "type": "tuple"
        },
        {
          "components": [
            {
              "internalType": "uint256",
              "name": "protocol",
              "type": "uint256"
            },
            {
              "internalType": "string",
              "name": "pointer",
              "type": "string"
            }
          ],
          "indexed": false,
          "internalType": "struct MetaPtr",
          "name": "newMetaPtr",
          "type": "tuple"
        }
      ],
      "name": "RoundMetaPtrUpdated",
      "type": "event"
    },
    {
      "anonymous": false,
      "inputs": [
        {
          "indexed": false,
          "internalType": "uint256",
          "name": "oldTime",
          "type": "uint256"
        },
        {
          "indexed": false,
          "internalType": "uint256",
          "name": "newTime",
          "type": "uint256"
        }
      ],
      "name": "RoundStartTimeUpdated",
      "type": "event"
    },
    {
      "inputs": [],
      "name": "DEFAULT_ADMIN_ROLE",
      "outputs": [
        {
          "internalType": "bytes32",
          "name": "",
          "type": "bytes32"
        }
      ],
      "stateMutability": "view",
      "type": "function"
    },
    {
      "inputs": [],
      "name": "ROUND_OPERATOR_ROLE",
      "outputs": [
        {
          "internalType": "bytes32",
          "name": "",
          "type": "bytes32"
        }
      ],
      "stateMutability": "view",
      "type": "function"
    },
    {
      "inputs": [],
      "name": "applicationMetaPtr",
      "outputs": [
        {
          "internalType": "uint256",
          "name": "protocol",
          "type": "uint256"
        },
        {
          "internalType": "string",
          "name": "pointer",
          "type": "string"
        }
      ],
      "stateMutability": "view",
      "type": "function"
    },
    {
      "inputs": [],
      "name": "applicationsEndTime",
      "outputs": [
        {
          "internalType": "uint256",
          "name": "",
          "type": "uint256"
        }
      ],
      "stateMutability": "view",
      "type": "function"
    },
    {
      "inputs": [],
      "name": "applicationsStartTime",
      "outputs": [
        {
          "internalType": "uint256",
          "name": "",
          "type": "uint256"
        }
      ],
      "stateMutability": "view",
      "type": "function"
    },
    {
      "inputs": [
        {
          "internalType": "bytes32",
          "name": "projectID",
          "type": "bytes32"
        },
        {
          "components": [
            {
              "internalType": "uint256",
              "name": "protocol",
              "type": "uint256"
            },
            {
              "internalType": "string",
              "name": "pointer",
              "type": "string"
            }
          ],
          "internalType": "struct MetaPtr",
          "name": "newApplicationMetaPtr",
          "type": "tuple"
        }
      ],
      "name": "applyToRound",
      "outputs": [],
      "stateMutability": "nonpayable",
      "type": "function"
    },
    {
      "inputs": [
        {
          "internalType": "bytes32",
          "name": "role",
          "type": "bytes32"
        }
      ],
      "name": "getRoleAdmin",
      "outputs": [
        {
          "internalType": "bytes32",
          "name": "",
          "type": "bytes32"
        }
      ],
      "stateMutability": "view",
      "type": "function"
    },
    {
      "inputs": [
        {
          "internalType": "bytes32",
          "name": "role",
          "type": "bytes32"
        },
        {
          "internalType": "uint256",
          "name": "index",
          "type": "uint256"
        }
      ],
      "name": "getRoleMember",
      "outputs": [
        {
          "internalType": "address",
          "name": "",
          "type": "address"
        }
      ],
      "stateMutability": "view",
      "type": "function"
    },
    {
      "inputs": [
        {
          "internalType": "bytes32",
          "name": "role",
          "type": "bytes32"
        }
      ],
      "name": "getRoleMemberCount",
      "outputs": [
        {
          "internalType": "uint256",
          "name": "",
          "type": "uint256"
        }
      ],
      "stateMutability": "view",
      "type": "function"
    },
    {
      "inputs": [
        {
          "internalType": "bytes32",
          "name": "role",
          "type": "bytes32"
        },
        {
          "internalType": "address",
          "name": "account",
          "type": "address"
        }
      ],
      "name": "grantRole",
      "outputs": [],
      "stateMutability": "nonpayable",
      "type": "function"
    },
    {
      "inputs": [
        {
          "internalType": "bytes32",
          "name": "role",
          "type": "bytes32"
        },
        {
          "internalType": "address",
          "name": "account",
          "type": "address"
        }
      ],
      "name": "hasRole",
      "outputs": [
        {
          "internalType": "bool",
          "name": "",
          "type": "bool"
        }
      ],
      "stateMutability": "view",
      "type": "function"
    },
    {
      "inputs": [
        {
          "internalType": "bytes",
          "name": "encodedParameters",
          "type": "bytes"
        }
      ],
      "name": "initialize",
      "outputs": [],
      "stateMutability": "nonpayable",
      "type": "function"
    },
    {
      "inputs": [],
      "name": "matchAmount",
      "outputs": [
        {
          "internalType": "uint256",
          "name": "",
          "type": "uint256"
        }
      ],
      "stateMutability": "view",
      "type": "function"
    },
    {
      "inputs": [],
      "name": "payoutStrategy",
      "outputs": [
        {
          "internalType": "contract IPayoutStrategy",
          "name": "",
          "type": "address"
        }
      ],
      "stateMutability": "view",
      "type": "function"
    },
    {
      "inputs": [],
      "name": "projectsMetaPtr",
      "outputs": [
        {
          "internalType": "uint256",
          "name": "protocol",
          "type": "uint256"
        },
        {
          "internalType": "string",
          "name": "pointer",
          "type": "string"
        }
      ],
      "stateMutability": "view",
      "type": "function"
    },
    {
      "inputs": [
        {
          "internalType": "bytes32",
          "name": "role",
          "type": "bytes32"
        },
        {
          "internalType": "address",
          "name": "account",
          "type": "address"
        }
      ],
      "name": "renounceRole",
      "outputs": [],
      "stateMutability": "nonpayable",
      "type": "function"
    },
    {
      "inputs": [
        {
          "internalType": "bytes32",
          "name": "role",
          "type": "bytes32"
        },
        {
          "internalType": "address",
          "name": "account",
          "type": "address"
        }
      ],
      "name": "revokeRole",
      "outputs": [],
      "stateMutability": "nonpayable",
      "type": "function"
    },
    {
      "inputs": [],
      "name": "roundEndTime",
      "outputs": [
        {
          "internalType": "uint256",
          "name": "",
          "type": "uint256"
        }
      ],
      "stateMutability": "view",
      "type": "function"
    },
    {
      "inputs": [],
      "name": "roundMetaPtr",
      "outputs": [
        {
          "internalType": "uint256",
          "name": "protocol",
          "type": "uint256"
        },
        {
          "internalType": "string",
          "name": "pointer",
          "type": "string"
        }
      ],
      "stateMutability": "view",
      "type": "function"
    },
    {
      "inputs": [],
      "name": "roundStartTime",
      "outputs": [
        {
          "internalType": "uint256",
          "name": "",
          "type": "uint256"
        }
      ],
      "stateMutability": "view",
      "type": "function"
    },
    {
      "inputs": [],
      "name": "setReadyForPayout",
      "outputs": [],
      "stateMutability": "payable",
      "type": "function"
    },
    {
      "inputs": [
        {
          "internalType": "bytes4",
          "name": "interfaceId",
          "type": "bytes4"
        }
      ],
      "name": "supportsInterface",
      "outputs": [
        {
          "internalType": "bool",
          "name": "",
          "type": "bool"
        }
      ],
      "stateMutability": "view",
      "type": "function"
    },
    {
      "inputs": [],
      "name": "token",
      "outputs": [
        {
          "internalType": "contract IERC20",
          "name": "",
          "type": "address"
        }
      ],
      "stateMutability": "view",
      "type": "function"
    },
    {
      "inputs": [
        {
          "components": [
            {
              "internalType": "uint256",
              "name": "protocol",
              "type": "uint256"
            },
            {
              "internalType": "string",
              "name": "pointer",
              "type": "string"
            }
          ],
          "internalType": "struct MetaPtr",
          "name": "newApplicationMetaPtr",
          "type": "tuple"
        }
      ],
      "name": "updateApplicationMetaPtr",
      "outputs": [],
      "stateMutability": "nonpayable",
      "type": "function"
    },
    {
      "inputs": [
        {
          "internalType": "uint256",
          "name": "newApplicationsEndTime",
          "type": "uint256"
        }
      ],
      "name": "updateApplicationsEndTime",
      "outputs": [],
      "stateMutability": "nonpayable",
      "type": "function"
    },
    {
      "inputs": [
        {
          "internalType": "uint256",
          "name": "newApplicationsStartTime",
          "type": "uint256"
        }
      ],
      "name": "updateApplicationsStartTime",
      "outputs": [],
      "stateMutability": "nonpayable",
      "type": "function"
    },
    {
      "inputs": [
        {
          "internalType": "uint256",
          "name": "newAmount",
          "type": "uint256"
        }
      ],
      "name": "updateMatchAmount",
      "outputs": [],
      "stateMutability": "nonpayable",
      "type": "function"
    },
    {
      "inputs": [
        {
          "components": [
            {
              "internalType": "uint256",
              "name": "protocol",
              "type": "uint256"
            },
            {
              "internalType": "string",
              "name": "pointer",
              "type": "string"
            }
          ],
          "internalType": "struct MetaPtr",
          "name": "newProjectsMetaPtr",
          "type": "tuple"
        }
      ],
      "name": "updateProjectsMetaPtr",
      "outputs": [],
      "stateMutability": "nonpayable",
      "type": "function"
    },
    {
      "inputs": [
        {
          "internalType": "uint256",
          "name": "newRoundEndTime",
          "type": "uint256"
        }
      ],
      "name": "updateRoundEndTime",
      "outputs": [],
      "stateMutability": "nonpayable",
      "type": "function"
    },
    {
      "inputs": [
        {
          "components": [
            {
              "internalType": "uint256",
              "name": "protocol",
              "type": "uint256"
            },
            {
              "internalType": "string",
              "name": "pointer",
              "type": "string"
            }
          ],
          "internalType": "struct MetaPtr",
          "name": "newRoundMetaPtr",
          "type": "tuple"
        }
      ],
      "name": "updateRoundMetaPtr",
      "outputs": [],
      "stateMutability": "nonpayable",
      "type": "function"
    },
    {
      "inputs": [
        {
          "internalType": "uint256",
          "name": "newRoundStartTime",
          "type": "uint256"
        }
      ],
      "name": "updateRoundStartTime",
      "outputs": [],
      "stateMutability": "nonpayable",
      "type": "function"
    },
    {
      "inputs": [
        {
          "internalType": "bytes[]",
          "name": "encodedVotes",
          "type": "bytes[]"
        }
      ],
      "name": "vote",
      "outputs": [],
      "stateMutability": "payable",
      "type": "function"
    },
    {
      "inputs": [],
      "name": "votingStrategy",
      "outputs": [
        {
          "internalType": "contract IVotingStrategy",
          "name": "",
          "type": "address"
        }
      ],
      "stateMutability": "view",
      "type": "function"
    },
    {
      "inputs": [
        {
          "internalType": "address",
          "name": "tokenAddress",
          "type": "address"
        },
        {
          "internalType": "address payable",
          "name": "recipent",
          "type": "address"
        }
      ],
      "name": "withdraw",
      "outputs": [],
      "stateMutability": "nonpayable",
      "type": "function"
    },
    {
      "stateMutability": "payable",
      "type": "receive"
    }
  ],
  "bytecode": "0x608060405234801561001057600080fd5b50615ca180620000216000396000f3fe6080604052600436106101fd5760003560e01c80639fcf41151161010d578063d7bf7840116100a0578063f7f8ebca1161006f578063f7f8ebca1461071c578063f940e38514610747578063fb5c8bfd14610770578063fc0c546a1461079b578063fe169f76146107c657610204565b8063d7bf784014610672578063d97f3dcf1461069b578063dd4f8f74146106c6578063e40205d6146106f157610204565b8063b6d3393e116100dc578063b6d3393e146105b8578063ca15c873146105e1578063d195bba11461061e578063d547741f1461064957610204565b80639fcf411514610512578063a217fddf1461053b578063a4419aa814610566578063b02f18e71461058f57610204565b8063439fab91116101905780637aa54b681161015f5780637aa54b681461042a5780638926a888146104465780639010d07c1461046f57806391d14854146104ac57806392d4f9a9146104e957610204565b8063439fab91146103835780634c3d1fab146103ac578063685bd21b146103d5578063697e5f691461040157610204565b8063248a9ca3116101cc578063248a9ca3146102c85780632698f3fb146103055780632f2ff15d1461033157806336568abe1461035a57610204565b806301ffc9a7146102095780630c0a56b614610246578063172a51a5146102715780631e949c9e1461029d57610204565b3661020457005b600080fd5b34801561021557600080fd5b50610230600480360381019061022b9190612f61565b6107d0565b60405161023d9190612fa9565b60405180910390f35b34801561025257600080fd5b5061025b61084a565b6040516102689190613043565b60405180910390f35b34801561027d57600080fd5b50610286610870565b604051610294929190613107565b60405180910390f35b3480156102a957600080fd5b506102b261090a565b6040516102bf9190613137565b60405180910390f35b3480156102d457600080fd5b506102ef60048036038101906102ea9190613188565b610910565b6040516102fc91906131c4565b60405180910390f35b34801561031157600080fd5b5061031a61092f565b604051610328929190613107565b60405180910390f35b34801561033d57600080fd5b506103586004803603810190610353919061321d565b6109c9565b005b34801561036657600080fd5b50610381600480360381019061037c919061321d565b6109ea565b005b34801561038f57600080fd5b506103aa60048036038101906103a591906132c2565b610a6d565b005b3480156103b857600080fd5b506103d360048036038101906103ce919061333b565b611081565b005b3480156103e157600080fd5b506103ea611202565b6040516103f8929190613107565b60405180910390f35b34801561040d57600080fd5b506104286004803603810190610423919061333b565b61129c565b005b610444600480360381019061043f9190613579565b611391565b005b34801561045257600080fd5b5061046d600480360381019061046891906136d9565b611475565b005b34801561047b57600080fd5b5061049660048036038101906104919190613722565b611548565b6040516104a39190613771565b60405180910390f35b3480156104b857600080fd5b506104d360048036038101906104ce919061321d565b611577565b6040516104e09190612fa9565b60405180910390f35b3480156104f557600080fd5b50610510600480360381019061050b91906137b0565b6115e1565b005b34801561051e57600080fd5b506105396004803603810190610534919061333b565b6116a0565b005b34801561054757600080fd5b50610550611821565b60405161055d91906131c4565b60405180910390f35b34801561057257600080fd5b5061058d6004803603810190610588919061333b565b611828565b005b34801561059b57600080fd5b506105b660048036038101906105b191906137f9565b6119a9565b005b3480156105c457600080fd5b506105df60048036038101906105da919061333b565b611a2a565b005b3480156105ed57600080fd5b5061060860048036038101906106039190613188565b611bab565b6040516106159190613137565b60405180910390f35b34801561062a57600080fd5b50610633611bcf565b6040516106409190613137565b60405180910390f35b34801561065557600080fd5b50610670600480360381019061066b919061321d565b611bd5565b005b34801561067e57600080fd5b50610699600480360381019061069491906136d9565b611bf6565b005b3480156106a757600080fd5b506106b0611cc9565b6040516106bd91906131c4565b60405180910390f35b3480156106d257600080fd5b506106db611ced565b6040516106e89190613137565b60405180910390f35b3480156106fd57600080fd5b50610706611cf3565b6040516107139190613137565b60405180910390f35b34801561072857600080fd5b50610731611cf9565b60405161073e9190613137565b60405180910390f35b34801561075357600080fd5b5061076e60048036038101906107699190613893565b611cff565b005b34801561077c57600080fd5b50610785611dd1565b6040516107929190613906565b60405180910390f35b3480156107a757600080fd5b506107b0611df5565b6040516107bd9190613942565b60405180910390f35b6107ce611e1b565b005b60007f5a05180f000000000000000000000000000000000000000000000000000000007bffffffffffffffffffffffffffffffffffffffffffffffffffffffff1916827bffffffffffffffffffffffffffffffffffffffffffffffffffffffff19161480610843575061084282612108565b5b9050919050565b600360009054906101000a900473ffffffffffffffffffffffffffffffffffffffff1681565b600d8060000154908060010180546108879061398c565b80601f01602080910402602001604051908101604052809291908181526020018280546108b39061398c565b80156109005780601f106108d557610100808354040283529160200191610900565b820191906000526020600020905b8154815290600101906020018083116108e357829003601f168201915b5050505050905082565b60055481565b6000806000838152602001908152602001600020600101549050919050565b60098060000154908060010180546109469061398c565b80601f01602080910402602001604051908101604052809291908181526020018280546109729061398c565b80156109bf5780601f10610994576101008083540402835291602001916109bf565b820191906000526020600020905b8154815290600101906020018083116109a257829003601f168201915b5050505050905082565b6109d282610910565b6109db81612182565b6109e58383612196565b505050565b6109f26121ca565b73ffffffffffffffffffffffffffffffffffffffff168173ffffffffffffffffffffffffffffffffffffffff1614610a5f576040517f08c379a0000000000000000000000000000000000000000000000000000000008152600401610a5690613a2f565b60405180910390fd5b610a6982826121d2565b5050565b6000600260019054906101000a900460ff16159050808015610aa157506001600260009054906101000a900460ff1660ff16105b80610ad05750610ab030612206565b158015610acf57506001600260009054906101000a900460ff1660ff16145b5b610b0f576040517f08c379a0000000000000000000000000000000000000000000000000000000008152600401610b0690613ac1565b60405180910390fd5b6001600260006101000a81548160ff021916908360ff1602179055508015610b4d576001600260016101000a81548160ff0219169083151502179055505b60008060008060008060008060008060008d8d810190610b6d9190613c5e565b9a509a509a509a509a509a509a509a509a509a509a5042891015610bc6576040517f08c379a0000000000000000000000000000000000000000000000000000000008152600401610bbd90613e34565b60405180910390fd5b888811610c08576040517f08c379a0000000000000000000000000000000000000000000000000000000008152600401610bff90613eec565b60405180910390fd5b87861015610c4b576040517f08c379a0000000000000000000000000000000000000000000000000000000008152600401610c4290613f7e565b60405180910390fd5b868611610c8d576040517f08c379a0000000000000000000000000000000000000000000000000000000008152600401610c8490614010565b60405180910390fd5b88871015610cd0576040517f08c379a0000000000000000000000000000000000000000000000000000000008152600401610cc7906140c8565b60405180910390fd5b8a6002806101000a81548173ffffffffffffffffffffffffffffffffffffffff021916908373ffffffffffffffffffffffffffffffffffffffff16021790555089600360006101000a81548173ffffffffffffffffffffffffffffffffffffffff021916908373ffffffffffffffffffffffffffffffffffffffff1602179055508860048190555087600581905550866006819055508560078190555084600860006101000a81548173ffffffffffffffffffffffffffffffffffffffff021916908373ffffffffffffffffffffffffffffffffffffffff16021790555060028054906101000a900473ffffffffffffffffffffffffffffffffffffffff1673ffffffffffffffffffffffffffffffffffffffff1663e1c7392a6040518163ffffffff1660e01b8152600401600060405180830381600087803b158015610e1657600080fd5b505af1158015610e2a573d6000803e3d6000fd5b50505050600360009054906101000a900473ffffffffffffffffffffffffffffffffffffffff1673ffffffffffffffffffffffffffffffffffffffff1663e1c7392a6040518163ffffffff1660e01b8152600401600060405180830381600087803b158015610e9857600080fd5b505af1158015610eac573d6000803e3d6000fd5b505050507fb625c4faee7533bf09da813b9c0e169f98d36c22d9ce5181c9e4d7577556760a600985604051610ee2929190614291565b60405180910390a1836009600082015181600001556020820151816001019081610f0c9190614455565b509050507ffd4633953debc7fbfababf529ffe33c4a6dd78c9ff13db552b571df088478641600b84604051610f42929190614291565b60405180910390a182600b600082015181600001556020820151816001019081610f6c9190614455565b5090505060005b8251811015610fb457610fa36000801b848381518110610f9657610f95614527565b5b6020026020010151612196565b80610fad90614585565b9050610f73565b5060005b8151811015611016576110057fec61da14b5abbac5c5fda6f1d57642a264ebd5d0674f35852829746dfb8174a5838381518110610ff857610ff7614527565b5b6020026020010151612196565b8061100f90614585565b9050610fb8565b505050505050505050505050801561107c576000600260016101000a81548160ff0219169083151502179055507f7f26b83ff96e1f2b6a682f133852f6798a09c465da95921460cefb384740249860016040516110739190614615565b60405180910390a15b505050565b6007544211156110c6576040517f08c379a00000000000000000000000000000000000000000000000000000000081526004016110bd9061467c565b60405180910390fd5b7fec61da14b5abbac5c5fda6f1d57642a264ebd5d0674f35852829746dfb8174a56110f081612182565b42821015611133576040517f08c379a000000000000000000000000000000000000000000000000000000000815260040161112a90614734565b60405180910390fd5b600654821115611178576040517f08c379a000000000000000000000000000000000000000000000000000000000815260040161116f906147c6565b60405180910390fd5b60055482106111bc576040517f08c379a00000000000000000000000000000000000000000000000000000000081526004016111b39061487e565b60405180910390fd5b7f1fde68e630df12a4f2baa029dd016929d2c6bccc0fdd80dec2a787b01035517e600454836040516111ef92919061489e565b60405180910390a1816004819055505050565b600b8060000154908060010180546112199061398c565b80601f01602080910402602001604051908101604052809291908181526020018280546112459061398c565b80156112925780601f1061126757610100808354040283529160200191611292565b820191906000526020600020905b81548152906001019060200180831161127557829003601f168201915b5050505050905082565b6007544211156112e1576040517f08c379a00000000000000000000000000000000000000000000000000000000081526004016112d89061467c565b60405180910390fd5b7fec61da14b5abbac5c5fda6f1d57642a264ebd5d0674f35852829746dfb8174a561130b81612182565b600f54821161134f576040517f08c379a000000000000000000000000000000000000000000000000000000000815260040161134690614939565b60405180910390fd5b81600f819055507f36407b7517f93b8dd6bf87384f27398dc6c7158776015e7492bbae639be60bdd826040516113859190613137565b60405180910390a15050565b42600654111580156113a557506007544211155b6113e4576040517f08c379a00000000000000000000000000000000000000000000000000000000081526004016113db906149a5565b60405180910390fd5b60028054906101000a900473ffffffffffffffffffffffffffffffffffffffff1673ffffffffffffffffffffffffffffffffffffffff1663fc6d4e393483336040518463ffffffff1660e01b8152600401611440929190614adc565b6000604051808303818588803b15801561145957600080fd5b505af115801561146d573d6000803e3d6000fd5b505050505050565b6007544211156114ba576040517f08c379a00000000000000000000000000000000000000000000000000000000081526004016114b19061467c565b60405180910390fd5b7fec61da14b5abbac5c5fda6f1d57642a264ebd5d0674f35852829746dfb8174a56114e481612182565b7ffd4633953debc7fbfababf529ffe33c4a6dd78c9ff13db552b571df088478641600b83604051611516929190614291565b60405180910390a181600b6000820151816000015560208201518160010190816115409190614455565b509050505050565b600061156f826001600086815260200190815260200160002061222990919063ffffffff16565b905092915050565b600080600084815260200190815260200160002060000160008373ffffffffffffffffffffffffffffffffffffffff1673ffffffffffffffffffffffffffffffffffffffff16815260200190815260200160002060009054906101000a900460ff16905092915050565b600754421115611626576040517f08c379a000000000000000000000000000000000000000000000000000000000815260040161161d9061467c565b60405180910390fd5b7fec61da14b5abbac5c5fda6f1d57642a264ebd5d0674f35852829746dfb8174a561165081612182565b7fd89ecd28a8dd4688401fd735d473fe15800c2551b32188cbefda0db6677dcc34600d83604051611682929190614c11565b60405180910390a181600d81816116999190614e73565b9050505050565b6007544211156116e5576040517f08c379a00000000000000000000000000000000000000000000000000000000081526004016116dc9061467c565b60405180910390fd5b7fec61da14b5abbac5c5fda6f1d57642a264ebd5d0674f35852829746dfb8174a561170f81612182565b42821015611752576040517f08c379a000000000000000000000000000000000000000000000000000000000815260040161174990614ef3565b60405180910390fd5b6006548211611796576040517f08c379a000000000000000000000000000000000000000000000000000000000815260040161178d90614f85565b60405180910390fd5b6005548210156117db576040517f08c379a00000000000000000000000000000000000000000000000000000000081526004016117d29061503d565b60405180910390fd5b7fc0395d95a518149baa3521bb5b3c6988c7806a48ea42726ee3a9686bbd2a08cd6007548360405161180e92919061489e565b60405180910390a1816007819055505050565b6000801b81565b60075442111561186d576040517f08c379a00000000000000000000000000000000000000000000000000000000081526004016118649061467c565b60405180910390fd5b7fec61da14b5abbac5c5fda6f1d57642a264ebd5d0674f35852829746dfb8174a561189781612182565b428210156118da576040517f08c379a00000000000000000000000000000000000000000000000000000000081526004016118d1906150cf565b60405180910390fd5b60045482101561191f576040517f08c379a000000000000000000000000000000000000000000000000000000000815260040161191690615187565b60405180910390fd5b6007548210611963576040517f08c379a000000000000000000000000000000000000000000000000000000000815260040161195a90615219565b60405180910390fd5b7fbd905b0cf9e380e3eaf972d7cb542694f66361043fcce248341d90626d4674766006548360405161199692919061489e565b60405180910390a1816006819055505050565b6007544211156119ee576040517f08c379a00000000000000000000000000000000000000000000000000000000081526004016119e59061467c565b60405180910390fd5b817fec793fe704d340d962cd02d81ad54045e7ceea713aca4e31c7c5c43e3dcb192a82604051611a1e9190615239565b60405180910390a25050565b600754421115611a6f576040517f08c379a0000000000000000000000000000000000000000000000000000000008152600401611a669061467c565b60405180910390fd5b7fec61da14b5abbac5c5fda6f1d57642a264ebd5d0674f35852829746dfb8174a5611a9981612182565b42821015611adc576040517f08c379a0000000000000000000000000000000000000000000000000000000008152600401611ad3906152f3565b60405180910390fd5b6004548211611b20576040517f08c379a0000000000000000000000000000000000000000000000000000000008152600401611b17906153ab565b60405180910390fd5b600754821115611b65576040517f08c379a0000000000000000000000000000000000000000000000000000000008152600401611b5c9061543d565b60405180910390fd5b7fa7fbc7103523f0d44281a3a3ba5aa119e9cab30ae02c09932eb2524c7d81f46360055483604051611b9892919061489e565b60405180910390a1816005819055505050565b6000611bc860016000848152602001908152602001600020612243565b9050919050565b60045481565b611bde82610910565b611be781612182565b611bf183836121d2565b505050565b600754421115611c3b576040517f08c379a0000000000000000000000000000000000000000000000000000000008152600401611c329061467c565b60405180910390fd5b7fec61da14b5abbac5c5fda6f1d57642a264ebd5d0674f35852829746dfb8174a5611c6581612182565b7fb625c4faee7533bf09da813b9c0e169f98d36c22d9ce5181c9e4d7577556760a600983604051611c97929190614291565b60405180910390a1816009600082015181600001556020820151816001019081611cc19190614455565b509050505050565b7fec61da14b5abbac5c5fda6f1d57642a264ebd5d0674f35852829746dfb8174a581565b60065481565b60075481565b600f5481565b7fec61da14b5abbac5c5fda6f1d57642a264ebd5d0674f35852829746dfb8174a5611d2981612182565b600860009054906101000a900473ffffffffffffffffffffffffffffffffffffffff1673ffffffffffffffffffffffffffffffffffffffff168373ffffffffffffffffffffffffffffffffffffffff1603611db9576040517f08c379a0000000000000000000000000000000000000000000000000000000008152600401611db0906154cf565b60405180910390fd5b611dcc82611dc685612258565b85612317565b505050565b60028054906101000a900473ffffffffffffffffffffffffffffffffffffffff1681565b600860009054906101000a900473ffffffffffffffffffffffffffffffffffffffff1681565b6007544211611e5f576040517f08c379a0000000000000000000000000000000000000000000000000000000008152600401611e569061553b565b60405180910390fd5b7fec61da14b5abbac5c5fda6f1d57642a264ebd5d0674f35852829746dfb8174a5611e8981612182565b6000611eb6600860009054906101000a900473ffffffffffffffffffffffffffffffffffffffff16612258565b9050600f54811015611efd576040517f08c379a0000000000000000000000000000000000000000000000000000000008152600401611ef4906155cd565b60405180910390fd5b600073ffffffffffffffffffffffffffffffffffffffff16600860009054906101000a900473ffffffffffffffffffffffffffffffffffffffff1673ffffffffffffffffffffffffffffffffffffffff1603611fdb57600360009054906101000a900473ffffffffffffffffffffffffffffffffffffffff1673ffffffffffffffffffffffffffffffffffffffff1663fe169f76826040518263ffffffff1660e01b81526004016000604051808303818588803b158015611fbd57600080fd5b505af1158015611fd1573d6000803e3d6000fd5b50505050506120cd565b61204a600360009054906101000a900473ffffffffffffffffffffffffffffffffffffffff1682600860009054906101000a900473ffffffffffffffffffffffffffffffffffffffff1673ffffffffffffffffffffffffffffffffffffffff1661238b9092919063ffffffff16565b600360009054906101000a900473ffffffffffffffffffffffffffffffffffffffff1673ffffffffffffffffffffffffffffffffffffffff1663fe169f766040518163ffffffff1660e01b8152600401600060405180830381600087803b1580156120b457600080fd5b505af11580156120c8573d6000803e3d6000fd5b505050505b7f74d7acdd26279b5285b3c863076dc9c0a4187a75e2924e96aa0c8cf061b4a638816040516120fc9190613137565b60405180910390a15050565b60007f7965db0b000000000000000000000000000000000000000000000000000000007bffffffffffffffffffffffffffffffffffffffffffffffffffffffff1916827bffffffffffffffffffffffffffffffffffffffffffffffffffffffff1916148061217b575061217a82612411565b5b9050919050565b6121938161218e6121ca565b61247b565b50565b6121a08282612500565b6121c581600160008581526020019081526020016000206125e090919063ffffffff16565b505050565b600033905090565b6121dc8282612610565b61220181600160008581526020019081526020016000206126f190919063ffffffff16565b505050565b6000808273ffffffffffffffffffffffffffffffffffffffff163b119050919050565b60006122388360000183612721565b60001c905092915050565b60006122518260000161274c565b9050919050565b60008073ffffffffffffffffffffffffffffffffffffffff168273ffffffffffffffffffffffffffffffffffffffff160361229557479050612312565b8173ffffffffffffffffffffffffffffffffffffffff166370a08231306040518263ffffffff1660e01b81526004016122ce9190613771565b602060405180830381865afa1580156122eb573d6000803e3d6000fd5b505050506040513d601f19601f8201168201806040525081019061230f9190615602565b90505b919050565b600073ffffffffffffffffffffffffffffffffffffffff168173ffffffffffffffffffffffffffffffffffffffff160361235a57612355838361275d565b612386565b61238583838373ffffffffffffffffffffffffffffffffffffffff1661238b9092919063ffffffff16565b5b505050565b61240c8363a9059cbb60e01b84846040516024016123aa92919061562f565b604051602081830303815290604052907bffffffffffffffffffffffffffffffffffffffffffffffffffffffff19166020820180517bffffffffffffffffffffffffffffffffffffffffffffffffffffffff8381831617835250505050612851565b505050565b60007f01ffc9a7000000000000000000000000000000000000000000000000000000007bffffffffffffffffffffffffffffffffffffffffffffffffffffffff1916827bffffffffffffffffffffffffffffffffffffffffffffffffffffffff1916149050919050565b6124858282611577565b6124fc5761249281612918565b6124a08360001c6020612945565b6040516020016124b192919061572c565b6040516020818303038152906040526040517f08c379a00000000000000000000000000000000000000000000000000000000081526004016124f39190615766565b60405180910390fd5b5050565b61250a8282611577565b6125dc57600160008084815260200190815260200160002060000160008373ffffffffffffffffffffffffffffffffffffffff1673ffffffffffffffffffffffffffffffffffffffff16815260200190815260200160002060006101000a81548160ff0219169083151502179055506125816121ca565b73ffffffffffffffffffffffffffffffffffffffff168173ffffffffffffffffffffffffffffffffffffffff16837f2f8788117e7eff1d82e926ec794901d17c78024a50270940304540a733656f0d60405160405180910390a45b5050565b6000612608836000018373ffffffffffffffffffffffffffffffffffffffff1660001b612b81565b905092915050565b61261a8282611577565b156126ed57600080600084815260200190815260200160002060000160008373ffffffffffffffffffffffffffffffffffffffff1673ffffffffffffffffffffffffffffffffffffffff16815260200190815260200160002060006101000a81548160ff0219169083151502179055506126926121ca565b73ffffffffffffffffffffffffffffffffffffffff168173ffffffffffffffffffffffffffffffffffffffff16837ff6391f5c32d9c69d2a47ea670b442974b53935d1edc7fd64eb21e047a839171b60405160405180910390a45b5050565b6000612719836000018373ffffffffffffffffffffffffffffffffffffffff1660001b612bf1565b905092915050565b600082600001828154811061273957612738614527565b5b9060005260206000200154905092915050565b600081600001805490509050919050565b804710156127a0576040517f08c379a0000000000000000000000000000000000000000000000000000000008152600401612797906157d4565b60405180910390fd5b60008273ffffffffffffffffffffffffffffffffffffffff16826040516127c690615825565b60006040518083038185875af1925050503d8060008114612803576040519150601f19603f3d011682016040523d82523d6000602084013e612808565b606091505b505090508061284c576040517f08c379a0000000000000000000000000000000000000000000000000000000008152600401612843906158ac565b60405180910390fd5b505050565b60006128b3826040518060400160405280602081526020017f5361666545524332303a206c6f772d6c6576656c2063616c6c206661696c65648152508573ffffffffffffffffffffffffffffffffffffffff16612d059092919063ffffffff16565b905060008151111561291357808060200190518101906128d391906158f8565b612912576040517f08c379a000000000000000000000000000000000000000000000000000000000815260040161290990615997565b60405180910390fd5b5b505050565b606061293e8273ffffffffffffffffffffffffffffffffffffffff16601460ff16612945565b9050919050565b60606000600283600261295891906159b7565b61296291906159f9565b67ffffffffffffffff81111561297b5761297a613368565b5b6040519080825280601f01601f1916602001820160405280156129ad5781602001600182028036833780820191505090505b5090507f3000000000000000000000000000000000000000000000000000000000000000816000815181106129e5576129e4614527565b5b60200101907effffffffffffffffffffffffffffffffffffffffffffffffffffffffffffff1916908160001a9053507f780000000000000000000000000000000000000000000000000000000000000081600181518110612a4957612a48614527565b5b60200101907effffffffffffffffffffffffffffffffffffffffffffffffffffffffffffff1916908160001a90535060006001846002612a8991906159b7565b612a9391906159f9565b90505b6001811115612b33577f3031323334353637383961626364656600000000000000000000000000000000600f861660108110612ad557612ad4614527565b5b1a60f81b828281518110612aec57612aeb614527565b5b60200101907effffffffffffffffffffffffffffffffffffffffffffffffffffffffffffff1916908160001a905350600485901c945080612b2c90615a2d565b9050612a96565b5060008414612b77576040517f08c379a0000000000000000000000000000000000000000000000000000000008152600401612b6e90615aa2565b60405180910390fd5b8091505092915050565b6000612b8d8383612d1d565b612be6578260000182908060018154018082558091505060019003906000526020600020016000909190919091505582600001805490508360010160008481526020019081526020016000208190555060019050612beb565b600090505b92915050565b60008083600101600084815260200190815260200160002054905060008114612cf9576000600182612c239190615ac2565b9050600060018660000180549050612c3b9190615ac2565b9050818114612caa576000866000018281548110612c5c57612c5b614527565b5b9060005260206000200154905080876000018481548110612c8057612c7f614527565b5b90600052602060002001819055508387600101600083815260200190815260200160002081905550505b85600001805480612cbe57612cbd615af6565b5b600190038181906000526020600020016000905590558560010160008681526020019081526020016000206000905560019350505050612cff565b60009150505b92915050565b6060612d148484600085612d40565b90509392505050565b600080836001016000848152602001908152602001600020541415905092915050565b606082471015612d85576040517f08c379a0000000000000000000000000000000000000000000000000000000008152600401612d7c90615b97565b60405180910390fd5b6000808673ffffffffffffffffffffffffffffffffffffffff168587604051612dae9190615be8565b60006040518083038185875af1925050503d8060008114612deb576040519150601f19603f3d011682016040523d82523d6000602084013e612df0565b606091505b5091509150612e0187838387612e0d565b92505050949350505050565b60608315612e6f576000835103612e6757612e2785612e82565b612e66576040517f08c379a0000000000000000000000000000000000000000000000000000000008152600401612e5d90615c4b565b60405180910390fd5b5b829050612e7a565b612e798383612ea5565b5b949350505050565b6000808273ffffffffffffffffffffffffffffffffffffffff163b119050919050565b600082511115612eb85781518083602001fd5b806040517f08c379a0000000000000000000000000000000000000000000000000000000008152600401612eec9190615766565b60405180910390fd5b6000604051905090565b600080fd5b600080fd5b60007fffffffff0000000000000000000000000000000000000000000000000000000082169050919050565b612f3e81612f09565b8114612f4957600080fd5b50565b600081359050612f5b81612f35565b92915050565b600060208284031215612f7757612f76612eff565b5b6000612f8584828501612f4c565b91505092915050565b60008115159050919050565b612fa381612f8e565b82525050565b6000602082019050612fbe6000830184612f9a565b92915050565b600073ffffffffffffffffffffffffffffffffffffffff82169050919050565b6000819050919050565b6000613009613004612fff84612fc4565b612fe4565b612fc4565b9050919050565b600061301b82612fee565b9050919050565b600061302d82613010565b9050919050565b61303d81613022565b82525050565b60006020820190506130586000830184613034565b92915050565b6000819050919050565b6130718161305e565b82525050565b600081519050919050565b600082825260208201905092915050565b60005b838110156130b1578082015181840152602081019050613096565b60008484015250505050565b6000601f19601f8301169050919050565b60006130d982613077565b6130e38185613082565b93506130f3818560208601613093565b6130fc816130bd565b840191505092915050565b600060408201905061311c6000830185613068565b818103602083015261312e81846130ce565b90509392505050565b600060208201905061314c6000830184613068565b92915050565b6000819050919050565b61316581613152565b811461317057600080fd5b50565b6000813590506131828161315c565b92915050565b60006020828403121561319e5761319d612eff565b5b60006131ac84828501613173565b91505092915050565b6131be81613152565b82525050565b60006020820190506131d960008301846131b5565b92915050565b60006131ea82612fc4565b9050919050565b6131fa816131df565b811461320557600080fd5b50565b600081359050613217816131f1565b92915050565b6000806040838503121561323457613233612eff565b5b600061324285828601613173565b925050602061325385828601613208565b9150509250929050565b600080fd5b600080fd5b600080fd5b60008083601f8401126132825761328161325d565b5b8235905067ffffffffffffffff81111561329f5761329e613262565b5b6020830191508360018202830111156132bb576132ba613267565b5b9250929050565b600080602083850312156132d9576132d8612eff565b5b600083013567ffffffffffffffff8111156132f7576132f6612f04565b5b6133038582860161326c565b92509250509250929050565b6133188161305e565b811461332357600080fd5b50565b6000813590506133358161330f565b92915050565b60006020828403121561335157613350612eff565b5b600061335f84828501613326565b91505092915050565b7f4e487b7100000000000000000000000000000000000000000000000000000000600052604160045260246000fd5b6133a0826130bd565b810181811067ffffffffffffffff821117156133bf576133be613368565b5b80604052505050565b60006133d2612ef5565b90506133de8282613397565b919050565b600067ffffffffffffffff8211156133fe576133fd613368565b5b602082029050602081019050919050565b600080fd5b600067ffffffffffffffff82111561342f5761342e613368565b5b613438826130bd565b9050602081019050919050565b82818337600083830152505050565b600061346761346284613414565b6133c8565b9050828152602081018484840111156134835761348261340f565b5b61348e848285613445565b509392505050565b600082601f8301126134ab576134aa61325d565b5b81356134bb848260208601613454565b91505092915050565b60006134d76134d2846133e3565b6133c8565b905080838252602082019050602084028301858111156134fa576134f9613267565b5b835b8181101561354157803567ffffffffffffffff81111561351f5761351e61325d565b5b80860161352c8982613496565b855260208501945050506020810190506134fc565b5050509392505050565b600082601f8301126135605761355f61325d565b5b81356135708482602086016134c4565b91505092915050565b60006020828403121561358f5761358e612eff565b5b600082013567ffffffffffffffff8111156135ad576135ac612f04565b5b6135b98482850161354b565b91505092915050565b600080fd5b600080fd5b600067ffffffffffffffff8211156135e7576135e6613368565b5b6135f0826130bd565b9050602081019050919050565b600061361061360b846135cc565b6133c8565b90508281526020810184848401111561362c5761362b61340f565b5b613637848285613445565b509392505050565b600082601f8301126136545761365361325d565b5b81356136648482602086016135fd565b91505092915050565b600060408284031215613683576136826135c2565b5b61368d60406133c8565b9050600061369d84828501613326565b600083015250602082013567ffffffffffffffff8111156136c1576136c06135c7565b5b6136cd8482850161363f565b60208301525092915050565b6000602082840312156136ef576136ee612eff565b5b600082013567ffffffffffffffff81111561370d5761370c612f04565b5b6137198482850161366d565b91505092915050565b6000806040838503121561373957613738612eff565b5b600061374785828601613173565b925050602061375885828601613326565b9150509250929050565b61376b816131df565b82525050565b60006020820190506137866000830184613762565b92915050565b600080fd5b6000604082840312156137a7576137a661378c565b5b81905092915050565b6000602082840312156137c6576137c5612eff565b5b600082013567ffffffffffffffff8111156137e4576137e3612f04565b5b6137f084828501613791565b91505092915050565b600080604083850312156138105761380f612eff565b5b600061381e85828601613173565b925050602083013567ffffffffffffffff81111561383f5761383e612f04565b5b61384b85828601613791565b9150509250929050565b600061386082612fc4565b9050919050565b61387081613855565b811461387b57600080fd5b50565b60008135905061388d81613867565b92915050565b600080604083850312156138aa576138a9612eff565b5b60006138b885828601613208565b92505060206138c98582860161387e565b9150509250929050565b60006138de82612fee565b9050919050565b60006138f0826138d3565b9050919050565b613900816138e5565b82525050565b600060208201905061391b60008301846138f7565b92915050565b600061392c826138d3565b9050919050565b61393c81613921565b82525050565b60006020820190506139576000830184613933565b92915050565b7f4e487b7100000000000000000000000000000000000000000000000000000000600052602260045260246000fd5b600060028204905060018216806139a457607f821691505b6020821081036139b7576139b661395d565b5b50919050565b7f416363657373436f6e74726f6c3a2063616e206f6e6c792072656e6f756e636560008201527f20726f6c657320666f722073656c660000000000000000000000000000000000602082015250565b6000613a19602f83613082565b9150613a24826139bd565b604082019050919050565b60006020820190508181036000830152613a4881613a0c565b9050919050565b7f496e697469616c697a61626c653a20636f6e747261637420697320616c72656160008201527f647920696e697469616c697a6564000000000000000000000000000000000000602082015250565b6000613aab602e83613082565b9150613ab682613a4f565b604082019050919050565b60006020820190508181036000830152613ada81613a9e565b9050919050565b6000613aec826131df565b9050919050565b613afc81613ae1565b8114613b0757600080fd5b50565b600081359050613b1981613af3565b92915050565b6000613b2a82613855565b9050919050565b613b3a81613b1f565b8114613b4557600080fd5b50565b600081359050613b5781613b31565b92915050565b6000613b68826131df565b9050919050565b613b7881613b5d565b8114613b8357600080fd5b50565b600081359050613b9581613b6f565b92915050565b600067ffffffffffffffff821115613bb657613bb5613368565b5b602082029050602081019050919050565b6000613bda613bd584613b9b565b6133c8565b90508083825260208201905060208402830185811115613bfd57613bfc613267565b5b835b81811015613c265780613c128882613208565b845260208401935050602081019050613bff565b5050509392505050565b600082601f830112613c4557613c4461325d565b5b8135613c55848260208601613bc7565b91505092915050565b60008060008060008060008060008060006101608c8e031215613c8457613c83612eff565b5b6000613c928e828f01613b0a565b9b50506020613ca38e828f01613b48565b9a50506040613cb48e828f01613326565b9950506060613cc58e828f01613326565b9850506080613cd68e828f01613326565b97505060a0613ce78e828f01613326565b96505060c0613cf88e828f01613b86565b95505060e08c013567ffffffffffffffff811115613d1957613d18612f04565b5b613d258e828f0161366d565b9450506101008c013567ffffffffffffffff811115613d4757613d46612f04565b5b613d538e828f0161366d565b9350506101208c013567ffffffffffffffff811115613d7557613d74612f04565b5b613d818e828f01613c30565b9250506101408c013567ffffffffffffffff811115613da357613da2612f04565b5b613daf8e828f01613c30565b9150509295989b509295989b9093969950565b7f696e697469616c697a653a206170706c69636174696f6e73207374617274207460008201527f696d652068617320616c72656164792070617373656400000000000000000000602082015250565b6000613e1e603683613082565b9150613e2982613dc2565b604082019050919050565b60006020820190508181036000830152613e4d81613e11565b9050919050565b7f696e697469616c697a653a206170706c69636174696f6e20656e642074696d6560008201527f2073686f756c64206265206166746572206170706c69636174696f6e2073746160208201527f72742074696d6500000000000000000000000000000000000000000000000000604082015250565b6000613ed6604783613082565b9150613ee182613e54565b606082019050919050565b60006020820190508181036000830152613f0581613ec9565b9050919050565b7f696e697469616c697a653a206170706c69636174696f6e20656e642074696d6560008201527f2073686f756c64206265206265666f726520726f756e6420656e642074696d65602082015250565b6000613f68604083613082565b9150613f7382613f0c565b604082019050919050565b60006020820190508181036000830152613f9781613f5b565b9050919050565b7f696e697469616c697a653a20656e642074696d652073686f756c64206265206160008201527f667465722073746172742074696d650000000000000000000000000000000000602082015250565b6000613ffa602f83613082565b915061400582613f9e565b604082019050919050565b6000602082019050818103600083015261402981613fed565b9050919050565b7f696e697469616c697a653a20726f756e642073746172742074696d652073686f60008201527f756c64206265206166746572206170706c69636174696f6e207374617274207460208201527f696d650000000000000000000000000000000000000000000000000000000000604082015250565b60006140b2604383613082565b91506140bd82614030565b606082019050919050565b600060208201905081810360008301526140e1816140a5565b9050919050565b60008160001c9050919050565b6000819050919050565b600061411261410d836140e8565b6140f5565b9050919050565b6141228161305e565b82525050565b600082825260208201905092915050565b60008190508160005260206000209050919050565b6000815461415b8161398c565b6141658186614128565b945060018216600081146141805760018114614196576141c9565b60ff1983168652811515602002860193506141c9565b61419f85614139565b60005b838110156141c1578154818901526001820191506020810190506141a2565b808801955050505b50505092915050565b60006040830160008084015490506141e9816140ff565b6141f66000870182614119565b5060018401858303602087015261420d838261414e565b925050819250505092915050565b600061422682613077565b6142308185614128565b9350614240818560208601613093565b614249816130bd565b840191505092915050565b600060408301600083015161426c6000860182614119565b5060208301518482036020860152614284828261421b565b9150508091505092915050565b600060408201905081810360008301526142ab81856141d2565b905081810360208301526142bf8184614254565b90509392505050565b60006020601f8301049050919050565b600082821b905092915050565b6000600883026143157fffffffffffffffffffffffffffffffffffffffffffffffffffffffffffffffff826142d8565b61431f86836142d8565b95508019841693508086168417925050509392505050565b600061435261434d6143488461305e565b612fe4565b61305e565b9050919050565b6000819050919050565b61436c83614337565b61438061437882614359565b8484546142e5565b825550505050565b600090565b614395614388565b6143a0818484614363565b505050565b5b818110156143c4576143b960008261438d565b6001810190506143a6565b5050565b601f821115614409576143da81614139565b6143e3846142c8565b810160208510156143f2578190505b6144066143fe856142c8565b8301826143a5565b50505b505050565b600082821c905092915050565b600061442c6000198460080261440e565b1980831691505092915050565b6000614445838361441b565b9150826002028217905092915050565b61445e82613077565b67ffffffffffffffff81111561447757614476613368565b5b614481825461398c565b61448c8282856143c8565b600060209050601f8311600181146144bf57600084156144ad578287015190505b6144b78582614439565b86555061451f565b601f1984166144cd86614139565b60005b828110156144f5578489015182556001820191506020850194506020810190506144d0565b86831015614512578489015161450e601f89168261441b565b8355505b6001600288020188555050505b505050505050565b7f4e487b7100000000000000000000000000000000000000000000000000000000600052603260045260246000fd5b7f4e487b7100000000000000000000000000000000000000000000000000000000600052601160045260246000fd5b60006145908261305e565b91507fffffffffffffffffffffffffffffffffffffffffffffffffffffffffffffffff82036145c2576145c1614556565b5b600182019050919050565b6000819050919050565b600060ff82169050919050565b60006145ff6145fa6145f5846145cd565b612fe4565b6145d7565b9050919050565b61460f816145e4565b82525050565b600060208201905061462a6000830184614606565b92915050565b7f6572726f723a20726f756e642068617320656e64656400000000000000000000600082015250565b6000614666601683613082565b915061467182614630565b602082019050919050565b6000602082019050818103600083015261469581614659565b9050919050565b7f7570646174654170706c69636174696f6e73537461727454696d653a2061707060008201527f6c69636174696f6e2073746172742074696d652068617320616c72656164792060208201527f7061737365640000000000000000000000000000000000000000000000000000604082015250565b600061471e604683613082565b91506147298261469c565b606082019050919050565b6000602082019050818103600083015261474d81614711565b9050919050565b7f7570646174654170706c69636174696f6e73537461727454696d653a2073686f60008201527f756c64206265206265666f726520726f756e642073746172742074696d650000602082015250565b60006147b0603e83613082565b91506147bb82614754565b604082019050919050565b600060208201905081810360008301526147df816147a3565b9050919050565b7f7570646174654170706c69636174696f6e73537461727454696d653a2073686f60008201527f756c64206265206265666f7265206170706c69636174696f6e20656e6420746960208201527f6d65000000000000000000000000000000000000000000000000000000000000604082015250565b6000614868604283613082565b9150614873826147e6565b606082019050919050565b600060208201905081810360008301526148978161485b565b9050919050565b60006040820190506148b36000830185613068565b6148c06020830184613068565b9392505050565b7f526f756e643a204c6573736572207468616e2063757272656e74206d6174636860008201527f20616d6f756e7400000000000000000000000000000000000000000000000000602082015250565b6000614923602783613082565b915061492e826148c7565b604082019050919050565b6000602082019050818103600083015261495281614916565b9050919050565b7f766f74653a20726f756e64206973206e6f742061637469766500000000000000600082015250565b600061498f601983613082565b915061499a82614959565b602082019050919050565b600060208201905081810360008301526149be81614982565b9050919050565b600081519050919050565b600082825260208201905092915050565b6000819050602082019050919050565b600081519050919050565b600082825260208201905092915050565b6000614a18826149f1565b614a2281856149fc565b9350614a32818560208601613093565b614a3b816130bd565b840191505092915050565b6000614a528383614a0d565b905092915050565b6000602082019050919050565b6000614a72826149c5565b614a7c81856149d0565b935083602082028501614a8e856149e1565b8060005b85811015614aca5784840389528151614aab8582614a46565b9450614ab683614a5a565b925060208a01995050600181019050614a92565b50829750879550505050505092915050565b60006040820190508181036000830152614af68185614a67565b9050614b056020830184613762565b9392505050565b6000614b1b6020840184613326565b905092915050565b600080fd5b600080fd5b600080fd5b60008083356001602003843603038112614b4f57614b4e614b2d565b5b83810192508235915060208301925067ffffffffffffffff821115614b7757614b76614b23565b5b600182023603831315614b8d57614b8c614b28565b5b509250929050565b6000614ba18385614128565b9350614bae838584613445565b614bb7836130bd565b840190509392505050565b600060408301614bd56000840184614b0c565b614be26000860182614119565b50614bf06020840184614b32565b8583036020870152614c03838284614b95565b925050508091505092915050565b60006040820190508181036000830152614c2b81856141d2565b90508181036020830152614c3f8184614bc2565b90509392505050565b60008135614c558161330f565b80915050919050565b60008160001b9050919050565b60007fffffffffffffffffffffffffffffffffffffffffffffffffffffffffffffffff614c9784614c5e565b9350801983169250808416831791505092915050565b614cb682614337565b614cc9614cc282614359565b8354614c6b565b8255505050565b600080fd5b600080fd5b600080fd5b60008083356001602003843603038112614cfc57614cfb614cd0565b5b80840192508235915067ffffffffffffffff821115614d1e57614d1d614cd5565b5b602083019250600182023603831315614d3a57614d39614cda565b5b509250929050565b600082905092915050565b614d578383614d42565b67ffffffffffffffff811115614d7057614d6f613368565b5b614d7a825461398c565b614d858282856143c8565b6000601f831160018114614db45760008415614da2578287013590505b614dac8582614439565b865550614e14565b601f198416614dc286614139565b60005b82811015614dea57848901358255600182019150602085019450602081019050614dc5565b86831015614e075784890135614e03601f89168261441b565b8355505b6001600288020188555050505b50505050505050565b614e28838383614d4d565b505050565b600081016000830180614e3f81614c48565b9050614e4b8184614cad565b5050506001810160208301614e608185614cdf565b614e6b818386614e1d565b505050505050565b614e7d8282614e2d565b5050565b7f757064617465526f756e64456e6454696d653a20656e642074696d652068617360008201527f20616c7265616479207061737365640000000000000000000000000000000000602082015250565b6000614edd602f83613082565b9150614ee882614e81565b604082019050919050565b60006020820190508181036000830152614f0c81614ed0565b9050919050565b7f757064617465526f756e64456e6454696d653a20656e642074696d652073686f60008201527f756c642062652061667465722073746172742074696d65000000000000000000602082015250565b6000614f6f603783613082565b9150614f7a82614f13565b604082019050919050565b60006020820190508181036000830152614f9e81614f62565b9050919050565b7f757064617465526f756e64456e6454696d653a20656e642074696d652073686f60008201527f756c64206265206166746572206170706c69636174696f6e20656e642074696d60208201527f6500000000000000000000000000000000000000000000000000000000000000604082015250565b6000615027604183613082565b915061503282614fa5565b606082019050919050565b600060208201905081810360008301526150568161501a565b9050919050565b7f757064617465526f756e64537461727454696d653a2073746172742074696d6560008201527f2068617320616c72656164792070617373656400000000000000000000000000602082015250565b60006150b9603383613082565b91506150c48261505d565b604082019050919050565b600060208201905081810360008301526150e8816150ac565b9050919050565b7f757064617465526f756e64537461727454696d653a2073746172742074696d6560008201527f2073686f756c64206265206166746572206170706c69636174696f6e2073746160208201527f72742074696d6500000000000000000000000000000000000000000000000000604082015250565b6000615171604783613082565b915061517c826150ef565b606082019050919050565b600060208201905081810360008301526151a081615164565b9050919050565b7f757064617465526f756e64537461727454696d653a2073746172742074696d6560008201527f2073686f756c64206265206265666f726520726f756e6420656e642074696d65602082015250565b6000615203604083613082565b915061520e826151a7565b604082019050919050565b60006020820190508181036000830152615232816151f6565b9050919050565b600060208201905081810360008301526152538184614bc2565b905092915050565b7f7570646174654170706c69636174696f6e73456e6454696d653a206170706c6960008201527f636174696f6e20656e642074696d652068617320616c7265616479207061737360208201527f6564000000000000000000000000000000000000000000000000000000000000604082015250565b60006152dd604283613082565b91506152e88261525b565b606082019050919050565b6000602082019050818103600083015261530c816152d0565b9050919050565b7f7570646174654170706c69636174696f6e73456e6454696d653a206170706c6960008201527f636174696f6e20656e642074696d652073686f756c642062652061667465722060208201527f6170706c69636174696f6e2073746172742074696d6500000000000000000000604082015250565b6000615395605683613082565b91506153a082615313565b606082019050919050565b600060208201905081810360008301526153c481615388565b9050919050565b7f7570646174654170706c69636174696f6e73456e6454696d653a2073686f756c60008201527f64206265206265666f726520726f756e6420656e642074696d65000000000000602082015250565b6000615427603a83613082565b9150615432826153cb565b604082019050919050565b600060208201905081810360008301526154568161541a565b9050919050565b7f526f756e643a2043616e6e6f7420776974686472617720726f756e6420746f6b60008201527f656e000000000000000000000000000000000000000000000000000000000000602082015250565b60006154b9602283613082565b91506154c48261545d565b604082019050919050565b600060208201905081810360008301526154e8816154ac565b9050919050565b7f726f756e6420686173206e6f7420656e64656400000000000000000000000000600082015250565b6000615525601383613082565b9150615530826154ef565b602082019050919050565b6000602082019050818103600083015261555481615518565b9050919050565b7f526f756e643a204e6f7420656e6f7567682066756e647320696e20636f6e747260008201527f6163740000000000000000000000000000000000000000000000000000000000602082015250565b60006155b7602383613082565b91506155c28261555b565b604082019050919050565b600060208201905081810360008301526155e6816155aa565b9050919050565b6000815190506155fc8161330f565b92915050565b60006020828403121561561857615617612eff565b5b6000615626848285016155ed565b91505092915050565b60006040820190506156446000830185613762565b6156516020830184613068565b9392505050565b600081905092915050565b7f416363657373436f6e74726f6c3a206163636f756e7420000000000000000000600082015250565b6000615699601783615658565b91506156a482615663565b601782019050919050565b60006156ba82613077565b6156c48185615658565b93506156d4818560208601613093565b80840191505092915050565b7f206973206d697373696e6720726f6c6520000000000000000000000000000000600082015250565b6000615716601183615658565b9150615721826156e0565b601182019050919050565b60006157378261568c565b915061574382856156af565b915061574e82615709565b915061575a82846156af565b91508190509392505050565b6000602082019050818103600083015261578081846130ce565b905092915050565b7f416464726573733a20696e73756666696369656e742062616c616e6365000000600082015250565b60006157be601d83613082565b91506157c982615788565b602082019050919050565b600060208201905081810360008301526157ed816157b1565b9050919050565b600081905092915050565b50565b600061580f6000836157f4565b915061581a826157ff565b600082019050919050565b600061583082615802565b9150819050919050565b7f416464726573733a20756e61626c6520746f2073656e642076616c75652c207260008201527f6563697069656e74206d61792068617665207265766572746564000000000000602082015250565b6000615896603a83613082565b91506158a18261583a565b604082019050919050565b600060208201905081810360008301526158c581615889565b9050919050565b6158d581612f8e565b81146158e057600080fd5b50565b6000815190506158f2816158cc565b92915050565b60006020828403121561590e5761590d612eff565b5b600061591c848285016158e3565b91505092915050565b7f5361666545524332303a204552433230206f7065726174696f6e20646964206e60008201527f6f74207375636365656400000000000000000000000000000000000000000000602082015250565b6000615981602a83613082565b915061598c82615925565b604082019050919050565b600060208201905081810360008301526159b081615974565b9050919050565b60006159c28261305e565b91506159cd8361305e565b92508282026159db8161305e565b915082820484148315176159f2576159f1614556565b5b5092915050565b6000615a048261305e565b9150615a0f8361305e565b9250828201905080821115615a2757615a26614556565b5b92915050565b6000615a388261305e565b915060008203615a4b57615a4a614556565b5b600182039050919050565b7f537472696e67733a20686578206c656e67746820696e73756666696369656e74600082015250565b6000615a8c602083613082565b9150615a9782615a56565b602082019050919050565b60006020820190508181036000830152615abb81615a7f565b9050919050565b6000615acd8261305e565b9150615ad88361305e565b9250828203905081811115615af057615aef614556565b5b92915050565b7f4e487b7100000000000000000000000000000000000000000000000000000000600052603160045260246000fd5b7f416464726573733a20696e73756666696369656e742062616c616e636520666f60008201527f722063616c6c0000000000000000000000000000000000000000000000000000602082015250565b6000615b81602683613082565b9150615b8c82615b25565b604082019050919050565b60006020820190508181036000830152615bb081615b74565b9050919050565b6000615bc2826149f1565b615bcc81856157f4565b9350615bdc818560208601613093565b80840191505092915050565b6000615bf48284615bb7565b915081905092915050565b7f416464726573733a2063616c6c20746f206e6f6e2d636f6e7472616374000000600082015250565b6000615c35601d83613082565b9150615c4082615bff565b602082019050919050565b60006020820190508181036000830152615c6481615c28565b905091905056fea2646970667358221220c5c56def6e2387df25a340d6d6a910a9a654c30faafdbc20e30f2ddee9729a1964736f6c63430008110033",
  "linkReferences": {},
  "deployedLinkReferences": {}
}